{
  "_format": "hh-sol-artifact-1",
  "contractName": "AuctionManager",
  "sourceName": "contracts/AuctionManager.sol",
  "abi": [
    {
      "inputs": [],
      "name": "AccessControlBadConfirmation",
      "type": "error"
    },
    {
      "inputs": [
        {
          "internalType": "address",
          "name": "account",
          "type": "address"
        },
        {
          "internalType": "bytes32",
          "name": "neededRole",
          "type": "bytes32"
        }
      ],
      "name": "AccessControlUnauthorizedAccount",
      "type": "error"
    },
    {
      "inputs": [
        {
          "internalType": "address",
          "name": "target",
          "type": "address"
        }
      ],
      "name": "AddressEmptyCode",
      "type": "error"
    },
    {
      "inputs": [
        {
          "internalType": "address",
          "name": "implementation",
          "type": "address"
        }
      ],
      "name": "ERC1967InvalidImplementation",
      "type": "error"
    },
    {
      "inputs": [],
      "name": "ERC1967NonPayable",
      "type": "error"
    },
    {
      "inputs": [],
      "name": "FailedCall",
      "type": "error"
    },
    {
      "inputs": [],
      "name": "InvalidInitialization",
      "type": "error"
    },
    {
      "inputs": [],
      "name": "NotInitializing",
      "type": "error"
    },
    {
      "inputs": [
        {
          "internalType": "address",
          "name": "owner",
          "type": "address"
        }
      ],
      "name": "OwnableInvalidOwner",
      "type": "error"
    },
    {
      "inputs": [
        {
          "internalType": "address",
          "name": "account",
          "type": "address"
        }
      ],
      "name": "OwnableUnauthorizedAccount",
      "type": "error"
    },
    {
      "inputs": [],
      "name": "UUPSUnauthorizedCallContext",
      "type": "error"
    },
    {
      "inputs": [
        {
          "internalType": "bytes32",
          "name": "slot",
          "type": "bytes32"
        }
      ],
      "name": "UUPSUnsupportedProxiableUUID",
      "type": "error"
    },
    {
      "anonymous": false,
      "inputs": [
        {
          "indexed": true,
          "internalType": "uint256",
          "name": "auctionId",
          "type": "uint256"
        },
        {
          "indexed": true,
          "internalType": "address",
          "name": "canceller",
          "type": "address"
        },
        {
          "indexed": false,
          "internalType": "string",
          "name": "reason",
          "type": "string"
        },
        {
          "indexed": false,
          "internalType": "uint256",
          "name": "timestamp",
          "type": "uint256"
        }
      ],
      "name": "AuctionCancelled",
      "type": "event"
    },
    {
      "anonymous": false,
      "inputs": [
        {
          "indexed": true,
          "internalType": "uint256",
          "name": "auctionId",
          "type": "uint256"
        },
        {
          "indexed": true,
          "internalType": "address",
          "name": "seller",
          "type": "address"
        },
        {
          "indexed": true,
          "internalType": "address",
          "name": "nftContract",
          "type": "address"
        },
        {
          "indexed": false,
          "internalType": "uint256",
          "name": "tokenId",
          "type": "uint256"
        },
        {
          "indexed": false,
          "internalType": "enum AuctionManager.AuctionType",
          "name": "auctionType",
          "type": "uint8"
        },
        {
          "indexed": false,
          "internalType": "uint256",
          "name": "startingPrice",
          "type": "uint256"
        },
        {
          "indexed": false,
          "internalType": "uint256",
          "name": "reservePrice",
          "type": "uint256"
        },
        {
          "indexed": false,
          "internalType": "uint256",
          "name": "duration",
          "type": "uint256"
        },
        {
          "indexed": false,
          "internalType": "uint256",
          "name": "depositAmount",
          "type": "uint256"
        }
      ],
      "name": "AuctionCreated",
      "type": "event"
    },
    {
      "anonymous": false,
      "inputs": [
        {
          "indexed": true,
          "internalType": "uint256",
          "name": "auctionId",
          "type": "uint256"
        },
        {
          "indexed": true,
          "internalType": "address",
          "name": "winner",
          "type": "address"
        },
        {
          "indexed": false,
          "internalType": "uint256",
          "name": "finalPrice",
          "type": "uint256"
        },
        {
          "indexed": false,
          "internalType": "uint256",
          "name": "endTime",
          "type": "uint256"
        }
      ],
      "name": "AuctionEnded",
      "type": "event"
    },
    {
      "anonymous": false,
      "inputs": [
        {
          "indexed": true,
          "internalType": "uint256",
          "name": "auctionId",
          "type": "uint256"
        },
        {
          "indexed": false,
          "internalType": "uint256",
          "name": "startTime",
          "type": "uint256"
        },
        {
          "indexed": false,
          "internalType": "uint256",
          "name": "endTime",
          "type": "uint256"
        },
        {
          "indexed": false,
          "internalType": "uint256",
          "name": "startingPrice",
          "type": "uint256"
        }
      ],
      "name": "AuctionStarted",
      "type": "event"
    },
    {
      "anonymous": false,
      "inputs": [
        {
          "indexed": true,
          "internalType": "uint256",
          "name": "auctionId",
          "type": "uint256"
        },
        {
          "indexed": true,
          "internalType": "address",
          "name": "bidder",
          "type": "address"
        },
        {
          "indexed": false,
          "internalType": "uint256",
          "name": "bidAmount",
          "type": "uint256"
        },
        {
          "indexed": false,
          "internalType": "uint256",
          "name": "timestamp",
          "type": "uint256"
        }
      ],
      "name": "BidPlaced",
      "type": "event"
    },
    {
      "anonymous": false,
      "inputs": [
        {
          "indexed": true,
          "internalType": "uint256",
          "name": "auctionId",
          "type": "uint256"
        },
        {
          "indexed": true,
          "internalType": "address",
          "name": "participant",
          "type": "address"
        },
        {
          "indexed": false,
          "internalType": "uint256",
          "name": "amount",
          "type": "uint256"
        },
        {
          "indexed": false,
          "internalType": "bool",
          "name": "isDeposit",
          "type": "bool"
        },
        {
          "indexed": false,
          "internalType": "uint256",
          "name": "timestamp",
          "type": "uint256"
        }
      ],
      "name": "DepositHandled",
      "type": "event"
    },
    {
      "anonymous": false,
      "inputs": [
        {
          "indexed": true,
          "internalType": "uint256",
          "name": "auctionId",
          "type": "uint256"
        },
        {
          "indexed": false,
          "internalType": "uint256",
          "name": "oldPrice",
          "type": "uint256"
        },
        {
          "indexed": false,
          "internalType": "uint256",
          "name": "newPrice",
          "type": "uint256"
        },
        {
          "indexed": false,
          "internalType": "uint256",
          "name": "timestamp",
          "type": "uint256"
        }
      ],
      "name": "DutchAuctionPriceUpdated",
      "type": "event"
    },
    {
      "anonymous": false,
      "inputs": [
        {
          "indexed": false,
          "internalType": "uint64",
          "name": "version",
          "type": "uint64"
        }
      ],
      "name": "Initialized",
      "type": "event"
    },
    {
      "anonymous": false,
      "inputs": [
        {
          "indexed": true,
          "internalType": "uint256",
          "name": "auctionId",
          "type": "uint256"
        },
        {
          "indexed": true,
          "internalType": "address",
          "name": "from",
          "type": "address"
        },
        {
          "indexed": true,
          "internalType": "address",
          "name": "to",
          "type": "address"
        },
        {
          "indexed": false,
          "internalType": "address",
          "name": "nftContract",
          "type": "address"
        },
        {
          "indexed": false,
          "internalType": "uint256",
          "name": "tokenId",
          "type": "uint256"
        },
        {
          "indexed": false,
          "internalType": "uint256",
          "name": "timestamp",
          "type": "uint256"
        }
      ],
      "name": "NFTTransferred",
      "type": "event"
    },
    {
      "anonymous": false,
      "inputs": [
        {
          "indexed": true,
          "internalType": "address",
          "name": "previousOwner",
          "type": "address"
        },
        {
          "indexed": true,
          "internalType": "address",
          "name": "newOwner",
          "type": "address"
        }
      ],
      "name": "OwnershipTransferred",
      "type": "event"
    },
    {
      "anonymous": false,
      "inputs": [
        {
          "indexed": true,
          "internalType": "uint256",
          "name": "auctionId",
          "type": "uint256"
        },
        {
          "indexed": true,
          "internalType": "address",
          "name": "seller",
          "type": "address"
        },
        {
          "indexed": true,
          "internalType": "address",
          "name": "buyer",
          "type": "address"
        },
        {
          "indexed": false,
          "internalType": "uint256",
          "name": "amount",
          "type": "uint256"
        },
        {
          "indexed": false,
          "internalType": "uint256",
          "name": "timestamp",
          "type": "uint256"
        }
      ],
      "name": "PaymentSettled",
      "type": "event"
    },
    {
      "anonymous": false,
      "inputs": [
        {
          "indexed": true,
          "internalType": "bytes32",
          "name": "role",
          "type": "bytes32"
        },
        {
          "indexed": true,
          "internalType": "bytes32",
          "name": "previousAdminRole",
          "type": "bytes32"
        },
        {
          "indexed": true,
          "internalType": "bytes32",
          "name": "newAdminRole",
          "type": "bytes32"
        }
      ],
      "name": "RoleAdminChanged",
      "type": "event"
    },
    {
      "anonymous": false,
      "inputs": [
        {
          "indexed": true,
          "internalType": "bytes32",
          "name": "role",
          "type": "bytes32"
        },
        {
          "indexed": true,
          "internalType": "address",
          "name": "account",
          "type": "address"
        },
        {
          "indexed": true,
          "internalType": "address",
          "name": "sender",
          "type": "address"
        }
      ],
      "name": "RoleGranted",
      "type": "event"
    },
    {
      "anonymous": false,
      "inputs": [
        {
          "indexed": true,
          "internalType": "bytes32",
          "name": "role",
          "type": "bytes32"
        },
        {
          "indexed": true,
          "internalType": "address",
          "name": "account",
          "type": "address"
        },
        {
          "indexed": true,
          "internalType": "address",
          "name": "sender",
          "type": "address"
        }
      ],
      "name": "RoleRevoked",
      "type": "event"
    },
    {
      "anonymous": false,
      "inputs": [
        {
          "indexed": true,
          "internalType": "address",
          "name": "implementation",
          "type": "address"
        }
      ],
      "name": "Upgraded",
      "type": "event"
    },
    {
      "inputs": [],
      "name": "ADMIN_ROLE",
      "outputs": [
        {
          "internalType": "bytes32",
          "name": "",
          "type": "bytes32"
        }
      ],
      "stateMutability": "view",
      "type": "function"
    },
    {
      "inputs": [],
      "name": "DEFAULT_ADMIN_ROLE",
      "outputs": [
        {
          "internalType": "bytes32",
          "name": "",
          "type": "bytes32"
        }
      ],
      "stateMutability": "view",
      "type": "function"
    },
    {
      "inputs": [],
      "name": "UPGRADE_INTERFACE_VERSION",
      "outputs": [
        {
          "internalType": "string",
          "name": "",
          "type": "string"
        }
      ],
      "stateMutability": "view",
      "type": "function"
    },
    {
      "inputs": [],
      "name": "auctionCount",
      "outputs": [
        {
          "internalType": "uint256",
          "name": "",
          "type": "uint256"
        }
      ],
      "stateMutability": "view",
      "type": "function"
    },
    {
      "inputs": [
        {
          "internalType": "uint256",
          "name": "",
          "type": "uint256"
        }
      ],
      "name": "auctions",
      "outputs": [
        {
          "internalType": "enum AuctionManager.AuctionType",
          "name": "auctionType",
          "type": "uint8"
        },
        {
          "internalType": "address",
          "name": "seller",
          "type": "address"
        },
        {
          "internalType": "address",
          "name": "nftContract",
          "type": "address"
        },
        {
          "internalType": "uint256",
          "name": "tokenId",
          "type": "uint256"
        },
        {
          "internalType": "enum AuctionManager.AuctionStatus",
          "name": "auctionStatus",
          "type": "uint8"
        },
        {
          "internalType": "uint256",
          "name": "duration",
          "type": "uint256"
        },
        {
          "internalType": "uint256",
          "name": "depositAmount",
          "type": "uint256"
        },
        {
          "internalType": "address",
          "name": "highestBidder",
          "type": "address"
        },
        {
          "internalType": "uint256",
          "name": "finalPrice",
          "type": "uint256"
        },
        {
          "components": [
            {
              "internalType": "uint256",
              "name": "startingPrice",
              "type": "uint256"
            },
            {
              "internalType": "uint256",
              "name": "reservePrice",
              "type": "uint256"
            },
            {
              "internalType": "uint256",
              "name": "auctionEndTime",
              "type": "uint256"
            },
            {
              "internalType": "uint256",
              "name": "currentBid",
              "type": "uint256"
            }
          ],
          "internalType": "struct AuctionManager.EnglishAuction",
          "name": "englishAuction",
          "type": "tuple"
        },
        {
          "components": [
            {
              "internalType": "uint256",
              "name": "startingPrice",
              "type": "uint256"
            },
            {
              "internalType": "uint256",
              "name": "endPrice",
              "type": "uint256"
            },
            {
              "internalType": "uint256",
              "name": "auctionEndTime",
              "type": "uint256"
            },
            {
              "internalType": "uint256",
              "name": "currentPrice",
              "type": "uint256"
            },
            {
              "internalType": "uint256",
              "name": "priceDecrement",
              "type": "uint256"
            },
            {
              "internalType": "uint256",
              "name": "decrementInterval",
              "type": "uint256"
            },
            {
              "internalType": "uint256",
              "name": "lastUpdateTime",
              "type": "uint256"
            }
          ],
          "internalType": "struct AuctionManager.DutchAuction",
          "name": "dutchAuction",
          "type": "tuple"
        },
        {
          "internalType": "bool",
          "name": "isPaymentTransferred",
          "type": "bool"
        },
        {
          "internalType": "bool",
          "name": "isNFTTransferred",
          "type": "bool"
        }
      ],
      "stateMutability": "view",
      "type": "function"
    },
    {
      "inputs": [
        {
          "internalType": "uint256",
          "name": "auctionId",
          "type": "uint256"
        },
        {
          "internalType": "address[]",
          "name": "depositors",
          "type": "address[]"
        }
      ],
      "name": "batchRefundDeposits",
      "outputs": [],
      "stateMutability": "nonpayable",
      "type": "function"
    },
    {
      "inputs": [
        {
          "internalType": "uint256",
          "name": "auctionId",
          "type": "uint256"
        },
        {
          "internalType": "uint256",
          "name": "amount",
          "type": "uint256"
        }
      ],
      "name": "bid",
      "outputs": [],
      "stateMutability": "nonpayable",
      "type": "function"
    },
    {
      "inputs": [
        {
          "internalType": "uint256",
          "name": "auctionId",
          "type": "uint256"
        }
      ],
      "name": "deposit",
      "outputs": [],
      "stateMutability": "nonpayable",
      "type": "function"
    },
    {
      "inputs": [
        {
          "internalType": "uint256",
          "name": "auctionId",
          "type": "uint256"
        }
      ],
      "name": "emergencyCancelAuction",
      "outputs": [],
      "stateMutability": "nonpayable",
      "type": "function"
    },
    {
      "inputs": [
        {
          "internalType": "address",
          "name": "token",
          "type": "address"
        },
        {
          "internalType": "address",
          "name": "to",
          "type": "address"
        },
        {
          "internalType": "uint256",
          "name": "amount",
          "type": "uint256"
        }
      ],
      "name": "emergencyWithdraw",
      "outputs": [],
      "stateMutability": "nonpayable",
      "type": "function"
    },
    {
      "inputs": [
        {
          "internalType": "uint256",
          "name": "auctionId",
          "type": "uint256"
        }
      ],
      "name": "endAuction",
      "outputs": [],
      "stateMutability": "nonpayable",
      "type": "function"
    },
    {
      "inputs": [
        {
          "internalType": "uint256",
          "name": "auctionId",
          "type": "uint256"
        }
      ],
      "name": "getCurrentPrice",
      "outputs": [
        {
          "internalType": "uint256",
          "name": "",
          "type": "uint256"
        }
      ],
      "stateMutability": "view",
      "type": "function"
    },
    {
      "inputs": [
        {
          "internalType": "bytes32",
          "name": "role",
          "type": "bytes32"
        }
      ],
      "name": "getRoleAdmin",
      "outputs": [
        {
          "internalType": "bytes32",
          "name": "",
          "type": "bytes32"
        }
      ],
      "stateMutability": "view",
      "type": "function"
    },
    {
      "inputs": [
        {
          "internalType": "bytes32",
          "name": "role",
          "type": "bytes32"
        },
        {
          "internalType": "address",
          "name": "account",
          "type": "address"
        }
      ],
      "name": "grantRole",
      "outputs": [],
      "stateMutability": "nonpayable",
      "type": "function"
    },
    {
      "inputs": [
        {
          "internalType": "bytes32",
          "name": "role",
          "type": "bytes32"
        },
        {
          "internalType": "address",
          "name": "account",
          "type": "address"
        }
      ],
      "name": "hasRole",
      "outputs": [
        {
          "internalType": "bool",
          "name": "",
          "type": "bool"
        }
      ],
      "stateMutability": "view",
      "type": "function"
    },
    {
      "inputs": [
        {
          "internalType": "address",
          "name": "initialAdmin",
          "type": "address"
        },
        {
          "internalType": "contract IERC20",
          "name": "_myERC20Token",
          "type": "address"
        }
      ],
      "name": "initialize",
      "outputs": [],
      "stateMutability": "nonpayable",
      "type": "function"
    },
    {
      "inputs": [],
      "name": "myERC20Token",
      "outputs": [
        {
          "internalType": "contract IERC20",
          "name": "",
          "type": "address"
        }
      ],
      "stateMutability": "view",
      "type": "function"
    },
    {
      "inputs": [],
      "name": "owner",
      "outputs": [
        {
          "internalType": "address",
          "name": "",
          "type": "address"
        }
      ],
      "stateMutability": "view",
      "type": "function"
    },
    {
      "inputs": [],
      "name": "proxiableUUID",
      "outputs": [
        {
          "internalType": "bytes32",
          "name": "",
          "type": "bytes32"
        }
      ],
      "stateMutability": "view",
      "type": "function"
    },
    {
      "inputs": [
        {
          "internalType": "uint256",
          "name": "auctionId",
          "type": "uint256"
        }
      ],
      "name": "refundDeposit",
      "outputs": [],
      "stateMutability": "nonpayable",
      "type": "function"
    },
    {
      "inputs": [],
      "name": "renounceOwnership",
      "outputs": [],
      "stateMutability": "nonpayable",
      "type": "function"
    },
    {
      "inputs": [
        {
          "internalType": "bytes32",
          "name": "role",
          "type": "bytes32"
        },
        {
          "internalType": "address",
          "name": "callerConfirmation",
          "type": "address"
        }
      ],
      "name": "renounceRole",
      "outputs": [],
      "stateMutability": "nonpayable",
      "type": "function"
    },
    {
      "inputs": [
        {
          "internalType": "bytes32",
          "name": "role",
          "type": "bytes32"
        },
        {
          "internalType": "address",
          "name": "account",
          "type": "address"
        }
      ],
      "name": "revokeRole",
      "outputs": [],
      "stateMutability": "nonpayable",
      "type": "function"
    },
    {
      "inputs": [
        {
          "internalType": "enum AuctionManager.AuctionType",
          "name": "auctionType",
          "type": "uint8"
        },
        {
          "internalType": "uint256",
          "name": "startingPrice",
          "type": "uint256"
        },
        {
          "internalType": "uint256",
          "name": "reservePrice",
          "type": "uint256"
        },
        {
          "internalType": "uint256",
          "name": "duration",
          "type": "uint256"
        },
        {
          "internalType": "address",
          "name": "nftContract",
          "type": "address"
        },
        {
          "internalType": "uint256",
          "name": "tokenId",
          "type": "uint256"
        },
        {
          "internalType": "uint256",
          "name": "priceDecrement",
          "type": "uint256"
        },
        {
          "internalType": "uint256",
          "name": "decrementInterval",
          "type": "uint256"
        }
      ],
      "name": "startAuction",
      "outputs": [],
      "stateMutability": "nonpayable",
      "type": "function"
    },
    {
      "inputs": [
        {
          "internalType": "bytes4",
          "name": "interfaceId",
          "type": "bytes4"
        }
      ],
      "name": "supportsInterface",
      "outputs": [
        {
          "internalType": "bool",
          "name": "",
          "type": "bool"
        }
      ],
      "stateMutability": "view",
      "type": "function"
    },
    {
      "inputs": [
        {
          "internalType": "address",
          "name": "newOwner",
          "type": "address"
        }
      ],
      "name": "transferOwnership",
      "outputs": [],
      "stateMutability": "nonpayable",
      "type": "function"
    },
    {
      "inputs": [
        {
          "internalType": "address",
          "name": "newImplementation",
          "type": "address"
        },
        {
          "internalType": "bytes",
          "name": "data",
          "type": "bytes"
        }
      ],
      "name": "upgradeToAndCall",
      "outputs": [],
      "stateMutability": "payable",
      "type": "function"
    }
  ],
  "bytecode": "0x60a0806040523461002a57306080526139ed908161003082396080518181816118f701526119dd0152f35b600080fdfe608080604052600436101561001357600080fd5b60003560e01c90816301ffc9a71461288757508063248a9ca31461284b5780632ad715731461282d5780632ae11ca8146125ed5780632f2ff15d146125a157806336568abe1461255a57806346fe078414611d98578063485cc95514611bb15780634f1ef2861461196157806352d1902d146118e4578063571a26a0146116f4578063598647f814610f855780636de0de7e14610c76578063715018a614610c0c57806375b238fc14610be35780638da5cb5b14610bad57806391d1485414610b53578063a217fddf14610b37578063aa9ea10c146108c7578063ad3cb1cc1461081c578063b6b55f25146103f3578063b9a2de3a146103d7578063bff5db4f146103ae578063c55d0f5614610388578063d547741f1461033c578063e63ea408146101e25763f2fde38b1461014857600080fd5b346101dd5760203660031901126101dd576101616128f0565b6101696138bb565b6001600160a01b039081169081156101c45760008051602061395883398151915280546001600160a01b031981168417909155167f8be0079c531659141344cd1fd0a4f28419497f9722a3daafe3b4186f6b6457e0600080a3005b604051631e4fbdf760e01b815260006004820152602490fd5b600080fd5b346101dd5760603660031901126101dd576101fb6128f0565b6102036128da565b6044359161020f6135cb565b6001600160a01b03906102258383161515612bb2565b83156103065760025490821690821681036102cd575060025460405163a9059cbb60e01b81526001600160a01b0390931660048401526024830193909352909160209183911681600081604481015b03925af180156102c15761029091600091610292575b50612c75565b005b6102b4915060203d6020116102ba575b6102ac8183612906565b810190612993565b8261028a565b503d6102a2565b6040513d6000823e3d90fd5b60405163a9059cbb60e01b81526001600160a01b0390931660048401526024830193909352509060209082908160008160448101610274565b60405162461bcd60e51b815260206004820152600e60248201526d125b9d985b1a5908185b5bdd5b9d60921b6044820152606490fd5b346101dd5760403660031901126101dd5761029060043561035b6128da565b9080600052600080516020613978833981519152602052610383600160406000200154613633565b613838565b346101dd5760203660031901126101dd5760206103a66004356134bc565b604051908152f35b346101dd5760003660031901126101dd576002546040516001600160a01b039091168152602090f35b346101dd5760203660031901126101dd57610290600435612cb3565b346101dd576020806003193601126101dd576004358060005260058252610426600160ff60406000205416151514612a13565b33156107d757806000526003825260406000209160ff600384015416600381101561074b5760016104579114612951565b8254926001600160a01b0333600886901c82161461079a5760138201913360005282845260ff604060002054166107615760ff60058201549661049b881515612c30565b1690600282101561074b5760018392801560001461073e576104c3600a8401545b4210612a9d565b146106de575b50506002541680156106a1576040516370a0823160e01b81523360048201528381602481855afa80156102c1578690600090610670575b61050c92501015612add565b604051636eb1769f60e11b81523360048201523060248201528381604481855afa80156102c157869060009061063f575b61054992501015612b29565b6040516323b872dd60e01b815233600482015230602482015260448101869052908390829060649082906000905af19081156102c157600091610622575b50156105dd579060019133600052815260406000208260ff198254161790556040519384528301524260408301527f64e676b2acd82421805608cd68eb59f456bf91b6fdb7946e8a43f5ca81513c7a60603393a3005b60405162461bcd60e51b815260048101839052601760248201527f4465706f736974207472616e73666572206661696c65640000000000000000006044820152606490fd5b6106399150833d85116102ba576102ac8183612906565b85610587565b50508381813d8311610669575b6106568183612906565b810103126101dd5785610549915161053d565b503d61064c565b50508381813d831161069a575b6106878183612906565b810103126101dd578561050c9151610500565b503d61067d565b60405162461bcd60e51b8152600481018490526015602482015274151bdad95b881b9bdd081a5b9a5d1a585b1a5e9959605a1b6044820152606490fd5b60060154166106ee5780866104c9565b60405162461bcd60e51b815260048101849052602260248201527f44757463682061756374696f6e20616c72656164792068617320612077696e6e60448201526132b960f11b6064820152608490fd5b6104c3600e8401546104bc565b634e487b7160e01b600052602160045260246000fd5b60405162461bcd60e51b8152600481018590526011602482015270105b1c9958591e4819195c1bdcda5d1959607a1b6044820152606490fd5b60405162461bcd60e51b815260048101849052601560248201527414d95b1b195c8818d85b9b9bdd0819195c1bdcda5d605a1b6044820152606490fd5b60405162461bcd60e51b815260048101839052601960248201527f496e76616c6964206465706f7369746f722061646472657373000000000000006044820152606490fd5b346101dd5760003660031901126101dd576040516040810181811067ffffffffffffffff8211176108b15760405260058152602090640352e302e360dc1b60208201526040518092602082528251908160208401526000935b828510610898575050604092506000838284010152601f80199101168101030190f35b8481018201518686016040015293810193859350610875565b634e487b7160e01b600052604160045260246000fd5b346101dd5760403660031901126101dd5767ffffffffffffffff80602435116101dd573660236024350112156101dd5760243560040135116101dd5736602480356004013560051b81350101116101dd576109206135cb565b600160065461093260ff821615612b75565b60ff191617600655600435600052600560205261095660ff60406000205416612a13565b6004356000526003602052604060002060ff600382015416600381101561074b5760026109839114612bf0565b60005b60243560040135811061099f576006805460ff19169055005b60248035600583901b0101356001600160a01b03811690036101dd5760248035600583901b0101356001600160a01b0316151580610b08575b80610ae2575b6109eb575b600101610986565b6005828101546001600160a01b039183901b6024803591909101810135831660008181526013870160209081526040808320805460ff19169055600254905163a9059cbb60e01b815260048101949094529383018590529195949192869260449284929091165af19283156102c157600193610a6e91600091610ac35750612c75565b60405190815260006020820152426040820152828060a01b0360248360051b813501013516907f64e676b2acd82421805608cd68eb59f456bf91b6fdb7946e8a43f5ca81513c7a606060043592a390506109e3565b610adc915060203d6020116102ba576102ac8183612906565b8661028a565b50600682015460248035600584901b0101356001600160a01b03908116911614156109de565b5060248035600583901b0101356001600160a01b0316600090815260138301602052604090205460ff166109d8565b346101dd5760003660031901126101dd57602060405160008152f35b346101dd5760403660031901126101dd57610b6c6128da565b60043560005260008051602061397883398151915260205260406000209060018060a01b0316600052602052602060ff604060002054166040519015158152f35b346101dd5760003660031901126101dd57600080516020613958833981519152546040516001600160a01b039091168152602090f35b346101dd5760003660031901126101dd5760206040516000805160206139988339815191528152f35b346101dd5760003660031901126101dd57610c256138bb565b60008051602061395883398151915280546001600160a01b031981169091556000906001600160a01b03167f8be0079c531659141344cd1fd0a4f28419497f9722a3daafe3b4186f6b6457e08280a3005b346101dd576020806003193601126101dd5760065490600435610c9c60ff841615612b75565b600160ff19809416176006558060005260058252610cc160ff60406000205416612a13565b610ccc331515612bb2565b806000526003825260406000209160ff600384015416600381101561074b576002610cf79114612bf0565b60138301923360005283825260ff6040600020541615610f4d5760068101546001600160a01b03919082163314610f08573360005284835260ff6040600020541615610ec3576005015493610d4d851515612c30565b6024838360025416604051928380926370a0823160e01b82523060048301525afa80156102c1578691600091610e92575b5010610e4d573360005282526040600020858154169055600254169080604051809363a9059cbb60e01b825281600081610dd18a336004840160209093929193604081019460018060a01b031681520152565b03925af19182156102c157600092610def918491610e305750612c75565b6040519384528301524260408301527f64e676b2acd82421805608cd68eb59f456bf91b6fdb7946e8a43f5ca81513c7a60603393a360065416600655600080f35b610e479150833d85116102ba576102ac8183612906565b8761028a565b60405162461bcd60e51b815260048101849052601d60248201527f496e73756666696369656e7420636f6e74726163742062616c616e63650000006044820152606490fd5b809250858092503d8311610ebc575b610eab8183612906565b810103126101dd5785905188610d7e565b503d610ea1565b60405162461bcd60e51b815260048101849052601860248201527f4465706f73697420616c726561647920726566756e64656400000000000000006044820152606490fd5b60405162461bcd60e51b815260048101849052601c60248201527f57696e6e65722063616e6e6f7420726566756e64206465706f736974000000006044820152606490fd5b60405162461bcd60e51b815260048101839052601060248201526f139bc819195c1bdcda5d08199bdd5b9960821b6044820152606490fd5b346101dd5760403660031901126101dd5760043560249081358160005260209160058352610fbf600160ff60406000205416151514612a13565b33156116b757806000526003835260406000209060ff60038301541660038110156116a2576001610ff09114612a58565b81546001600160a01b03919033600882901c84161461166a573360005260138401865260ff60406000205416156116335760ff16600281101561161e576001908061160a57611044600a8601544210612a9d565b036112e857600683019283549383851661129957600f8201548603611255578360025416946040516370a0823160e01b815233600482015288818b818a5afa80156102c1578890600090611224575b61109f92501015612add565b604051636eb1769f60e11b8152336004820152306024820152958890879060449082905afa80156102c15788966000916111e7575b5061116d959388959386936110ef60009b6007951015612b29565b33906001600160601b0360a01b1617905501556040519083825242868301527f51db8e23b3f4479b162fd48823b8402895442b8f6cfd94f66239391881ec7b6f60403393a35b6002546040516323b872dd60e01b81523360048201523060248201526044810193909352919485939190921691839182906064820190565b03925af19081156102c1576000916111ca575b501561118857005b601d6064926040519262461bcd60e51b845260048401528201527f4661696c656420746f207472616e736665722062696420616d6f756e740000006044820152fd5b6111e19150823d84116102ba576102ac8183612906565b83611180565b878199969497959892503d831161121d575b6112038183612906565b810103126101dd579551929587959294919361116d6110d4565b503d6111f9565b50508881813d831161124e575b61123b8183612906565b810103126101dd578761109f9151611093565b503d611231565b60405162461bcd60e51b815260048101889052601c818a01527f426964206d75737420657175616c2063757272656e74207072696365000000006044820152606490fd5b60405162461bcd60e51b8152600481018890526022818a01527f44757463682061756374696f6e20616c7265616479206861732061206269646460448201526132b960f11b6064820152608490fd5b600b8301805490818611156115ba576008850154861061156a5781611512575b8360025416916040516370a0823160e01b815233600482015288818b81875afa80156102c15788906000906114e1575b61134492501015612add565b604051636eb1769f60e11b8152336004820152306024820152958887604481875afa9687156102c157899789916000916114ab575b5060069291611389911015612b29565b019285845416806113ed575b5050509161116d9391866000979455336001600160601b0360a01b8254161790556040519083825242868301527f51db8e23b3f4479b162fd48823b8402895442b8f6cfd94f66239391881ec7b6f60403393a3611135565b60405163a9059cbb60e01b81526001600160a01b0391909116600482015260248101929092529495939492939192909190829060449082906000905af19081156102c15760009161148e575b501561144c579085939291888080611395565b606487876040519162461bcd60e51b83528160048401528201527f4661696c656420746f20726566756e642070726576696f7573206269646465726044820152fd5b6114a59150873d89116102ba576102ac8183612906565b88611439565b92988092508391503d83116114da575b6114c58183612906565b810103126101dd575188969088906006611379565b503d6114bb565b50508881813d831161150b575b6114f88183612906565b810103126101dd57876113449151611338565b503d6114ee565b61151f6064830483612a06565b8610156113085760405162461bcd60e51b8152600481018890526017818a01527f42696420696e6372656d656e7420746f6f20736d616c6c0000000000000000006044820152606490fd5b60405162461bcd60e51b8152600481018890526023818a01527f426964206d757374206265206174206c65617374207374617274696e6720707260448201526269636560e81b6064820152608490fd5b60405162461bcd60e51b8152600481018890526023818a01527f426964206d75737420626520686967686572207468616e2063757272656e7420604482015262189a5960ea1b6064820152608490fd5b611619600e8601544210612a9d565b611044565b86634e487b7160e01b60005260216004526000fd5b60405162461bcd60e51b8152600481018790526010818901526f11195c1bdcda5d081b9bdd081c185a5960821b6044820152606490fd5b60405162461bcd60e51b8152600481018790526011818901527014d95b1b195c8818d85b9b9bdd08189a59607a1b6044820152606490fd5b85634e487b7160e01b60005260216004526000fd5b60405162461bcd60e51b81526004810184905260168186015275496e76616c696420626964646572206164647265737360501b6044820152606490fd5b346101dd5760203660031901126101dd5760043560005260036020526040600020805460018060a01b036001830154169160028101549260ff6003830154169160048101549060058101549360018060a01b03600683015416966007830154604051916080830183811067ffffffffffffffff8211176108b1576040526008850154835260098501546020840152600a8501546040840152600b8501546060840152604051948560e081011067ffffffffffffffff60e0880111176108b15760149060e08701604052600c8101548752600d8101546020880152600e8101546040880152600f810154606088015260108101546080880152601181015460a0880152601281015460c0880152015496604051996118148b60ff8316612944565b60081c6001600160a01b031660208b015260408a01526060890152600383101561074b576102c09860ff9760c09660609560808c015260a08b0152868a015260e0890152610100880152805161012088015260208101516101408801526040810151610160880152015161018086015280516101a086015260208101516101c086015260408101516101e08601526060810151610200860152608081015161022086015260a08101516102408601520151610260840152818116151561028084015260081c1615156102a0820152f35b346101dd5760003660031901126101dd577f00000000000000000000000000000000000000000000000000000000000000006001600160a01b0316300361194f5760206040517f360894a13ba1a3210667c828492db98dca3e2076cc3735a920a3ca505d382bbc8152f35b60405163703e46dd60e11b8152600490fd5b60403660031901126101dd576119756128f0565b602490813567ffffffffffffffff81116101dd57366023820112156101dd5780600401356119a281612928565b926119b06040519485612906565b81845260209182850193368783830101116101dd5781600092888693018737860101526001600160a01b037f00000000000000000000000000000000000000000000000000000000000000008116308114908115611b83575b5061194f57611a166135cb565b8116936040516352d1902d60e01b81528381600481895afa60009181611b54575b50611a5457604051634c9c8ce360e01b8152600481018790528790fd5b8590877f360894a13ba1a3210667c828492db98dca3e2076cc3735a920a3ca505d382bbc91828103611b3f5750843b15611b29575080546001600160a01b03191682179055604051907fbc7cd75a20ee27fd9adebab32041f755214dbc6bffa90cc0225b39da2e5c2d3b600080a2815115611b0e575060006102909481925190845af4903d15611b05573d611ae881612928565b90611af66040519283612906565b8152600081943d92013e6138f4565b606092506138f4565b935050505034611b1a57005b63b398979f60e01b8152600490fd5b604051634c9c8ce360e01b815260048101849052fd5b60405190632a87526960e21b82526004820152fd5b9091508481813d8311611b7c575b611b6c8183612906565b810103126101dd57519088611a37565b503d611b62565b9050817f360894a13ba1a3210667c828492db98dca3e2076cc3735a920a3ca505d382bbc5416141587611a09565b346101dd5760403660031901126101dd57611bca6128f0565b6024356001600160a01b03811691908290036101dd577ff0c57e16840df040f15088dc2f81fe391c3923bec73e23a9662efc9c229c6a009182549160ff8360401c16159267ffffffffffffffff811680159081611d90575b6001149081611d86575b159081611d7d575b50611d6b5767ffffffffffffffff198116600117855583611d4c575b5060ff845460401c1615611d3a5760008051602061399883398151915260008181526000805160206139788339815191526020527fb16e88c42fd4e48df2dd6a2eabd6bc9aec654ec170056b470819f8892cc6431d805490829055611ce393927fbd79b86ffe0ab8e8776151514217cd7cacd52c909f66475c3af44e129f0b00ff8380a4611cdd81613666565b50613701565b506001600160601b0360a01b6002541617600255611cfd57005b68ff00000000000000001981541690557fc7f505b2f371ae2175ee4913f4499e1f2633a7b5936321eed1cdaeb6115181d2602060405160018152a1005b604051631afcd79f60e31b8152600490fd5b68ffffffffffffffffff19166801000000000000000117845584611c50565b60405163f92ee8a960e01b8152600490fd5b90501586611c34565b303b159150611c2c565b859150611c22565b346101dd576101003660031901126101dd57600260043510156101dd576084356001600160a01b03811681036101dd576001600160a01b0381161561251557606435156124d0576024351561247d57600a602435026024358104600a0361207457606481041561242a576040516331a9108f60e11b815260a43560048201526020816024816001600160a01b0387165afa9081156102c15760009161240b575b50336001600160a01b03909116036123c65760405163e985e9c560e01b81523360048201523060248201526020816044816001600160a01b0387165afa9081156102c1576000916123a7575b508015612330575b156122d9576000916004356121475760c4356120ea5760e43561208a575b6004546000198114612074576001810160045560018101600052600560205260406000209060ff199160018382541617905560036020526040600020948554926001870160018060a01b0386166001600160601b0360a01b82541617905560a43560028801556001600388019182541617905560648504600587015561074b577fa832766a05f1bd0298b0268308621777cfe1e4eea23afe7c06beea79bc6ddd2d9360609360019360ff60043516906101008660a81b033360081b16906affffffffffffffffffffff60a81b16171787556064356004880155611f8f60643542612a06565b80976004351560001461203957602435600882015560443560098201556000600b820155600a01555b60646040519260a4358452611fd260208501600435612944565b602435604085015260443587850152813560808501520460a0830152838060a01b03169033907f484120483560079a2395621862d89392098d4561cd026227555ab7efb1e6101e60c086860192a460405194428652602086015260243560408601520192a2005b9050602435600c820155604435600d820155602435600f82015560c435601082015560e435601182015587600e820155601242910155611fb8565b634e487b7160e01b600052601160045260246000fd5b60405162461bcd60e51b815260206004820152603260248201527f456e676c6973682061756374696f6e2073686f756c64206e6f74206861766520604482015271191958dc995b595b9d081a5b9d195c9d985b60721b6064820152608490fd5b60405162461bcd60e51b815260206004820152602f60248201527f456e676c6973682061756374696f6e2073686f756c64206e6f7420686176652060448201526e1c1c9a58d948191958dc995b595b9d608a1b6064820152608490fd5b6000925060001960043501611eaa5760c435156122845760e4351561222c5760e435606435106121d75760443560243511611eaa5760405162461bcd60e51b815260206004820152602d60248201527f5374617274696e67207072696365206d7573742062652067726561746572207460448201526c68616e20656e6420707269636560981b6064820152608490fd5b60405162461bcd60e51b815260206004820152602760248201527f4475726174696f6e20746f6f2073686f727420666f722070726963652064656360448201526672656d656e747360c81b6064820152608490fd5b60405162461bcd60e51b815260206004820152602a60248201527f44757463682061756374696f6e206d75737420686176652064656372656d656e6044820152691d081a5b9d195c9d985b60b21b6064820152608490fd5b60405162461bcd60e51b815260206004820152602760248201527f44757463682061756374696f6e206d757374206861766520707269636520646560448201526618dc995b595b9d60ca1b6064820152608490fd5b60405162461bcd60e51b815260206004820152602960248201527f436f6e7472616374206d75737420626520617070726f76656420746f207472616044820152681b9cd9995c8813919560ba1b6064820152608490fd5b5060405163020604bf60e21b815260a43560048201526020816024816001600160a01b0387165afa9081156102c157600091612378575b506001600160a01b03163014611e8c565b61239a915060203d6020116123a0575b6123928183612906565b8101906129e7565b83612367565b503d612388565b6123c0915060203d6020116102ba576102ac8183612906565b83611e84565b60405162461bcd60e51b815260206004820152601760248201527f43616c6c6572206d757374206f776e20746865204e46540000000000000000006044820152606490fd5b612424915060203d6020116123a0576123928183612906565b83611e38565b60405162461bcd60e51b815260206004820152602560248201527f4465706f73697420616d6f756e74206d75737420626520677265617465722074604482015264068616e20360dc1b6064820152608490fd5b60405162461bcd60e51b815260206004820152602560248201527f5374617274696e67207072696365206d75737420626520677265617465722074604482015264068616e20360dc1b6064820152608490fd5b60405162461bcd60e51b815260206004820152601f60248201527f4475726174696f6e206d7573742062652067726561746572207468616e2030006044820152606490fd5b60405162461bcd60e51b815260206004820152601c60248201527f496e76616c6964204e465420636f6e74726163742061646472657373000000006044820152606490fd5b346101dd5760403660031901126101dd576125736128da565b336001600160a01b0382160361258f5761029090600435613838565b60405163334bd91960e11b8152600490fd5b346101dd5760403660031901126101dd576102906004356125c06128da565b90806000526000805160206139788339815191526020526125e8600160406000200154613633565b6137b1565b346101dd576020806003193601126101dd576004358060005260038252604060002060018060a01b0380915460081c16331480156127f0575b156127ba578160005260038352604060002060038101805460ff811690600382101561074b5761265a600160029314612951565b60ff191617905560068101805483169190826126ce575b85856040519160408352601660408401527522b6b2b933b2b731bc9031b0b731b2b63630ba34b7b760511b606084015242908301527ff72c35273deadb2eb7b58020e76f74502cefa4e2386f388eb2a24b6dd76b550d60803393a3005b60ff82541692600284101561074b57869361276257506002549054600b929092015460405163a9059cbb60e01b81529285166001600160a01b0316600484015260248301529092839116816000816044810103925af180156102c15761273c91600091612745575b506129ab565b82808080612671565b61275c9150843d86116102ba576102ac8183612906565b84612736565b600254600f939093015460405163a9059cbb60e01b81526001600160a01b039290921660048301526024820152938492604492508391600091165af180156102c1576127b59160009161274557506129ab565b61273c565b60405162461bcd60e51b815260048101849052600e60248201526d139bdd08185d5d1a1bdc9a5e995960921b6044820152606490fd5b506000805160206139988339815191526000526000805160206139788339815191528352604060002033600052835260ff60406000205416612626565b346101dd5760003660031901126101dd576020600454604051908152f35b346101dd5760203660031901126101dd576004356000526000805160206139788339815191526020526020600160406000200154604051908152f35b346101dd5760203660031901126101dd576004359063ffffffff60e01b82168092036101dd57602091637965db0b60e01b81149081156128c9575b5015158152f35b6301ffc9a760e01b149050836128c2565b602435906001600160a01b03821682036101dd57565b600435906001600160a01b03821682036101dd57565b90601f8019910116810190811067ffffffffffffffff8211176108b157604052565b67ffffffffffffffff81116108b157601f01601f191660200190565b90600282101561074b5752565b1561295857565b60405162461bcd60e51b815260206004820152601360248201527241756374696f6e206e6f74206f6e676f696e6760681b6044820152606490fd5b908160209103126101dd575180151581036101dd5790565b156129b257565b60405162461bcd60e51b815260206004820152600d60248201526c1499599d5b990819985a5b1959609a1b6044820152606490fd5b908160209103126101dd57516001600160a01b03811681036101dd5790565b9190820180921161207457565b15612a1a57565b60405162461bcd60e51b8152602060048201526016602482015275105d58dd1a5bdb88191bd95cc81b9bdd08195e1a5cdd60521b6044820152606490fd5b15612a5f57565b60405162461bcd60e51b815260206004820152601660248201527541756374696f6e206973206e6f74206f6e676f696e6760501b6044820152606490fd5b15612aa457565b60405162461bcd60e51b8152602060048201526011602482015270105d58dd1a5bdb881a185cc8195b991959607a1b6044820152606490fd5b15612ae457565b60405162461bcd60e51b815260206004820152601a60248201527f496e73756666696369656e7420746f6b656e2062616c616e63650000000000006044820152606490fd5b15612b3057565b60405162461bcd60e51b815260206004820152601c60248201527f496e73756666696369656e7420746f6b656e20616c6c6f77616e6365000000006044820152606490fd5b15612b7c57565b60405162461bcd60e51b815260206004820152600e60248201526d1499595b9d1c985b9d0818d85b1b60921b6044820152606490fd5b15612bb957565b60405162461bcd60e51b815260206004820152600f60248201526e496e76616c6964206164647265737360881b6044820152606490fd5b15612bf757565b60405162461bcd60e51b8152602060048201526011602482015270105d58dd1a5bdb881b9bdd08195b991959607a1b6044820152606490fd5b15612c3757565b60405162461bcd60e51b8152602060048201526016602482015275125b9d985b1a590819195c1bdcda5d08185b5bdd5b9d60521b6044820152606490fd5b15612c7c57565b60405162461bcd60e51b815260206004820152600f60248201526e151c985b9cd9995c8819985a5b1959608a1b6044820152606490fd5b6000918183526005602052612cce60ff604085205416612a13565b818352600360205260408320916003830180549060ff8216600381101561349b576001612cfb9114612a58565b60ff855416600281101561349b578015928391821561349057600a880154945b6133ff575b600114613395575b60068701546001600160a01b03161561333657506014860190815460ff81166132f15760081c60ff166132ac571561329d57600b86015460078701555b61010161ffff19825416179055600260ff1982541617905560018060a01b036001850154166002850154604051906331a9108f60e11b8252806004830152602082602481865afa91821561320057889261327c575b50865460081c6001600160a01b0390811692168290036132375760405163e985e9c560e01b81526001600160a01b038316600482015230602482015290602082604481875afa91821561322c57899261320b575b5081156131a3575b501561314f57600254600787015460405163a9059cbb60e01b81526001600160a01b039384166004820152602481019190915291602091839160449183918c91165af1908115613144578791613125575b50156130e0578560018060a01b03865460081c169160018060a01b03600688015416908184877f06295c44eca12ae058fb748381aa82d80d9250712399271520200e1ace03065d604060078d01548151908152426020820152a4600288015491813b156130dc57604051632142170760e11b81526001600160a01b0395861660048201529416602485015260448401919091528290606490829084905af190816130ac575b5061300357600254600785015460405163a9059cbb60e01b8152306004820152602481019190915286916020908290604490829086906001600160a01b03165af1918215612ff75791612fd8575b5015612f9b5760405162461bcd60e51b8152602060048201526013602482015272139195081d1c985b9cd9995c8819985a5b1959606a1b6044820152606490fd5b60405162461bcd60e51b815260206004820152601560248201527414185e5b595b9d081c995d995c9d0819985a5b1959605a1b6044820152606490fd5b612ff1915060203d6020116102ba576102ac8183612906565b81612f5a565b604051903d90823e3d90fd5b7fe9ba83469fc8ee4260dd274fd43b5a54f2df813ad21c4637d53084d1f3866b379192945060409060018060a01b03855460081c1660018060a01b0360068701541690857f2f761cecbf21f1efb030cc4e7b6d4a1dccb222ad94870892d8b7c4ab7d44db7e606060018060a01b0360018b01541660028b0154885191825260208201524288820152a4600760018060a01b036006870154169501549082519182526020820152a3565b67ffffffffffffffff81979297116130c8576040529438612f0c565b634e487b7160e01b82526041600452602482fd5b8380fd5b60405162461bcd60e51b815260206004820152601760248201527f5061796d656e74207472616e73666572206661696c65640000000000000000006044820152606490fd5b61313e915060203d6020116102ba576102ac8183612906565b38612e67565b6040513d89823e3d90fd5b60405162461bcd60e51b815260206004820152602660248201527f436f6e7472616374206e6f7420617070726f76656420666f72204e465420747260448201526530b739b332b960d11b6064820152608490fd5b90506040519063020604bf60e21b82526004820152602081602481865afa9081156132005788916131e1575b506001600160a01b0316301438612e16565b6131fa915060203d6020116123a0576123928183612906565b386131cf565b6040513d8a823e3d90fd5b61322591925060203d6020116102ba576102ac8183612906565b9038612e0e565b6040513d8b823e3d90fd5b60405162461bcd60e51b815260206004820152601960248201527f53656c6c6572206e6f206c6f6e676572206f776e73204e4654000000000000006044820152606490fd5b61329691925060203d6020116123a0576123928183612906565b9038612dba565b600f8601546007870155612d65565b60405162461bcd60e51b815260206004820152601760248201527f4e465420616c7265616479207472616e736665727265640000000000000000006044820152606490fd5b60405162461bcd60e51b815260206004820152601b60248201527f5061796d656e7420616c7265616479207472616e7366657272656400000000006044820152606490fd5b925050929450600291935060ff1916179055604051906040825260076040830152664e6f206269647360c81b60608301524260208301527ff72c35273deadb2eb7b58020e76f74502cefa4e2386f388eb2a24b6dd76b550d60803393a3565b60068701546001600160a01b0316158015906133f5575b612d285760405162461bcd60e51b815260206004820152601b60248201527f41756374696f6e2063616e6e6f7420626520656e6465642079657400000000006044820152606490fd5b50834210156133ac565b84421061345357600b88015460098901541115612d205760405162461bcd60e51b815260206004820152601560248201527414995cd95c9d99481c1c9a58d9481b9bdd081b595d605a1b6044820152606490fd5b60405162461bcd60e51b8152602060048201526015602482015274105d58dd1a5bdb881b9bdd081e595d08195b991959605a1b6044820152606490fd5b600e88015494612d1b565b634e487b7160e01b87526021600452602487fd5b9190820391821161207457565b60009081526003602052604081209060ff82541660028110156135b75760010361357c57600e820154421015613574576134fa6012830154426134af565b601183015490811561356057049060108301549182810292818404149015171561354c5750600c820154600d61353083836134af565b9301548093106135475761354492506134af565b90565b505090565b634e487b7160e01b81526011600452602490fd5b634e487b7160e01b83526012600452602483fd5b50600d015490565b60405162461bcd60e51b81526020600482015260136024820152722737ba103090223aba31b41030bab1ba34b7b760691b6044820152606490fd5b634e487b7160e01b82526021600452602482fd5b3360009081527fb16e88c42fd4e48df2dd6a2eabd6bc9aec654ec170056b470819f8892cc6431c60205260409020546000805160206139988339815191529060ff16156136155750565b6044906040519063e2517d3f60e01b82523360048301526024820152fd5b8060005260008051602061397883398151915260205260406000203360005260205260ff60406000205416156136155750565b6001600160a01b031660008181527fb7db2dd08fcb62d0c9e08c51941cae53c267786a0b75803fb7960902fc8ef97d60205260408120549091906000805160206139788339815191529060ff16613547578280526020526040822081835260205260408220600160ff1982541617905533917f2f8788117e7eff1d82e926ec794901d17c78024a50270940304540a733656f0d8180a4600190565b6001600160a01b031660008181527fb16e88c42fd4e48df2dd6a2eabd6bc9aec654ec170056b470819f8892cc6431c6020526040812054909190600080516020613998833981519152906000805160206139788339815191529060ff166137ab578184526020526040832082845260205260408320600160ff198254161790557f2f8788117e7eff1d82e926ec794901d17c78024a50270940304540a733656f0d339380a4600190565b50505090565b9060009180835260008051602061397883398151915280602052604084209260018060a01b03169283855260205260ff604085205416156000146137ab578184526020526040832082845260205260408320600160ff198254161790557f2f8788117e7eff1d82e926ec794901d17c78024a50270940304540a733656f0d339380a4600190565b9060009180835260008051602061397883398151915280602052604084209260018060a01b03169283855260205260ff6040852054166000146137ab57818452602052604083208284526020526040832060ff1981541690557ff6391f5c32d9c69d2a47ea670b442974b53935d1edc7fd64eb21e047a839171b339380a4600190565b600080516020613958833981519152546001600160a01b031633036138dc57565b60405163118cdaa760e01b8152336004820152602490fd5b9061391b575080511561390957805190602001fd5b60405163d6bda27560e01b8152600490fd5b8151158061394e575b61392c575090565b604051639996b31560e01b81526001600160a01b039091166004820152602490fd5b50803b1561392456fe9016d09d72d40fdae2fd8ceac6b6234c7706214fd39c1cd1e609a0528c19930002dd7bc7dec4dceedda775e58dd541e08a116c6c53815c0bd028192f7b626800a49807205ce4d355092ef5a8a18f56e8913cf4a201fbe287825b095693c21775a26469706673582212203e8e5146d6cd76165e7ed17ab87b8b2c6af6f954e71457ed4a63b5b483ff14bf64736f6c63430008160033",
  "linkReferences": {},
  "deployedLinkReferences": {}
}