{
  "_format": "hh-sol-artifact-1",
  "contractName": "AdAlliance",
  "sourceName": "contracts/AdAlliance.sol",
  "abi": [
    {
      "inputs": [
        {
          "internalType": "address",
          "name": "_datTokenAddress",
          "type": "address"
        }
      ],
      "stateMutability": "nonpayable",
      "type": "constructor"
    },
    {
      "anonymous": false,
      "inputs": [
        {
          "indexed": true,
          "internalType": "uint256",
          "name": "adId",
          "type": "uint256"
        },
        {
          "indexed": true,
          "internalType": "address",
          "name": "advertiser",
          "type": "address"
        },
        {
          "indexed": false,
          "internalType": "string",
          "name": "target",
          "type": "string"
        },
        {
          "indexed": false,
          "internalType": "uint256",
          "name": "budget",
          "type": "uint256"
        }
      ],
      "name": "AdCreated",
      "type": "event"
    },
    {
      "anonymous": false,
      "inputs": [
        {
          "indexed": true,
          "internalType": "uint256",
          "name": "adId",
          "type": "uint256"
        },
        {
          "indexed": false,
          "internalType": "bool",
          "name": "isActive",
          "type": "bool"
        },
        {
          "indexed": false,
          "internalType": "uint256",
          "name": "budget",
          "type": "uint256"
        }
      ],
      "name": "AdUpdated",
      "type": "event"
    },
    {
      "anonymous": false,
      "inputs": [
        {
          "indexed": true,
          "internalType": "uint256",
          "name": "adId",
          "type": "uint256"
        },
        {
          "indexed": false,
          "internalType": "uint256",
          "name": "totalClicks",
          "type": "uint256"
        },
        {
          "indexed": false,
          "internalType": "uint256",
          "name": "totalCost",
          "type": "uint256"
        }
      ],
      "name": "ClicksSettled",
      "type": "event"
    },
    {
      "anonymous": false,
      "inputs": [
        {
          "indexed": true,
          "internalType": "uint256",
          "name": "adId",
          "type": "uint256"
        },
        {
          "indexed": true,
          "internalType": "uint256",
          "name": "linkId",
          "type": "uint256"
        },
        {
          "indexed": true,
          "internalType": "address",
          "name": "user",
          "type": "address"
        }
      ],
      "name": "LinkGenerated",
      "type": "event"
    },
    {
      "inputs": [],
      "name": "adCount",
      "outputs": [
        {
          "internalType": "uint256",
          "name": "",
          "type": "uint256"
        }
      ],
      "stateMutability": "view",
      "type": "function"
    },
    {
      "inputs": [
        {
          "internalType": "uint256",
          "name": "",
          "type": "uint256"
        },
        {
          "internalType": "uint256",
          "name": "",
          "type": "uint256"
        }
      ],
      "name": "adLinks",
      "outputs": [
        {
          "internalType": "address",
          "name": "",
          "type": "address"
        }
      ],
      "stateMutability": "view",
      "type": "function"
    },
    {
      "inputs": [],
      "name": "admin",
      "outputs": [
        {
          "internalType": "address",
          "name": "",
          "type": "address"
        }
      ],
      "stateMutability": "view",
      "type": "function"
    },
    {
      "inputs": [
        {
          "internalType": "uint256",
          "name": "",
          "type": "uint256"
        }
      ],
      "name": "ads",
      "outputs": [
        {
          "internalType": "uint256",
          "name": "id",
          "type": "uint256"
        },
        {
          "internalType": "address",
          "name": "advertiser",
          "type": "address"
        },
        {
          "internalType": "string",
          "name": "target",
          "type": "string"
        },
        {
          "internalType": "uint256",
          "name": "budget",
          "type": "uint256"
        },
        {
          "internalType": "uint256",
          "name": "costPerClick",
          "type": "uint256"
        },
        {
          "internalType": "uint256",
          "name": "totalClicks",
          "type": "uint256"
        },
        {
          "internalType": "uint256",
          "name": "totalReward",
          "type": "uint256"
        },
        {
          "internalType": "bool",
          "name": "isActive",
          "type": "bool"
        }
      ],
      "stateMutability": "view",
      "type": "function"
    },
    {
      "inputs": [
        {
          "internalType": "string",
          "name": "_target",
          "type": "string"
        },
        {
          "internalType": "uint256",
          "name": "_budget",
          "type": "uint256"
        },
        {
          "internalType": "uint256",
          "name": "_costPerClick",
          "type": "uint256"
        }
      ],
      "name": "createAd",
      "outputs": [],
      "stateMutability": "nonpayable",
      "type": "function"
    },
    {
      "inputs": [],
      "name": "datToken",
      "outputs": [
        {
          "internalType": "contract IERC20",
          "name": "",
          "type": "address"
        }
      ],
      "stateMutability": "view",
      "type": "function"
    },
    {
      "inputs": [
        {
          "internalType": "uint256",
          "name": "_adId",
          "type": "uint256"
        }
      ],
      "name": "generateAdLink",
      "outputs": [
        {
          "internalType": "uint256",
          "name": "",
          "type": "uint256"
        }
      ],
      "stateMutability": "nonpayable",
      "type": "function"
    },
    {
      "inputs": [],
      "name": "linkCounter",
      "outputs": [
        {
          "internalType": "uint256",
          "name": "",
          "type": "uint256"
        }
      ],
      "stateMutability": "view",
      "type": "function"
    },
    {
      "inputs": [
        {
          "internalType": "uint256",
          "name": "_adId",
          "type": "uint256"
        },
        {
          "internalType": "uint256[]",
          "name": "linkIds",
          "type": "uint256[]"
        },
        {
          "internalType": "uint256[]",
          "name": "clickCounts",
          "type": "uint256[]"
        }
      ],
      "name": "settleClicks",
      "outputs": [],
      "stateMutability": "nonpayable",
      "type": "function"
    },
    {
      "inputs": [
        {
          "internalType": "address",
          "name": "",
          "type": "address"
        },
        {
          "internalType": "uint256",
          "name": "",
          "type": "uint256"
        }
      ],
      "name": "userLinkIds",
      "outputs": [
        {
          "internalType": "uint256",
          "name": "",
          "type": "uint256"
        }
      ],
      "stateMutability": "view",
      "type": "function"
    }
  ],
  "bytecode": "0x608060405234801561001057600080fd5b506040516113a23803806113a283398101604081905261002f9161005d565b600080546001600160a01b039092166001600160a01b0319928316179055600680549091163317905561008d565b60006020828403121561006f57600080fd5b81516001600160a01b038116811461008657600080fd5b9392505050565b6113068061009c6000396000f3fe608060405234801561001057600080fd5b50600436106100be5760003560e01c806371b0b5a211610076578063a9a04a0a1161005b578063a9a04a0a146101c8578063f851a440146101e8578063ffcc11181461020857600080fd5b806371b0b5a2146101945780639c89dcf3146101bf57600080fd5b806311a7a4c0116100a757806311a7a4c0146100f457806311d683231461011b578063645941421461018157600080fd5b806307264806146100c357806309bca048146100d8575b600080fd5b6100d66100d1366004610d28565b61021b565b005b6100e160055481565b6040519081526020015b60405180910390f35b610107610102366004610da7565b6105dd565b6040516100eb989796959493929190610dc0565b61015c610129366004610e86565b600260209081526000928352604080842090915290825290205473ffffffffffffffffffffffffffffffffffffffff1681565b60405173ffffffffffffffffffffffffffffffffffffffff90911681526020016100eb565b6100e161018f366004610da7565b6106c2565b6100e16101a2366004610ea8565b600360209081526000928352604080842090915290825290205481565b6100e160045481565b60005461015c9073ffffffffffffffffffffffffffffffffffffffff1681565b60065461015c9073ffffffffffffffffffffffffffffffffffffffff1681565b6100d6610216366004610f39565b610866565b6000821161028a576040517f08c379a000000000000000000000000000000000000000000000000000000000815260206004820152601d60248201527f427564676574206d7573742062652067726561746572207468616e203000000060448201526064015b60405180910390fd5b6000811161031a576040517f08c379a000000000000000000000000000000000000000000000000000000000815260206004820152602560248201527f436f73742070657220636c69636b206d7573742062652067726561746572207460448201527f68616e20300000000000000000000000000000000000000000000000000000006064820152608401610281565b6000546040517f23b872dd0000000000000000000000000000000000000000000000000000000081523360048201523060248201526044810184905273ffffffffffffffffffffffffffffffffffffffff909116906323b872dd906064016020604051808303816000875af1158015610397573d6000803e3d6000fd5b505050506040513d601f19601f820116820180604052508101906103bb9190610fb3565b610421576040517f08c379a000000000000000000000000000000000000000000000000000000000815260206004820152601660248201527f427564676574207472616e73666572206661696c6564000000000000000000006044820152606401610281565b600480549060006104318361100b565b919050555060405180610100016040528060045481526020013373ffffffffffffffffffffffffffffffffffffffff16815260200185858080601f0160208091040260200160405190810160405280939291908181526020018383808284376000920182905250938552505050602080830186905260408084018690526060840183905260808401839052600160a0909401849052600454835283825291829020845181559084015192810180547fffffffffffffffffffffffff00000000000000000000000000000000000000001673ffffffffffffffffffffffffffffffffffffffff9094169390931790925582015160028201906105329082611116565b5060608201516003820155608082015160048083019190915560a0830151600583015560c0830151600683015560e090920151600790910180547fffffffffffffffffffffffffffffffffffffffffffffffffffffffffffffff0016911515919091179055546040513391907f2e27350385f954021267dd856010ad40c54ec2de5219a0654536ac5fff0ae861906105cf90889088908890611230565b60405180910390a350505050565b600160208190526000918252604090912080549181015460028201805473ffffffffffffffffffffffffffffffffffffffff909216929161061d90611072565b80601f016020809104026020016040519081016040528092919081815260200182805461064990611072565b80156106965780601f1061066b57610100808354040283529160200191610696565b820191906000526020600020905b81548152906001019060200180831161067957829003601f168201915b505050600384015460048501546005860154600687015460079097015495969295919450925060ff1688565b60008181526001602052604081206007015460ff1661073d576040517f08c379a000000000000000000000000000000000000000000000000000000000815260206004820152601060248201527f4164206973206e6f7420616374697665000000000000000000000000000000006044820152606401610281565b336000908152600360209081526040808320858452909152902054156107bf576040517f08c379a000000000000000000000000000000000000000000000000000000000815260206004820152601c60248201527f4c696e6b20616c72656164792065786973747320666f722075736572000000006044820152606401610281565b600580549060006107cf8361100b565b9091555050600082815260026020908152604080832060058054855290835281842080547fffffffffffffffffffffffff000000000000000000000000000000000000000016339081179091559054818552600384528285208786529093528184208390559051909285917f5736947fc0a4b3d747b2a48ffae02a2e78f2cd83fb511fbbf5dfdd3c93f5c2d39190a4505060055490565b60065473ffffffffffffffffffffffffffffffffffffffff1633146108e7576040517f08c379a000000000000000000000000000000000000000000000000000000000815260206004820152600c60248201527f4e6f7420616e2061646d696e00000000000000000000000000000000000000006044820152606401610281565b828114610950576040517f08c379a000000000000000000000000000000000000000000000000000000000815260206004820152601660248201527f4172726179206c656e67746873206d69736d61746368000000000000000000006044820152606401610281565b6000858152600160205260409020600781015460ff166109cc576040517f08c379a000000000000000000000000000000000000000000000000000000000815260206004820152601060248201527f4164206973206e6f7420616374697665000000000000000000000000000000006044820152606401610281565b60008060005b86811015610c735760008888838181106109ee576109ee611287565b9050602002013590506000878784818110610a0b57610a0b611287565b60008e81526002602090815260408083208884528252909120549102929092013592505073ffffffffffffffffffffffffffffffffffffffff1680610aac576040517f08c379a000000000000000000000000000000000000000000000000000000000815260206004820152600e60248201527f496e76616c6964206c696e6b49640000000000000000000000000000000000006044820152606401610281565b6000876004015483610abe91906112b6565b90508088600301541015610b2e576040517f08c379a000000000000000000000000000000000000000000000000000000000815260206004820152601360248201527f496e73756666696369656e7420627564676574000000000000000000000000006044820152606401610281565b80886003016000828254610b4291906112d3565b90915550610b52905083886112e6565b9650610b5e81876112e6565b6000546040517fa9059cbb00000000000000000000000000000000000000000000000000000000815273ffffffffffffffffffffffffffffffffffffffff85811660048301526024820185905292985091169063a9059cbb906044016020604051808303816000875af1158015610bd9573d6000803e3d6000fd5b505050506040513d601f19601f82011682018060405250810190610bfd9190610fb3565b610c63576040517f08c379a000000000000000000000000000000000000000000000000000000000815260206004820152601660248201527f526577617264207472616e73666572206661696c6564000000000000000000006044820152606401610281565b5050600190920191506109d29050565b5081836005016000828254610c8891906112e6565b9250508190555080836006016000828254610ca391906112e6565b9091555050600483015460038401541015610ce3576007830180547fffffffffffffffffffffffffffffffffffffffffffffffffffffffffffffff001690555b604080518381526020810183905289917ff8d1900b83feb9af98c0c068ff8ea4fdb70b336ab0079c4f82c804b618932dbb910160405180910390a25050505050505050565b60008060008060608587031215610d3e57600080fd5b843567ffffffffffffffff80821115610d5657600080fd5b818701915087601f830112610d6a57600080fd5b813581811115610d7957600080fd5b886020828501011115610d8b57600080fd5b6020928301999098509187013596604001359550909350505050565b600060208284031215610db957600080fd5b5035919050565b60006101008a8352602073ffffffffffffffffffffffffffffffffffffffff8b16602085015281604085015289518083860152600092505b80831015610e17578a8301820151858401610120015291810191610df8565b61012092506000838287010152827fffffffffffffffffffffffffffffffffffffffffffffffffffffffffffffffe0601f83011686010193505050508660608301528560808301528460a08301528360c0830152610e7960e083018415159052565b9998505050505050505050565b60008060408385031215610e9957600080fd5b50508035926020909101359150565b60008060408385031215610ebb57600080fd5b823573ffffffffffffffffffffffffffffffffffffffff81168114610edf57600080fd5b946020939093013593505050565b60008083601f840112610eff57600080fd5b50813567ffffffffffffffff811115610f1757600080fd5b6020830191508360208260051b8501011115610f3257600080fd5b9250929050565b600080600080600060608688031215610f5157600080fd5b85359450602086013567ffffffffffffffff80821115610f7057600080fd5b610f7c89838a01610eed565b90965094506040880135915080821115610f9557600080fd5b50610fa288828901610eed565b969995985093965092949392505050565b600060208284031215610fc557600080fd5b81518015158114610fd557600080fd5b9392505050565b7f4e487b7100000000000000000000000000000000000000000000000000000000600052601160045260246000fd5b60007fffffffffffffffffffffffffffffffffffffffffffffffffffffffffffffffff820361103c5761103c610fdc565b5060010190565b7f4e487b7100000000000000000000000000000000000000000000000000000000600052604160045260246000fd5b600181811c9082168061108657607f821691505b6020821081036110bf577f4e487b7100000000000000000000000000000000000000000000000000000000600052602260045260246000fd5b50919050565b601f821115611111576000816000526020600020601f850160051c810160208610156110ee5750805b601f850160051c820191505b8181101561110d578281556001016110fa565b5050505b505050565b815167ffffffffffffffff81111561113057611130611043565b6111448161113e8454611072565b846110c5565b602080601f83116001811461119757600084156111615750858301515b7fffffffffffffffffffffffffffffffffffffffffffffffffffffffffffffffff600386901b1c1916600185901b17855561110d565b6000858152602081207fffffffffffffffffffffffffffffffffffffffffffffffffffffffffffffffe08616915b828110156111e4578886015182559484019460019091019084016111c5565b508582101561122057878501517fffffffffffffffffffffffffffffffffffffffffffffffffffffffffffffffff600388901b60f8161c191681555b5050505050600190811b01905550565b6040815282604082015282846060830137600060608483010152600060607fffffffffffffffffffffffffffffffffffffffffffffffffffffffffffffffe0601f8601168301019050826020830152949350505050565b7f4e487b7100000000000000000000000000000000000000000000000000000000600052603260045260246000fd5b80820281158282048414176112cd576112cd610fdc565b92915050565b818103818111156112cd576112cd610fdc565b808201808211156112cd576112cd610fdc56fea164736f6c6343000816000a",
  "linkReferences": {},
  "deployedLinkReferences": {}
}