{
  "_format": "hh-sol-artifact-1",
  "contractName": "Airdrop",
  "sourceName": "contracts/Airdrop.sol",
  "abi": [
    {
      "inputs": [
        {
          "internalType": "uint256[]",
          "name": "_arr",
          "type": "uint256[]"
        }
      ],
      "name": "getSum",
      "outputs": [
        {
          "internalType": "uint256",
          "name": "sum",
          "type": "uint256"
        }
      ],
      "stateMutability": "pure",
      "type": "function"
    },
    {
      "inputs": [
        {
          "internalType": "address payable[]",
          "name": "_addresses",
          "type": "address[]"
        },
        {
          "internalType": "uint256[]",
          "name": "_amounts",
          "type": "uint256[]"
        }
      ],
      "name": "multiTransferETH",
      "outputs": [],
      "stateMutability": "payable",
      "type": "function"
    },
    {
      "inputs": [
        {
          "internalType": "address",
          "name": "_token",
          "type": "address"
        },
        {
          "internalType": "address[]",
          "name": "_addresses",
          "type": "address[]"
        },
        {
          "internalType": "uint256[]",
          "name": "_amounts",
          "type": "uint256[]"
        }
      ],
      "name": "multiTransferToken",
      "outputs": [],
      "stateMutability": "nonpayable",
      "type": "function"
    },
    {
      "inputs": [
        {
          "internalType": "address",
          "name": "_to",
          "type": "address"
        }
      ],
      "name": "withdrawFromFailList",
      "outputs": [],
      "stateMutability": "nonpayable",
      "type": "function"
    }
  ],
  "bytecode": "0x608060405234801561001057600080fd5b506109c8806100206000396000f3fe60806040526004361061003f5760003560e01c806341ed24a21461004457806377988cf814610066578063acacd8ee14610079578063ccb8c1e014610099575b600080fd5b34801561005057600080fd5b5061006461005f3660046107bc565b6100cb565b005b61006461007436600461083f565b610385565b34801561008557600080fd5b506100646100943660046108ab565b6105b8565b3480156100a557600080fd5b506100b96100b43660046108cf565b61070a565b60405190815260200160405180910390f35b82811461015f576040517f08c379a000000000000000000000000000000000000000000000000000000000815260206004820152602a60248201527f4c656e67746873206f662041646472657373657320616e6420416d6f756e747360448201527f204e4f5420455155414c0000000000000000000000000000000000000000000060648201526084015b60405180910390fd5b84600061016c848461070a565b6040517fdd62ed3e000000000000000000000000000000000000000000000000000000008152336004820152306024820152909150819073ffffffffffffffffffffffffffffffffffffffff84169063dd62ed3e90604401602060405180830381865afa1580156101e1573d6000803e3d6000fd5b505050506040513d601f19601f820116820180604052508101906102059190610911565b1161026c576040517f08c379a000000000000000000000000000000000000000000000000000000000815260206004820152601860248201527f4e65656420417070726f766520455243323020746f6b656e00000000000000006044820152606401610156565b60005b8581101561037b578273ffffffffffffffffffffffffffffffffffffffff166323b872dd338989858181106102a6576102a661092a565b90506020020160208101906102bb91906108ab565b8888868181106102cd576102cd61092a565b6040517fffffffff0000000000000000000000000000000000000000000000000000000060e088901b16815273ffffffffffffffffffffffffffffffffffffffff9586166004820152949093166024850152506020909102013560448201526064016020604051808303816000875af115801561034e573d6000803e3d6000fd5b505050506040513d601f19601f820116820180604052508101906103729190610959565b5060010161026f565b5050505050505050565b828114610414576040517f08c379a000000000000000000000000000000000000000000000000000000000815260206004820152602a60248201527f4c656e67746873206f662041646472657373657320616e6420416d6f756e747360448201527f204e4f5420455155414c000000000000000000000000000000000000000000006064820152608401610156565b6000610420838361070a565b905080341461048b576040517f08c379a000000000000000000000000000000000000000000000000000000000815260206004820152601560248201527f5472616e7366657220616d6f756e74206572726f7200000000000000000000006044820152606401610156565b60005b848110156105b05760008686838181106104aa576104aa61092a565b90506020020160208101906104bf91906108ab565b73ffffffffffffffffffffffffffffffffffffffff168585848181106104e7576104e761092a565b9050602002013560405160006040518083038185875af1925050503d806000811461052e576040519150601f19603f3d011682016040523d82523d6000602084013e610533565b606091505b50509050806105a75784848381811061054e5761054e61092a565b9050602002013560008089898681811061056a5761056a61092a565b905060200201602081019061057f91906108ab565b73ffffffffffffffffffffffffffffffffffffffff1681526020810191909152604001600020555b5060010161048e565b505050505050565b336000908152602081905260409020548061062f576040517f08c379a000000000000000000000000000000000000000000000000000000000815260206004820152601a60248201527f596f7520617265206e6f7420696e206661696c6564206c6973740000000000006044820152606401610156565b336000908152602081905260408082208290555173ffffffffffffffffffffffffffffffffffffffff84169083908381818185875af1925050503d8060008114610695576040519150601f19603f3d011682016040523d82523d6000602084013e61069a565b606091505b5050905080610705576040517f08c379a000000000000000000000000000000000000000000000000000000000815260206004820152600d60248201527f4661696c207769746864726177000000000000000000000000000000000000006044820152606401610156565b505050565b6000805b82811015610744578383828181106107285761072861092a565b905060200201358261073a919061097b565b915060010161070e565b5092915050565b73ffffffffffffffffffffffffffffffffffffffff8116811461076d57600080fd5b50565b60008083601f84011261078257600080fd5b50813567ffffffffffffffff81111561079a57600080fd5b6020830191508360208260051b85010111156107b557600080fd5b9250929050565b6000806000806000606086880312156107d457600080fd5b85356107df8161074b565b9450602086013567ffffffffffffffff808211156107fc57600080fd5b61080889838a01610770565b9096509450604088013591508082111561082157600080fd5b5061082e88828901610770565b969995985093965092949392505050565b6000806000806040858703121561085557600080fd5b843567ffffffffffffffff8082111561086d57600080fd5b61087988838901610770565b9096509450602087013591508082111561089257600080fd5b5061089f87828801610770565b95989497509550505050565b6000602082840312156108bd57600080fd5b81356108c88161074b565b9392505050565b600080602083850312156108e257600080fd5b823567ffffffffffffffff8111156108f957600080fd5b61090585828601610770565b90969095509350505050565b60006020828403121561092357600080fd5b5051919050565b7f4e487b7100000000000000000000000000000000000000000000000000000000600052603260045260246000fd5b60006020828403121561096b57600080fd5b815180151581146108c857600080fd5b808201808211156109b5577f4e487b7100000000000000000000000000000000000000000000000000000000600052601160045260246000fd5b9291505056fea164736f6c6343000816000a",
  "linkReferences": {},
  "deployedLinkReferences": {}
}