{
  "_format": "hh-sol-artifact-1",
  "contractName": "AuctionManager",
  "sourceName": "contracts/AuctionManager.sol",
  "abi": [
    {
      "inputs": [],
      "name": "AccessControlBadConfirmation",
      "type": "error"
    },
    {
      "inputs": [
        {
          "internalType": "address",
          "name": "account",
          "type": "address"
        },
        {
          "internalType": "bytes32",
          "name": "neededRole",
          "type": "bytes32"
        }
      ],
      "name": "AccessControlUnauthorizedAccount",
      "type": "error"
    },
    {
      "inputs": [
        {
          "internalType": "address",
          "name": "target",
          "type": "address"
        }
      ],
      "name": "AddressEmptyCode",
      "type": "error"
    },
    {
      "inputs": [
        {
          "internalType": "address",
          "name": "implementation",
          "type": "address"
        }
      ],
      "name": "ERC1967InvalidImplementation",
      "type": "error"
    },
    {
      "inputs": [],
      "name": "ERC1967NonPayable",
      "type": "error"
    },
    {
      "inputs": [],
      "name": "FailedCall",
      "type": "error"
    },
    {
      "inputs": [],
      "name": "InvalidInitialization",
      "type": "error"
    },
    {
      "inputs": [],
      "name": "NotInitializing",
      "type": "error"
    },
    {
      "inputs": [
        {
          "internalType": "address",
          "name": "owner",
          "type": "address"
        }
      ],
      "name": "OwnableInvalidOwner",
      "type": "error"
    },
    {
      "inputs": [
        {
          "internalType": "address",
          "name": "account",
          "type": "address"
        }
      ],
      "name": "OwnableUnauthorizedAccount",
      "type": "error"
    },
    {
      "inputs": [],
      "name": "UUPSUnauthorizedCallContext",
      "type": "error"
    },
    {
      "inputs": [
        {
          "internalType": "bytes32",
          "name": "slot",
          "type": "bytes32"
        }
      ],
      "name": "UUPSUnsupportedProxiableUUID",
      "type": "error"
    },
    {
      "anonymous": false,
      "inputs": [
        {
          "indexed": true,
          "internalType": "uint256",
          "name": "auctionId",
          "type": "uint256"
        },
        {
          "indexed": true,
          "internalType": "address",
          "name": "canceller",
          "type": "address"
        },
        {
          "indexed": false,
          "internalType": "string",
          "name": "reason",
          "type": "string"
        },
        {
          "indexed": false,
          "internalType": "uint256",
          "name": "timestamp",
          "type": "uint256"
        }
      ],
      "name": "AuctionCancelled",
      "type": "event"
    },
    {
      "anonymous": false,
      "inputs": [
        {
          "indexed": true,
          "internalType": "uint256",
          "name": "auctionId",
          "type": "uint256"
        },
        {
          "indexed": false,
          "internalType": "address",
          "name": "winner",
          "type": "address"
        },
        {
          "indexed": false,
          "internalType": "uint256",
          "name": "finalPrice",
          "type": "uint256"
        },
        {
          "indexed": false,
          "internalType": "uint256",
          "name": "endTime",
          "type": "uint256"
        }
      ],
      "name": "AuctionEnded",
      "type": "event"
    },
    {
      "anonymous": false,
      "inputs": [
        {
          "indexed": true,
          "internalType": "uint256",
          "name": "auctionId",
          "type": "uint256"
        },
        {
          "indexed": true,
          "internalType": "address",
          "name": "seller",
          "type": "address"
        },
        {
          "indexed": true,
          "internalType": "address",
          "name": "nftContract",
          "type": "address"
        },
        {
          "indexed": false,
          "internalType": "uint256",
          "name": "tokenId",
          "type": "uint256"
        },
        {
          "indexed": false,
          "internalType": "string",
          "name": "tokenURI",
          "type": "string"
        },
        {
          "indexed": false,
          "internalType": "enum AuctionManager.AuctionType",
          "name": "auctionType",
          "type": "uint8"
        },
        {
          "indexed": false,
          "internalType": "uint256",
          "name": "startingPrice",
          "type": "uint256"
        },
        {
          "indexed": false,
          "internalType": "uint256",
          "name": "reservePrice",
          "type": "uint256"
        },
        {
          "indexed": false,
          "internalType": "uint256",
          "name": "duration",
          "type": "uint256"
        },
        {
          "indexed": false,
          "internalType": "uint256",
          "name": "depositAmount",
          "type": "uint256"
        },
        {
          "indexed": false,
          "internalType": "uint256",
          "name": "startTime",
          "type": "uint256"
        },
        {
          "indexed": false,
          "internalType": "uint256",
          "name": "endTime",
          "type": "uint256"
        }
      ],
      "name": "AuctionStarted",
      "type": "event"
    },
    {
      "anonymous": false,
      "inputs": [
        {
          "indexed": true,
          "internalType": "uint256",
          "name": "auctionId",
          "type": "uint256"
        },
        {
          "indexed": true,
          "internalType": "address",
          "name": "bidder",
          "type": "address"
        },
        {
          "indexed": false,
          "internalType": "uint256",
          "name": "bidAmount",
          "type": "uint256"
        },
        {
          "indexed": false,
          "internalType": "uint256",
          "name": "timestamp",
          "type": "uint256"
        }
      ],
      "name": "BidPlaced",
      "type": "event"
    },
    {
      "anonymous": false,
      "inputs": [
        {
          "indexed": true,
          "internalType": "uint256",
          "name": "auctionId",
          "type": "uint256"
        },
        {
          "indexed": true,
          "internalType": "address",
          "name": "participant",
          "type": "address"
        },
        {
          "indexed": false,
          "internalType": "uint256",
          "name": "amount",
          "type": "uint256"
        },
        {
          "indexed": false,
          "internalType": "bool",
          "name": "isDeposit",
          "type": "bool"
        },
        {
          "indexed": false,
          "internalType": "uint256",
          "name": "timestamp",
          "type": "uint256"
        }
      ],
      "name": "DepositHandled",
      "type": "event"
    },
    {
      "anonymous": false,
      "inputs": [
        {
          "indexed": true,
          "internalType": "uint256",
          "name": "auctionId",
          "type": "uint256"
        },
        {
          "indexed": false,
          "internalType": "uint256",
          "name": "oldPrice",
          "type": "uint256"
        },
        {
          "indexed": false,
          "internalType": "uint256",
          "name": "newPrice",
          "type": "uint256"
        },
        {
          "indexed": false,
          "internalType": "uint256",
          "name": "timestamp",
          "type": "uint256"
        }
      ],
      "name": "DutchAuctionPriceUpdated",
      "type": "event"
    },
    {
      "anonymous": false,
      "inputs": [
        {
          "indexed": false,
          "internalType": "uint256",
          "name": "auctionId",
          "type": "uint256"
        },
        {
          "indexed": false,
          "internalType": "uint256",
          "name": "amount",
          "type": "uint256"
        }
      ],
      "name": "FeeCollected",
      "type": "event"
    },
    {
      "anonymous": false,
      "inputs": [
        {
          "indexed": false,
          "internalType": "uint256",
          "name": "oldFeeRate",
          "type": "uint256"
        },
        {
          "indexed": false,
          "internalType": "uint256",
          "name": "newFeeRate",
          "type": "uint256"
        }
      ],
      "name": "FeeRateUpdated",
      "type": "event"
    },
    {
      "anonymous": false,
      "inputs": [
        {
          "indexed": false,
          "internalType": "uint64",
          "name": "version",
          "type": "uint64"
        }
      ],
      "name": "Initialized",
      "type": "event"
    },
    {
      "anonymous": false,
      "inputs": [
        {
          "indexed": true,
          "internalType": "uint256",
          "name": "auctionId",
          "type": "uint256"
        },
        {
          "indexed": true,
          "internalType": "address",
          "name": "from",
          "type": "address"
        },
        {
          "indexed": true,
          "internalType": "address",
          "name": "to",
          "type": "address"
        },
        {
          "indexed": false,
          "internalType": "address",
          "name": "nftContract",
          "type": "address"
        },
        {
          "indexed": false,
          "internalType": "uint256",
          "name": "tokenId",
          "type": "uint256"
        },
        {
          "indexed": false,
          "internalType": "uint256",
          "name": "timestamp",
          "type": "uint256"
        }
      ],
      "name": "NFTTransferred",
      "type": "event"
    },
    {
      "anonymous": false,
      "inputs": [
        {
          "indexed": true,
          "internalType": "address",
          "name": "previousOwner",
          "type": "address"
        },
        {
          "indexed": true,
          "internalType": "address",
          "name": "newOwner",
          "type": "address"
        }
      ],
      "name": "OwnershipTransferred",
      "type": "event"
    },
    {
      "anonymous": false,
      "inputs": [
        {
          "indexed": true,
          "internalType": "bytes32",
          "name": "role",
          "type": "bytes32"
        },
        {
          "indexed": true,
          "internalType": "bytes32",
          "name": "previousAdminRole",
          "type": "bytes32"
        },
        {
          "indexed": true,
          "internalType": "bytes32",
          "name": "newAdminRole",
          "type": "bytes32"
        }
      ],
      "name": "RoleAdminChanged",
      "type": "event"
    },
    {
      "anonymous": false,
      "inputs": [
        {
          "indexed": true,
          "internalType": "bytes32",
          "name": "role",
          "type": "bytes32"
        },
        {
          "indexed": true,
          "internalType": "address",
          "name": "account",
          "type": "address"
        },
        {
          "indexed": true,
          "internalType": "address",
          "name": "sender",
          "type": "address"
        }
      ],
      "name": "RoleGranted",
      "type": "event"
    },
    {
      "anonymous": false,
      "inputs": [
        {
          "indexed": true,
          "internalType": "bytes32",
          "name": "role",
          "type": "bytes32"
        },
        {
          "indexed": true,
          "internalType": "address",
          "name": "account",
          "type": "address"
        },
        {
          "indexed": true,
          "internalType": "address",
          "name": "sender",
          "type": "address"
        }
      ],
      "name": "RoleRevoked",
      "type": "event"
    },
    {
      "anonymous": false,
      "inputs": [
        {
          "indexed": true,
          "internalType": "address",
          "name": "implementation",
          "type": "address"
        }
      ],
      "name": "Upgraded",
      "type": "event"
    },
    {
      "inputs": [],
      "name": "ADMIN_ROLE",
      "outputs": [
        {
          "internalType": "bytes32",
          "name": "",
          "type": "bytes32"
        }
      ],
      "stateMutability": "view",
      "type": "function"
    },
    {
      "inputs": [],
      "name": "DEFAULT_ADMIN_ROLE",
      "outputs": [
        {
          "internalType": "bytes32",
          "name": "",
          "type": "bytes32"
        }
      ],
      "stateMutability": "view",
      "type": "function"
    },
    {
      "inputs": [],
      "name": "MAX_FEE_RATE",
      "outputs": [
        {
          "internalType": "uint256",
          "name": "",
          "type": "uint256"
        }
      ],
      "stateMutability": "view",
      "type": "function"
    },
    {
      "inputs": [],
      "name": "UPGRADE_INTERFACE_VERSION",
      "outputs": [
        {
          "internalType": "string",
          "name": "",
          "type": "string"
        }
      ],
      "stateMutability": "view",
      "type": "function"
    },
    {
      "inputs": [],
      "name": "auctionCount",
      "outputs": [
        {
          "internalType": "uint256",
          "name": "",
          "type": "uint256"
        }
      ],
      "stateMutability": "view",
      "type": "function"
    },
    {
      "inputs": [
        {
          "internalType": "uint256",
          "name": "",
          "type": "uint256"
        }
      ],
      "name": "auctions",
      "outputs": [
        {
          "internalType": "enum AuctionManager.AuctionType",
          "name": "auctionType",
          "type": "uint8"
        },
        {
          "internalType": "enum AuctionManager.AuctionStatus",
          "name": "auctionStatus",
          "type": "uint8"
        },
        {
          "internalType": "address",
          "name": "seller",
          "type": "address"
        },
        {
          "internalType": "address",
          "name": "winner",
          "type": "address"
        },
        {
          "internalType": "address",
          "name": "nftContract",
          "type": "address"
        },
        {
          "internalType": "uint256",
          "name": "tokenId",
          "type": "uint256"
        },
        {
          "internalType": "string",
          "name": "tokenURI",
          "type": "string"
        },
        {
          "internalType": "uint256",
          "name": "startTime",
          "type": "uint256"
        },
        {
          "internalType": "uint256",
          "name": "endTime",
          "type": "uint256"
        },
        {
          "internalType": "uint256",
          "name": "duration",
          "type": "uint256"
        },
        {
          "internalType": "uint256",
          "name": "startingPrice",
          "type": "uint256"
        },
        {
          "internalType": "uint256",
          "name": "currentPrice",
          "type": "uint256"
        },
        {
          "internalType": "uint256",
          "name": "finalPrice",
          "type": "uint256"
        },
        {
          "internalType": "uint256",
          "name": "depositAmount",
          "type": "uint256"
        },
        {
          "internalType": "uint256",
          "name": "currentBid",
          "type": "uint256"
        },
        {
          "internalType": "uint256",
          "name": "reservePrice",
          "type": "uint256"
        },
        {
          "internalType": "uint256",
          "name": "minimumPrice",
          "type": "uint256"
        },
        {
          "internalType": "uint256",
          "name": "priceDecrement",
          "type": "uint256"
        },
        {
          "internalType": "uint256",
          "name": "decrementInterval",
          "type": "uint256"
        },
        {
          "internalType": "uint256",
          "name": "lastUpdateTime",
          "type": "uint256"
        },
        {
          "internalType": "bool",
          "name": "isPaymentTransferred",
          "type": "bool"
        },
        {
          "internalType": "bool",
          "name": "isNFTTransferred",
          "type": "bool"
        }
      ],
      "stateMutability": "view",
      "type": "function"
    },
    {
      "inputs": [
        {
          "internalType": "uint256",
          "name": "auctionId",
          "type": "uint256"
        },
        {
          "internalType": "address[]",
          "name": "depositors",
          "type": "address[]"
        }
      ],
      "name": "batchRefundDeposits",
      "outputs": [],
      "stateMutability": "nonpayable",
      "type": "function"
    },
    {
      "inputs": [
        {
          "internalType": "uint256",
          "name": "auctionId",
          "type": "uint256"
        },
        {
          "internalType": "uint256",
          "name": "amount",
          "type": "uint256"
        }
      ],
      "name": "bid",
      "outputs": [],
      "stateMutability": "nonpayable",
      "type": "function"
    },
    {
      "inputs": [
        {
          "internalType": "uint256",
          "name": "amount",
          "type": "uint256"
        }
      ],
      "name": "calculateFee",
      "outputs": [
        {
          "internalType": "uint256",
          "name": "",
          "type": "uint256"
        }
      ],
      "stateMutability": "view",
      "type": "function"
    },
    {
      "inputs": [],
      "name": "daToken",
      "outputs": [
        {
          "internalType": "contract IERC20",
          "name": "",
          "type": "address"
        }
      ],
      "stateMutability": "view",
      "type": "function"
    },
    {
      "inputs": [
        {
          "internalType": "uint256",
          "name": "auctionId",
          "type": "uint256"
        }
      ],
      "name": "deposit",
      "outputs": [],
      "stateMutability": "nonpayable",
      "type": "function"
    },
    {
      "inputs": [
        {
          "internalType": "uint256",
          "name": "auctionId",
          "type": "uint256"
        }
      ],
      "name": "emergencyCancelAuction",
      "outputs": [],
      "stateMutability": "nonpayable",
      "type": "function"
    },
    {
      "inputs": [
        {
          "internalType": "address",
          "name": "token",
          "type": "address"
        },
        {
          "internalType": "address",
          "name": "to",
          "type": "address"
        },
        {
          "internalType": "uint256",
          "name": "amount",
          "type": "uint256"
        }
      ],
      "name": "emergencyWithdraw",
      "outputs": [],
      "stateMutability": "nonpayable",
      "type": "function"
    },
    {
      "inputs": [
        {
          "internalType": "uint256",
          "name": "auctionId",
          "type": "uint256"
        }
      ],
      "name": "endAuction",
      "outputs": [],
      "stateMutability": "nonpayable",
      "type": "function"
    },
    {
      "inputs": [],
      "name": "feeRate",
      "outputs": [
        {
          "internalType": "uint256",
          "name": "",
          "type": "uint256"
        }
      ],
      "stateMutability": "view",
      "type": "function"
    },
    {
      "inputs": [
        {
          "internalType": "uint256",
          "name": "auctionId",
          "type": "uint256"
        }
      ],
      "name": "getCurrentPrice",
      "outputs": [
        {
          "internalType": "uint256",
          "name": "",
          "type": "uint256"
        }
      ],
      "stateMutability": "view",
      "type": "function"
    },
    {
      "inputs": [
        {
          "internalType": "bytes32",
          "name": "role",
          "type": "bytes32"
        }
      ],
      "name": "getRoleAdmin",
      "outputs": [
        {
          "internalType": "bytes32",
          "name": "",
          "type": "bytes32"
        }
      ],
      "stateMutability": "view",
      "type": "function"
    },
    {
      "inputs": [
        {
          "internalType": "bytes32",
          "name": "role",
          "type": "bytes32"
        },
        {
          "internalType": "address",
          "name": "account",
          "type": "address"
        }
      ],
      "name": "grantRole",
      "outputs": [],
      "stateMutability": "nonpayable",
      "type": "function"
    },
    {
      "inputs": [
        {
          "internalType": "bytes32",
          "name": "role",
          "type": "bytes32"
        },
        {
          "internalType": "address",
          "name": "account",
          "type": "address"
        }
      ],
      "name": "hasRole",
      "outputs": [
        {
          "internalType": "bool",
          "name": "",
          "type": "bool"
        }
      ],
      "stateMutability": "view",
      "type": "function"
    },
    {
      "inputs": [
        {
          "internalType": "address",
          "name": "initialAdmin",
          "type": "address"
        },
        {
          "internalType": "contract IERC20",
          "name": "_daToken",
          "type": "address"
        }
      ],
      "name": "initialize",
      "outputs": [],
      "stateMutability": "nonpayable",
      "type": "function"
    },
    {
      "inputs": [],
      "name": "owner",
      "outputs": [
        {
          "internalType": "address",
          "name": "",
          "type": "address"
        }
      ],
      "stateMutability": "view",
      "type": "function"
    },
    {
      "inputs": [],
      "name": "proxiableUUID",
      "outputs": [
        {
          "internalType": "bytes32",
          "name": "",
          "type": "bytes32"
        }
      ],
      "stateMutability": "view",
      "type": "function"
    },
    {
      "inputs": [
        {
          "internalType": "uint256",
          "name": "auctionId",
          "type": "uint256"
        }
      ],
      "name": "refundDeposit",
      "outputs": [],
      "stateMutability": "nonpayable",
      "type": "function"
    },
    {
      "inputs": [],
      "name": "renounceOwnership",
      "outputs": [],
      "stateMutability": "nonpayable",
      "type": "function"
    },
    {
      "inputs": [
        {
          "internalType": "bytes32",
          "name": "role",
          "type": "bytes32"
        },
        {
          "internalType": "address",
          "name": "callerConfirmation",
          "type": "address"
        }
      ],
      "name": "renounceRole",
      "outputs": [],
      "stateMutability": "nonpayable",
      "type": "function"
    },
    {
      "inputs": [
        {
          "internalType": "bytes32",
          "name": "role",
          "type": "bytes32"
        },
        {
          "internalType": "address",
          "name": "account",
          "type": "address"
        }
      ],
      "name": "revokeRole",
      "outputs": [],
      "stateMutability": "nonpayable",
      "type": "function"
    },
    {
      "inputs": [
        {
          "internalType": "uint256",
          "name": "newFeeRate",
          "type": "uint256"
        }
      ],
      "name": "setFeeRate",
      "outputs": [],
      "stateMutability": "nonpayable",
      "type": "function"
    },
    {
      "inputs": [
        {
          "internalType": "enum AuctionManager.AuctionType",
          "name": "auctionType",
          "type": "uint8"
        },
        {
          "internalType": "uint256",
          "name": "startingPrice",
          "type": "uint256"
        },
        {
          "internalType": "uint256",
          "name": "reservePrice",
          "type": "uint256"
        },
        {
          "internalType": "uint256",
          "name": "duration",
          "type": "uint256"
        },
        {
          "internalType": "address",
          "name": "nftContract",
          "type": "address"
        },
        {
          "internalType": "uint256",
          "name": "tokenId",
          "type": "uint256"
        },
        {
          "internalType": "uint256",
          "name": "priceDecrement",
          "type": "uint256"
        },
        {
          "internalType": "uint256",
          "name": "decrementInterval",
          "type": "uint256"
        }
      ],
      "name": "startAuction",
      "outputs": [],
      "stateMutability": "nonpayable",
      "type": "function"
    },
    {
      "inputs": [
        {
          "internalType": "bytes4",
          "name": "interfaceId",
          "type": "bytes4"
        }
      ],
      "name": "supportsInterface",
      "outputs": [
        {
          "internalType": "bool",
          "name": "",
          "type": "bool"
        }
      ],
      "stateMutability": "view",
      "type": "function"
    },
    {
      "inputs": [
        {
          "internalType": "address",
          "name": "newOwner",
          "type": "address"
        }
      ],
      "name": "transferOwnership",
      "outputs": [],
      "stateMutability": "nonpayable",
      "type": "function"
    },
    {
      "inputs": [
        {
          "internalType": "address",
          "name": "newImplementation",
          "type": "address"
        },
        {
          "internalType": "bytes",
          "name": "data",
          "type": "bytes"
        }
      ],
      "name": "upgradeToAndCall",
      "outputs": [],
      "stateMutability": "payable",
      "type": "function"
    },
    {
      "inputs": [
        {
          "internalType": "uint256",
          "name": "auctionId",
          "type": "uint256"
        }
      ],
      "name": "withdrawDeposit",
      "outputs": [],
      "stateMutability": "nonpayable",
      "type": "function"
    }
  ],
  "bytecode": "0x60a0806040523461002a57306080526143cb90816100308239608051818181611d430152611e290152f35b600080fdfe61014080604052600436101561001457600080fd5b600090813560e01c90816301ffc9a7146131b557508063248a9ca31461317b5780632ad715731461315d5780632ae11ca814612f255780632f2ff15d14612eda57806333289a4614612d3057806336568abe14612ce857806345596e2e14612c4f57806346fe0784146121db578063485cc955146120055780634f1ef28614611dad57806352d1902d14611d30578063571a26a014611abc578063598647f8146113465780636de0de7e1461103c578063715018a614610fd157806375b238fc14610fa85780638da5cb5b14610f7257806391d1485414610f1957806392f6576e14610efc578063978bbdb914610ede57806399a5d74714610eb0578063a217fddf14610e94578063aa9ea10c14610bf0578063ad3cb1cc14610b7d578063b6b55f2514610778578063b9a2de3a146103a5578063c55d0f561461037e578063d547741f1461032f578063dc0c74cc14610306578063e63ea408146101b15763f2fde38b1461018257600080fd5b346101ae5760203660031901126101ae576101ab61019e613220565b6101a6613b1a565b6137b6565b80f35b80fd5b50346101ae5760603660031901126101ae576101cb613220565b6101d361320a565b604435916101df61382a565b6001600160a01b03906101f58383161515613620565b83156102d0576002549082169082168103610298575060025460405163a9059cbb60e01b81526001600160a01b03909316600484015260248301939093529091602091839116818581604481015b03925af1801561028d576101ab91839161025e575b50613483565b610280915060203d602011610286575b610278818361324a565b81019061336f565b38610258565b503d61026e565b6040513d84823e3d90fd5b60405163a9059cbb60e01b81526001600160a01b03909316600484015260248301939093525090602090829081858160448101610243565b60405162461bcd60e51b815260206004820152600e60248201526d125b9d985b1a5908185b5bdd5b9d60921b6044820152606490fd5b50346101ae57806003193601126101ae576002546040516001600160a01b039091168152602090f35b50346101ae5760403660031901126101ae5761037a60043561034f61320a565b908084526000805160206143368339815191526020526103756001604086200154613892565b613a97565b5080f35b50346101ae5760203660031901126101ae57602061039d6004356136c3565b604051908152f35b50346101ae5760208060031936011261077457600435908183526003815260408320906006820154421061073c57815460ff8160081c16600481101561072857906103f260ff921561332d565b16600281101561071457806105c8575090600c8101918254600d830154116000146105bc57815461ff0019166102001782556001820180546001600160a01b039491929190851690816104fe575b505050848360028401541684845460101c166003850154823b156104fa576040516323b872dd60e01b81523060048201526001600160a01b0392909216602483015260448201529082908290606490829084905af1801561028d576104e2575b505054600a919091015460408051939092166001600160a01b03168352602083015242908201526000805160206143168339815191529080606081010390a280f35b6104eb90613236565b6104f65784386104a0565b8480fd5b8380fd5b600254905460405163a9059cbb60e01b81526001600160a01b0393909316600484015260248301528290829060449082908b908a165af19081156105b1578791610594575b5015610550578080610440565b6064906040519062461bcd60e51b82526004820152601760248201527f4661696c656420746f20726566756e642077696e6e65720000000000000000006044820152fd5b6105ab9150823d841161028657610278818361324a565b38610543565b6040513d89823e3d90fd5b5050506101ab90613b53565b6001146105d6575b50505080f35b6105df836136c3565b600e830154116106da57506001810180546001600160a01b0392919083166106c9578461020061ff00198454161780845584600285015416906003850154823b156104fa576040516323b872dd60e01b815230600482015260109290921c87166001600160a01b03166024830152604482015290829082908183816064810103925af1801561028d576106b5575b505054600a919091015460408051939092166001600160a01b03168352602083015242908201526000805160206143168339815191529080606081010390a25b3880806105d0565b6106be90613236565b6104f657843861066d565b5050506106d590613b53565b6106ad565b6064906040519062461bcd60e51b82526004820152601360248201527250726963652062656c6f77206d696e696d756d60681b6044820152fd5b634e487b7160e01b85526021600452602485fd5b634e487b7160e01b86526021600452602486fd5b6064906040519062461bcd60e51b825260048201526011602482015270105d58dd1a5bdb881b9bdd08195b991959607a1b6044820152fd5b5080fd5b50346101ae5760208060031936011261077457600435808352600582526107aa600160ff604086205416151514613503565b3315610b385780835260038252604083209182549260ff8460081c166004811015610728576107d9901561332d565b6001600160a01b0333601086901c821614610afb5760128201913360005282845260ff60406000205416610ac25760ff600b8201549661081a88151561365e565b61082960068401544210613548565b166002811015610aae57906001839214610a4e575b5050600254168015610a11576040516370a0823160e01b81523360048201528381602481855afa80156105b157869088906109e0575b61088092501015613588565b604051636eb1769f60e11b81523360048201523060248201528381604481855afa80156105b157869088906109aa575b6108bc925010156135d4565b6040516323b872dd60e01b815233600482015230602482015260448101869052908390829060649082908a905af190811561099f578691610982575b501561093d579060019133600052815260406000208260ff1982541617905560405193845283015242604083015260008051602061437683398151915260603393a380f35b60405162461bcd60e51b815260048101839052601760248201527f4465706f736974207472616e73666572206661696c65640000000000000000006044820152606490fd5b6109999150833d851161028657610278818361324a565b386108f8565b6040513d88823e3d90fd5b50508381813d83116109d9575b6109c1818361324a565b810103126109d457856108bc91516108b0565b600080fd5b503d6109b7565b50508381813d8311610a0a575b6109f7818361324a565b810103126109d457856108809151610874565b503d6109ed565b60405162461bcd60e51b8152600481018490526015602482015274151bdad95b881b9bdd081a5b9a5d1a585b1a5e9959605a1b6044820152606490fd5b6001015416610a5e57803861083e565b60405162461bcd60e51b815260048101849052602260248201527f44757463682061756374696f6e20616c72656164792068617320612077696e6e60448201526132b960f11b6064820152608490fd5b634e487b7160e01b88526021600452602488fd5b60405162461bcd60e51b8152600481018590526011602482015270105b1c9958591e4819195c1bdcda5d1959607a1b6044820152606490fd5b60405162461bcd60e51b815260048101849052601560248201527414d95b1b195c8818d85b9b9bdd0819195c1bdcda5d605a1b6044820152606490fd5b60405162461bcd60e51b815260048101839052601960248201527f496e76616c6964206465706f7369746f722061646472657373000000000000006044820152606490fd5b50346101ae57806003193601126101ae57604051604081019080821067ffffffffffffffff831117610bda57610bd69160405260058152640352e302e360dc1b6020820152604051918291602083526020830190613308565b0390f35b634e487b7160e01b600052604160045260246000fd5b50346101ae5760403660031901126101ae5767ffffffffffffffff8060243511610774573660236024350112156107745760243560040135116101ae5736602480356004013560051b81350101116101ae57610c4a61382a565b6001600654610c5c60ff8216156133c3565b60ff19161760065560043581526005602052610c7e60ff604083205416613503565b600435815260036020526040812060ff815460081c16600481101580610e805760018214908115610e73575b8115610e4c575b50610cbc9150613400565b815b602435600401358110610cd9578260ff196006541660065580f35b60248035600583901b0101356001600160a01b0381169003610e485760248035600583901b0101356001600160a01b0316151580610e19575b80610df3575b610d25575b600101610cbe565b600b82015460248035600584901b018101356001600160a01b039081166000818152601287016020908152604091829020805460ff19169055600254915163a9059cbb60e01b815260048101939093529382018590529094939291859160449183918a91165af1928315610de857600193610da691879161025e5750613483565b604051908152846020820152426040820152828060a01b0360248360051b81350101351690600080516020614376833981519152606060043592a39050610d1d565b6040513d87823e3d90fd5b50600182015460248035600584901b0101356001600160a01b0390811691161415610d18565b5060248035600583901b0101356001600160a01b0316600090815260128301602052604090205460ff16610d12565b8280fd5b9050610e5f576003610cbc911438610cb1565b634e487b7160e01b83526021600452602483fd5b5050600281146000610caa565b634e487b7160e01b84526021600452602484fd5b50346101ae57806003193601126101ae57602090604051908152f35b50346101ae5760203660031901126101ae576020612710610ed56007546004356136a3565b04604051908152f35b50346101ae57806003193601126101ae576020600754604051908152f35b50346101ae57806003193601126101ae5760206040516107d08152f35b50346101ae5760403660031901126101ae576040610f3561320a565b916004358152600080516020614336833981519152602052209060018060a01b0316600052602052602060ff604060002054166040519015158152f35b50346101ae57806003193601126101ae576000805160206142f6833981519152546040516001600160a01b039091168152602090f35b50346101ae57806003193601126101ae5760206040516000805160206143568339815191528152f35b50346101ae57806003193601126101ae57610fea613b1a565b6000805160206142f683398151915280546001600160a01b031981169091556000906001600160a01b03167f8be0079c531659141344cd1fd0a4f28419497f9722a3daafe3b4186f6b6457e08280a380f35b50346101ae57602080600319360112610774576006549060043561106360ff8416156133c3565b600160ff19809416176006558084526005825261108660ff604086205416613503565b611091331515613620565b80845260038252604084209160ff835460081c166004811015806113325760018214908115611325575b8115611312575b506110cd9150613400565b6012830192336000528382526110ea60ff60406000205416613444565b60018101546001600160a01b039190821633146112cd573360005284835260ff604060002054161561128857600b01549361112685151561365e565b6024838360025416604051928380926370a0823160e01b82523060048301525afa801561127d578691899161124c575b501061120757336000818152918452604091829020805488169055600254915163a9059cbb60e01b815260048101919091526024810186905287939290918391839160449183918891165af180156111fc576111b89184916111e55750613483565b60405193845283015242604083015260008051602061437683398151915260603393a36006541660065580f35b6102809150833d851161028657610278818361324a565b6040513d85823e3d90fd5b60405162461bcd60e51b815260048101849052601d60248201527f496e73756666696369656e7420636f6e74726163742062616c616e63650000006044820152606490fd5b809250858092503d8311611276575b611265818361324a565b810103126109d45785905138611156565b503d61125b565b6040513d8a823e3d90fd5b60405162461bcd60e51b815260048101849052601860248201527f4465706f73697420616c726561647920726566756e64656400000000000000006044820152606490fd5b60405162461bcd60e51b815260048101849052601c60248201527f57696e6e65722063616e6e6f7420726566756e64206465706f736974000000006044820152606490fd5b90506107285760036110cd9114386110c2565b50506002811460006110bb565b634e487b7160e01b87526021600452602487fd5b50346101ae5760403660031901126101ae57600435602480358284526020926005845261137e600160ff604088205416151514613503565b3315611a7f57808552600384526040852091825460ff8160081c1660048110156119fd576113ac901561332d565b6001600160a01b039033601082901c831614611a47573360005260128501875260ff6040600020541615611a105760ff1660028110156119fd57600190806119e9576113fd60068701544210613548565b036116ad57600184019283549382851661165e576009860154840361161a579082918995949360025416946040516370a0823160e01b81523360048201528a818b818a5afa90811561127d5788916115e7575b508561145d911015613588565b604051636eb1769f60e11b8152336004820152306024820152958a90879060449082905afa80156105b1578a9688916115ae575b50978592600a926114a9856115279a9b9c10156135d4565b33906001600160601b0360a01b1617905501556040519083825242868301527f51db8e23b3f4479b162fd48823b8402895442b8f6cfd94f66239391881ec7b6f60403393a35b6002546040516323b872dd60e01b81523360048201523060248201526044810193909352919485939190921691839182906064820190565b03925af19081156115a3578491611586575b5015611543578280f35b90601d6064926040519262461bcd60e51b845260048401528201527f4661696c656420746f207472616e736665722062696420616d6f756e740000006044820152fd5b61159d9150833d851161028657610278818361324a565b38611539565b6040513d86823e3d90fd5b98975050909487813d83116115e0575b6115c8818361324a565b810103126109d4579551949589958995919085611491565b503d6115be565b8098508b8092503d8311611613575b611600818361324a565b810103126109d45795518a969085611450565b503d6115f6565b60405162461bcd60e51b815260048101899052601c818901527f426964206d75737420657175616c2063757272656e74207072696365000000006044820152606490fd5b60405162461bcd60e51b8152600481018990526022818901527f44757463682061756374696f6e20616c7265616479206861732061206269646460448201526132b960f11b6064820152608490fd5b600c8493940193845480841115611999576008850154841061194957908189959493926118e1575b8260025416906040516370a0823160e01b81523360048201528a818b81865afa90811561127d5788916118ae575b5085611710911015613588565b604051636eb1769f60e11b8152336004820152306024820152958a87604481865afa801561127d578b978991611877575b50906117518760019310156135d4565b019184835416806117b1575b5050508361152795969755336001600160601b0360a01b8254161790556040519083825242868301527f51db8e23b3f4479b162fd48823b8402895442b8f6cfd94f66239391881ec7b6f60403393a36114ef565b60405163a9059cbb60e01b81526001600160a01b03919091166004820152602481019290925294979396929591949092839160449183915af190811561186c57899161184f575b501561180d579390928692889438808061175d565b606486886040519162461bcd60e51b83528160048401528201527f4661696c656420746f20726566756e642070726576696f7573206269646465726044820152fd5b6118669150883d8a1161028657610278818361324a565b386117f8565b6040513d8b823e3d90fd5b9850509587813d83116118a7575b61188f818361324a565b810103126109d45795518a968a969091611751611741565b503d611885565b8098508b8092503d83116118da575b6118c7818361324a565b810103126109d45795518a969085611703565b503d6118bd565b9091929394506118f460648204826134e0565b8410611905579088949392916116d5565b60405162461bcd60e51b8152600481018990526017818901527f42696420696e6372656d656e7420746f6f20736d616c6c0000000000000000006044820152606490fd5b60405162461bcd60e51b8152600481018990526023818901527f426964206d757374206265206174206c65617374207374617274696e6720707260448201526269636560e81b6064820152608490fd5b60405162461bcd60e51b8152600481018990526023818901527f426964206d75737420626520686967686572207468616e2063757272656e7420604482015262189a5960ea1b6064820152608490fd5b6119f860068701544210613548565b6113fd565b634e487b7160e01b885260216004528588fd5b60405162461bcd60e51b8152600481018890526010818801526f11195c1bdcda5d081b9bdd081c185a5960821b6044820152606490fd5b60405162461bcd60e51b8152600481018890526011818801527014d95b1b195c8818d85b9b9bdd08189a59607a1b6044820152606490fd5b60405162461bcd60e51b81526004810185905260168185015275496e76616c696420626964646572206164647265737360501b6044820152606490fd5b50346101ae5760203660031901126101ae5760043581526003602052604081209081546101205260018060a01b036001830154169160018060a01b03600282015416916003820154936040519382956004850154611b1981613288565b8088529060018116908115611d0e5750600114611cd4575b508585969703611b41908861324a565b6005850154610100526006850154966007860154600887015490600988015492600a89015494600b8a015496600c8b015498600d8c01549a600e8d01549c600f01549d6010810154608052601181015460a0526013015460e05260405160c05260c0516101205160ff1690611bb5916132c2565b6101205160081c60ff1660041115611cc0575090611c2193929160ff6101205160081c16602060c051015260018060a01b036101205160101c16604060c0510152606060c0510152608060c051015260a060c05101526102c060c0805101526102c060c0510190613308565b996101005160e060c051015261010060c051015261012060c051015261014060c051015261016060c051015261018060c05101526101a060c05101526101c060c05101526101e060c051015261020060c051015261022060c051015260805161024060c051015260a05161026060c051015260ff60e05116151561028060c051015260ff60e05160081c1615156102a060c051015260c051900360c051f35b634e487b7160e01b81526021600452602490fd5b96506004850184526020842084905b888210611cf857508601602001965085611b31565b6001816020925483858c01015201910190611ce3565b60ff19166020808a019190915291151560051b88019091019750869050611b31565b50346101ae57806003193601126101ae577f00000000000000000000000000000000000000000000000000000000000000006001600160a01b03163003611d9b5760206040517f360894a13ba1a3210667c828492db98dca3e2076cc3735a920a3ca505d382bbc8152f35b60405163703e46dd60e11b8152600490fd5b5060403660031901126101ae57611dc2613220565b602491823567ffffffffffffffff81116107745736602382011215610774578060040135611def8161326c565b93611dfd604051958661324a565b818552602091828601933688838301011161200157818692898693018737870101526001600160a01b037f00000000000000000000000000000000000000000000000000000000000000008116308114908115611fd3575b50611d9b57611e6261382a565b8116946040516352d1902d60e01b815283816004818a5afa869181611fa0575b50611e9f57604051634c9c8ce360e01b8152600481018890528890fd5b8690887f360894a13ba1a3210667c828492db98dca3e2076cc3735a920a3ca505d382bbc91828103611f8b5750843b15611f75575080546001600160a01b031916821790556040518692917fbc7cd75a20ee27fd9adebab32041f755214dbc6bffa90cc0225b39da2e5c2d3b8480a2815115611f57575061037a9482915190845af4903d15611f4e573d611f328161326c565b90611f40604051928361324a565b81528581943d92013e614292565b60609250614292565b94505050505034611f66575080f35b63b398979f60e01b8152600490fd5b604051634c9c8ce360e01b815260048101849052fd5b60405190632a87526960e21b82526004820152fd5b9091508481813d8311611fcc575b611fb8818361324a565b81010312611fc857519038611e82565b8680fd5b503d611fae565b9050817f360894a13ba1a3210667c828492db98dca3e2076cc3735a920a3ca505d382bbc5416141538611e55565b8580fd5b50346101ae5760403660031901126101ae5761201f613220565b6024356001600160a01b0381169190829003610e48577ff0c57e16840df040f15088dc2f81fe391c3923bec73e23a9662efc9c229c6a0091825460ff8160401c16159267ffffffffffffffff8216801590816121d3575b60011490816121c9575b1590816121c0575b506121ae5767ffffffffffffffff198216600117855561212f918461218f575b506120b1614251565b6120b9614251565b6120c1614251565b6120ca816137b6565b85600080516020614356833981519152808252600080516020614336833981519152602052600160408320019082825492557fbd79b86ffe0ab8e8776151514217cd7cacd52c909f66475c3af44e129f0b00ff8380a4612129816138c5565b50613960565b506001600160601b0360a01b60025416176002556101f4600755612151575080f35b68ff00000000000000001981541690557fc7f505b2f371ae2175ee4913f4499e1f2633a7b5936321eed1cdaeb6115181d2602060405160018152a180f35b68ffffffffffffffffff191668010000000000000001178555386120a8565b60405163f92ee8a960e01b8152600490fd5b90501538612088565b303b159150612080565b859150612076565b50346101ae576101003660031901126101ae57600260043510156101ae576084356001600160a01b0381168103610774576001600160a01b03811615612c0a5760643515612bc55760243515612b7257600a60243502906024358204600a03612b5e576064820415612b0b576040516331a9108f60e11b815260a43560048201526020816024816001600160a01b0386165afa9081156115a3578491612aec575b50336001600160a01b0390911603612aa75760405163e985e9c560e01b81523360048201523060248201526020816044816001600160a01b0386165afa9081156115a3578491612a88575b508015612a12575b156129bb5782916004356128265760c4356127c95760e4356127695760243560443511612714575b6004549160001983146127005760018301600455600183018552600560205260408520600160ff19825416179055600360205260408520936107145783546001600160b01b03191660043560ff16173360101b62010000600160b01b03161784556001840180546001600160a01b03199081169091556002850180549091166001600160a01b03831617905560a435600385015542600585018190556123a090606435906134e0565b60068501556064803560078601556024356008860181905560098601558204600b8501556004356126dd5784600c850155604435600d8501555b60405163c87b56dd60e01b815260a43560048201529385856024816001600160a01b0386165afa94851561099f57869561264f575b50845167ffffffffffffffff811161263b5761242e6004830154613288565b601f81116125f7575b50806020601f821160011461258d578891612582575b508160011b916000199060031b1c19161760048201555b6001600160a01b0382163b15612001576040516323b872dd60e01b815233600482015230602482015260a43560448201528681606481836001600160a01b0388165af180156105b15761254a575b509060067f52c2ebf7717929b203b5420cb526ecad2c2032e4d9b42e750cd1ab69be8ffc1792015460646124f96040519761012060a4358a528060208b0152890190613308565b94612509604089016004356132c2565b60243560608901526044356080890152813560a08901520460c08701524260e08701526101008601526001600160a01b03169333936001019281900390a480f35b7f52c2ebf7717929b203b5420cb526ecad2c2032e4d9b42e750cd1ab69be8ffc17929196612579600692613236565b969192506124b2565b90508601513861244d565b91506004830188526020882088925b601f19831684106125df576001935082601f198116106125c6575b5050811b016004820155612464565b88015160001960f88460031b161c1916905538806125b7565b8881015182556020938401936001909201910161259c565b60048301885260208820601f830160051c810160208410612634575b601f830160051c82018110612629575050612437565b898155600101612613565b5080612613565b634e487b7160e01b87526041600452602487fd5b9094503d908187823e612662828261324a565b6020818381010312611fc85780519067ffffffffffffffff82116126d957828101601f8383010112156126d957818101519061269d8261326c565b936126ab604051958661324a565b82855281016020838584010101116126d55760206126ce938186019201016132e5565b933861240f565b8880fd5b8780fd5b604435600e85015560c435600f85015560e43560108501554260118501556123da565b634e487b7160e01b85526011600452602485fd5b60405162461bcd60e51b815260206004820152602760248201527f52657365727665207072696365206d757374206265203c3d207374617274696e6044820152666720707269636560c81b6064820152608490fd5b60405162461bcd60e51b815260206004820152603260248201527f456e676c6973682061756374696f6e2073686f756c64206e6f74206861766520604482015271191958dc995b595b9d081a5b9d195c9d985b60721b6064820152608490fd5b60405162461bcd60e51b815260206004820152602f60248201527f456e676c6973682061756374696f6e2073686f756c64206e6f7420686176652060448201526e1c1c9a58d948191958dc995b595b9d608a1b6064820152608490fd5b839250600019600435016122f75760c435156129665760e4351561290e5760e435606435106128b957604435602435116122f75760405162461bcd60e51b815260206004820152603160248201527f5374617274696e67207072696365206d7573742062652067726561746572207460448201527068616e206d696e696d756d20707269636560781b6064820152608490fd5b60405162461bcd60e51b815260206004820152602760248201527f4475726174696f6e20746f6f2073686f727420666f722070726963652064656360448201526672656d656e747360c81b6064820152608490fd5b60405162461bcd60e51b815260206004820152602a60248201527f44757463682061756374696f6e206d75737420686176652064656372656d656e6044820152691d081a5b9d195c9d985b60b21b6064820152608490fd5b60405162461bcd60e51b815260206004820152602760248201527f44757463682061756374696f6e206d757374206861766520707269636520646560448201526618dc995b595b9d60ca1b6064820152608490fd5b60405162461bcd60e51b815260206004820152602960248201527f436f6e7472616374206d75737420626520617070726f76656420746f207472616044820152681b9cd9995c8813919560ba1b6064820152608490fd5b5060405163020604bf60e21b815260a43560048201526020816024816001600160a01b0386165afa9081156115a3578491612a59575b506001600160a01b031630146122cf565b612a7b915060203d602011612a81575b612a73818361324a565b8101906134c1565b38612a48565b503d612a69565b612aa1915060203d60201161028657610278818361324a565b386122c7565b60405162461bcd60e51b815260206004820152601760248201527f43616c6c6572206d757374206f776e20746865204e46540000000000000000006044820152606490fd5b612b05915060203d602011612a8157612a73818361324a565b3861227c565b60405162461bcd60e51b815260206004820152602560248201527f4465706f73697420616d6f756e74206d75737420626520677265617465722074604482015264068616e20360dc1b6064820152608490fd5b634e487b7160e01b83526011600452602483fd5b60405162461bcd60e51b815260206004820152602560248201527f5374617274696e67207072696365206d75737420626520677265617465722074604482015264068616e20360dc1b6064820152608490fd5b60405162461bcd60e51b815260206004820152601f60248201527f4475726174696f6e206d7573742062652067726561746572207468616e2030006044820152606490fd5b60405162461bcd60e51b815260206004820152601c60248201527f496e76616c6964204e465420636f6e74726163742061646472657373000000006044820152606490fd5b50346101ae5760203660031901126101ae57600435612c6c61382a565b6107d08111612caf5760407f14914da2bf76024616fbe1859783fcd4dbddcb179b1f3a854949fbf920dcb95791600754908060075582519182526020820152a180f35b60405162461bcd60e51b815260206004820152601160248201527008ccaca40e4c2e8ca40e8dede40d0d2ced607b1b6044820152606490fd5b50346101ae5760403660031901126101ae57612d0261320a565b336001600160a01b03821603612d1e5761037a90600435613a97565b60405163334bd91960e11b8152600490fd5b50346101ae576020806003193601126107745760065490600435612d5760ff8416156133c3565b60ff199283166001176006558084526003825260408420805460081c60ff166004811015806113325760018214908115612ece575b8115612ebb575b50612d9e9150613400565b60128101338652808452612db860ff604088205416613444565b60018201546001600160a01b03919082163314612e7657338088529085526040808820805488169055600254600b949094018054915163a9059cbb60e01b815260048101939093526024830191909152879390928691839160449183918891165af180156111fc57612e30918491612e5f5750613483565b549260405193845283015242604083015260008051602061437683398151915260603393a36006541660065580f35b6102809150863d881161028657610278818361324a565b60405162461bcd60e51b815260048101869052601e60248201527f57696e6e65722063616e6e6f74207769746864726177206465706f73697400006044820152606490fd5b9050610728576003612d9e911438612d93565b50506002811486612d8c565b50346101ae5760403660031901126101ae5761037a600435612efa61320a565b90808452600080516020614336833981519152602052612f206001604086200154613892565b613a10565b50346101ae57602080600319360112610774576004358083526003825260408320546001600160a01b039060101c811633148015613124575b156130ee578184526003835260408420805460ff8160081c16600481101561133257612f8a901561332d565b61030061ff001982161782556001820190838254169081613005575b8787876040519160408352601660408401527522b6b2b933b2b731bc9031b0b731b2b63630ba34b7b760511b606084015242908301527ff72c35273deadb2eb7b58020e76f74502cefa4e2386f388eb2a24b6dd76b550d60803393a380f35b60ff166002811015610aae57869392919061309857506002549054600c929092015460405163a9059cbb60e01b81529285166001600160a01b03166004840152602483015290928391168187816044810103925af180156115a35761307191859161307b575b50613387565b3880808080612fa6565b6130929150843d861161028657610278818361324a565b3861306b565b6002546009939093015460405163a9059cbb60e01b81526001600160a01b0392909216600483015260248201529384926044925083918991165af180156115a3576130e991859161307b5750613387565b613071565b60405162461bcd60e51b815260048101849052600e60248201526d139bdd08185d5d1a1bdc9a5e995960921b6044820152606490fd5b506000805160206143568339815191528452600080516020614336833981519152835260408420338552835260ff604085205416612f5e565b50346101ae57806003193601126101ae576020600454604051908152f35b50346101ae5760203660031901126101ae576001604060209260043581526000805160206143368339815191528452200154604051908152f35b9050346107745760203660031901126107745760043563ffffffff60e01b8116809103610e485760209250637965db0b60e01b81149081156131f9575b5015158152f35b6301ffc9a760e01b149050386131f2565b602435906001600160a01b03821682036109d457565b600435906001600160a01b03821682036109d457565b67ffffffffffffffff8111610bda57604052565b90601f8019910116810190811067ffffffffffffffff821117610bda57604052565b67ffffffffffffffff8111610bda57601f01601f191660200190565b90600182811c921680156132b8575b60208310146132a257565b634e487b7160e01b600052602260045260246000fd5b91607f1691613297565b9060028210156132cf5752565b634e487b7160e01b600052602160045260246000fd5b60005b8381106132f85750506000910152565b81810151838201526020016132e8565b90602091613321815180928185528580860191016132e5565b601f01601f1916010190565b1561333457565b60405162461bcd60e51b815260206004820152601360248201527241756374696f6e206e6f74206f6e676f696e6760681b6044820152606490fd5b908160209103126109d4575180151581036109d45790565b1561338e57565b60405162461bcd60e51b815260206004820152600d60248201526c1499599d5b990819985a5b1959609a1b6044820152606490fd5b156133ca57565b60405162461bcd60e51b815260206004820152600e60248201526d1499595b9d1c985b9d0818d85b1b60921b6044820152606490fd5b1561340757565b60405162461bcd60e51b815260206004820152601560248201527441756374696f6e207374696c6c206f6e676f696e6760581b6044820152606490fd5b1561344b57565b60405162461bcd60e51b815260206004820152601060248201526f139bc819195c1bdcda5d08199bdd5b9960821b6044820152606490fd5b1561348a57565b60405162461bcd60e51b815260206004820152600f60248201526e151c985b9cd9995c8819985a5b1959608a1b6044820152606490fd5b908160209103126109d457516001600160a01b03811681036109d45790565b919082018092116134ed57565b634e487b7160e01b600052601160045260246000fd5b1561350a57565b60405162461bcd60e51b8152602060048201526016602482015275105d58dd1a5bdb88191bd95cc81b9bdd08195e1a5cdd60521b6044820152606490fd5b1561354f57565b60405162461bcd60e51b8152602060048201526011602482015270105d58dd1a5bdb881a185cc8195b991959607a1b6044820152606490fd5b1561358f57565b60405162461bcd60e51b815260206004820152601a60248201527f496e73756666696369656e7420746f6b656e2062616c616e63650000000000006044820152606490fd5b156135db57565b60405162461bcd60e51b815260206004820152601c60248201527f496e73756666696369656e7420746f6b656e20616c6c6f77616e6365000000006044820152606490fd5b1561362757565b60405162461bcd60e51b815260206004820152600f60248201526e496e76616c6964206164647265737360881b6044820152606490fd5b1561366557565b60405162461bcd60e51b8152602060048201526016602482015275125b9d985b1a590819195c1bdcda5d08185b5bdd5b9d60521b6044820152606490fd5b818102929181159184041417156134ed57565b919082039182116134ed57565b60009081526003602052604081209060ff82541660028110156137a257600103613769576006820154421015613761576137016011830154426136b6565b90601083015490811561374d57509061372091600f84015491046136a3565b6008820154600e61373183836136b6565b9301548093106137485761374592506136b6565b90565b505090565b634e487b7160e01b81526012600452602490fd5b506009015490565b60405162461bcd60e51b81526020600482015260116024820152702737ba10223aba31b41030bab1ba34b7b760791b6044820152606490fd5b634e487b7160e01b82526021600452602482fd5b6001600160a01b03908116908115613811576000805160206142f683398151915280546001600160a01b031981168417909155167f8be0079c531659141344cd1fd0a4f28419497f9722a3daafe3b4186f6b6457e0600080a3565b604051631e4fbdf760e01b815260006004820152602490fd5b3360009081527fb16e88c42fd4e48df2dd6a2eabd6bc9aec654ec170056b470819f8892cc6431c60205260409020546000805160206143568339815191529060ff16156138745750565b6044906040519063e2517d3f60e01b82523360048301526024820152fd5b8060005260008051602061433683398151915260205260406000203360005260205260ff60406000205416156138745750565b6001600160a01b031660008181527fb7db2dd08fcb62d0c9e08c51941cae53c267786a0b75803fb7960902fc8ef97d60205260408120549091906000805160206143368339815191529060ff16613748578280526020526040822081835260205260408220600160ff1982541617905533917f2f8788117e7eff1d82e926ec794901d17c78024a50270940304540a733656f0d8180a4600190565b6001600160a01b031660008181527fb16e88c42fd4e48df2dd6a2eabd6bc9aec654ec170056b470819f8892cc6431c6020526040812054909190600080516020614356833981519152906000805160206143368339815191529060ff16613a0a578184526020526040832082845260205260408320600160ff198254161790557f2f8788117e7eff1d82e926ec794901d17c78024a50270940304540a733656f0d339380a4600190565b50505090565b9060009180835260008051602061433683398151915280602052604084209260018060a01b03169283855260205260ff60408520541615600014613a0a578184526020526040832082845260205260408320600160ff198254161790557f2f8788117e7eff1d82e926ec794901d17c78024a50270940304540a733656f0d339380a4600190565b9060009180835260008051602061433683398151915280602052604084209260018060a01b03169283855260205260ff604085205416600014613a0a57818452602052604083208284526020526040832060ff1981541690557ff6391f5c32d9c69d2a47ea670b442974b53935d1edc7fd64eb21e047a839171b339380a4600190565b6000805160206142f6833981519152546001600160a01b03163303613b3b57565b60405163118cdaa760e01b8152336004820152602490fd5b906000828152602092600384526040918281209485549560ff8760081c16926004938481101561423e57613b87901561332d565b60029760ff81168981101561422b5780613ed6575050600c82018054600d84015411613e03576101009161ff00199183838654161785555495600a85019a878c55613be2612710613bda6007548b6136a3565b0480996136b6565b9560018060a01b03968783830154169660018301978989541690600385015491813b156126d5578f516323b872dd60e01b815230818a019081526001600160a01b03909216602083015260408201939093528891839182908490829060600103925af18015613df957928b928f979695928995613dd5575b506013830180549a909a1617895584549154965163a9059cbb60e01b80825260109890981c8c166001600160a01b031687820190815260208101929092529384928c1691839190829060400103925af18015613dcb579285898e948d9897948d97613dae575b50541692613d008b6000805160206142f683398151915254169551988996879586948552840160209093929193604081019460018060a01b031681520152565b03925af1908115613da35750927faf7c505ee772ec188af7067e1f73db08ab028e3d564273442b907742b9c41fa0999a9288959260008051602061431683398151915295613d86575b50805460ff1916600117905554915488516001600160a01b03929093169190911682526020820152426040820152606090a28351928352820152a1565b613d9c90883d8a1161028657610278818361324a565b5038613d49565b8951903d90823e3d90fd5b613dc490883d8a1161028657610278818361324a565b5038613cc0565b8c513d87823e3d90fd5b909350613de791949295969750613236565b612001578c94939286928b9238613c5a565b8e513d89823e3d90fd5b5092919493959661ff00199261020084845416179182845560018060a01b0380918501541690600385015493823b156126d95788516323b872dd60e01b8152309481019485526001600160a01b0360109290921c9092161660208401526040830193909352859183919082908490829060600103925af18015613ecc57613eb8575b506013018054909116610100179055815181815292830152429082015260008051602061431683398151915290606090a2565b613ec28491613236565b610e485738613e85565b85513d86823e3d90fd5b92989092600114613eed575b505050505050509050565b6001890180546001600160a01b0394919391908516151580614219575b1561414a57506101009561ff00199287848d5416178c5560098c01549b8c98600a82019d8e55613f4a612710613f426007548d6136a3565b04809b6136b6565b908884840154168989541690600385015491813b156126d5578f516323b872dd60e01b815230818a019081526001600160a01b03909216602083015260408201939093528891839182908490829060600103925af18015613df957928b928f979695928995614126575b506013830180549a909a1617895584549154965163a9059cbb60e01b80825260109890981c8c166001600160a01b031687820190815260208101929092529384928c1691839190829060400103925af18015613dcb579285898e948d9897948d97614109575b5054169261405a8b6000805160206142f683398151915254169551988996879586948552840160209093929193604081019460018060a01b031681520152565b03925af1908115613da35750927faf7c505ee772ec188af7067e1f73db08ab028e3d564273442b907742b9c41fa0999a92889592600080516020614316833981519152956140ec575b50805460ff1916600117905554915488516001600160a01b03929093169190911682526020820152426040820152606090a28351928352820152a15b8038808080808080613ee2565b61410290883d8a1161028657610278818361324a565b50386140a3565b61411f90883d8a1161028657610278818361324a565b503861401a565b90935061413891949295969750613236565b612001578c94939286928b9238613fb4565b94979698999380919692935061020061ff001980971617938486558501541690600385015493823b156126d95788516323b872dd60e01b8152309481019485526001600160a01b0360109290921c9092161660208401526040830193909352859183919082908490829060600103925af18015613ecc57916060959391600080516020614316833981519152979593614201575b5060136101009101918254161790558151928184528301524290820152a26140df565b6101009193614211601392613236565b9391506141de565b5060098b0154600e8c01541115613f0a565b634e487b7160e01b835260218652602483fd5b634e487b7160e01b825260218552602482fd5b60ff7ff0c57e16840df040f15088dc2f81fe391c3923bec73e23a9662efc9c229c6a005460401c161561428057565b604051631afcd79f60e31b8152600490fd5b906142b957508051156142a757805190602001fd5b60405163d6bda27560e01b8152600490fd5b815115806142ec575b6142ca575090565b604051639996b31560e01b81526001600160a01b039091166004820152602490fd5b50803b156142c256fe9016d09d72d40fdae2fd8ceac6b6234c7706214fd39c1cd1e609a0528c199300e9ba83469fc8ee4260dd274fd43b5a54f2df813ad21c4637d53084d1f3866b3702dd7bc7dec4dceedda775e58dd541e08a116c6c53815c0bd028192f7b626800a49807205ce4d355092ef5a8a18f56e8913cf4a201fbe287825b095693c2177564e676b2acd82421805608cd68eb59f456bf91b6fdb7946e8a43f5ca81513c7aa26469706673582212202f5c544020ab5cebdd83c51a441d92b3972bf2d04462f1e5250d102ae1bcfcc864736f6c63430008160033",
  "linkReferences": {},
  "deployedLinkReferences": {}
}