{
  "_format": "hh-sol-artifact-1",
  "contractName": "DANFT",
  "sourceName": "contracts/DANFT.sol",
  "abi": [
    {
      "inputs": [
        {
          "internalType": "address",
          "name": "owner",
          "type": "address"
        }
      ],
      "stateMutability": "nonpayable",
      "type": "constructor"
    },
    {
      "inputs": [
        {
          "internalType": "address",
          "name": "sender",
          "type": "address"
        },
        {
          "internalType": "uint256",
          "name": "tokenId",
          "type": "uint256"
        },
        {
          "internalType": "address",
          "name": "owner",
          "type": "address"
        }
      ],
      "name": "ERC721IncorrectOwner",
      "type": "error"
    },
    {
      "inputs": [
        {
          "internalType": "address",
          "name": "operator",
          "type": "address"
        },
        {
          "internalType": "uint256",
          "name": "tokenId",
          "type": "uint256"
        }
      ],
      "name": "ERC721InsufficientApproval",
      "type": "error"
    },
    {
      "inputs": [
        {
          "internalType": "address",
          "name": "approver",
          "type": "address"
        }
      ],
      "name": "ERC721InvalidApprover",
      "type": "error"
    },
    {
      "inputs": [
        {
          "internalType": "address",
          "name": "operator",
          "type": "address"
        }
      ],
      "name": "ERC721InvalidOperator",
      "type": "error"
    },
    {
      "inputs": [
        {
          "internalType": "address",
          "name": "owner",
          "type": "address"
        }
      ],
      "name": "ERC721InvalidOwner",
      "type": "error"
    },
    {
      "inputs": [
        {
          "internalType": "address",
          "name": "receiver",
          "type": "address"
        }
      ],
      "name": "ERC721InvalidReceiver",
      "type": "error"
    },
    {
      "inputs": [
        {
          "internalType": "address",
          "name": "sender",
          "type": "address"
        }
      ],
      "name": "ERC721InvalidSender",
      "type": "error"
    },
    {
      "inputs": [
        {
          "internalType": "uint256",
          "name": "tokenId",
          "type": "uint256"
        }
      ],
      "name": "ERC721NonexistentToken",
      "type": "error"
    },
    {
      "inputs": [
        {
          "internalType": "address",
          "name": "owner",
          "type": "address"
        }
      ],
      "name": "OwnableInvalidOwner",
      "type": "error"
    },
    {
      "inputs": [
        {
          "internalType": "address",
          "name": "account",
          "type": "address"
        }
      ],
      "name": "OwnableUnauthorizedAccount",
      "type": "error"
    },
    {
      "anonymous": false,
      "inputs": [
        {
          "indexed": true,
          "internalType": "address",
          "name": "owner",
          "type": "address"
        },
        {
          "indexed": true,
          "internalType": "address",
          "name": "approved",
          "type": "address"
        },
        {
          "indexed": true,
          "internalType": "uint256",
          "name": "tokenId",
          "type": "uint256"
        }
      ],
      "name": "Approval",
      "type": "event"
    },
    {
      "anonymous": false,
      "inputs": [
        {
          "indexed": true,
          "internalType": "address",
          "name": "owner",
          "type": "address"
        },
        {
          "indexed": true,
          "internalType": "address",
          "name": "operator",
          "type": "address"
        },
        {
          "indexed": false,
          "internalType": "bool",
          "name": "approved",
          "type": "bool"
        }
      ],
      "name": "ApprovalForAll",
      "type": "event"
    },
    {
      "anonymous": false,
      "inputs": [
        {
          "indexed": true,
          "internalType": "uint256",
          "name": "tokenId",
          "type": "uint256"
        },
        {
          "indexed": true,
          "internalType": "address",
          "name": "to",
          "type": "address"
        },
        {
          "indexed": false,
          "internalType": "string",
          "name": "imageURI",
          "type": "string"
        }
      ],
      "name": "NFTMinted",
      "type": "event"
    },
    {
      "anonymous": false,
      "inputs": [
        {
          "indexed": true,
          "internalType": "address",
          "name": "previousOwner",
          "type": "address"
        },
        {
          "indexed": true,
          "internalType": "address",
          "name": "newOwner",
          "type": "address"
        }
      ],
      "name": "OwnershipTransferred",
      "type": "event"
    },
    {
      "anonymous": false,
      "inputs": [
        {
          "indexed": true,
          "internalType": "address",
          "name": "from",
          "type": "address"
        },
        {
          "indexed": true,
          "internalType": "address",
          "name": "to",
          "type": "address"
        },
        {
          "indexed": true,
          "internalType": "uint256",
          "name": "tokenId",
          "type": "uint256"
        }
      ],
      "name": "Transfer",
      "type": "event"
    },
    {
      "inputs": [
        {
          "internalType": "address",
          "name": "to",
          "type": "address"
        },
        {
          "internalType": "uint256",
          "name": "tokenId",
          "type": "uint256"
        }
      ],
      "name": "approve",
      "outputs": [],
      "stateMutability": "nonpayable",
      "type": "function"
    },
    {
      "inputs": [
        {
          "internalType": "address",
          "name": "owner",
          "type": "address"
        }
      ],
      "name": "balanceOf",
      "outputs": [
        {
          "internalType": "uint256",
          "name": "",
          "type": "uint256"
        }
      ],
      "stateMutability": "view",
      "type": "function"
    },
    {
      "inputs": [
        {
          "internalType": "uint256",
          "name": "tokenId",
          "type": "uint256"
        }
      ],
      "name": "getApproved",
      "outputs": [
        {
          "internalType": "address",
          "name": "",
          "type": "address"
        }
      ],
      "stateMutability": "view",
      "type": "function"
    },
    {
      "inputs": [
        {
          "internalType": "address",
          "name": "user",
          "type": "address"
        }
      ],
      "name": "getMyTokens",
      "outputs": [
        {
          "components": [
            {
              "internalType": "uint256",
              "name": "tokenId",
              "type": "uint256"
            },
            {
              "internalType": "string",
              "name": "imageURI",
              "type": "string"
            }
          ],
          "internalType": "struct DANFT.TokenData[]",
          "name": "",
          "type": "tuple[]"
        }
      ],
      "stateMutability": "view",
      "type": "function"
    },
    {
      "inputs": [
        {
          "internalType": "address",
          "name": "owner",
          "type": "address"
        },
        {
          "internalType": "address",
          "name": "operator",
          "type": "address"
        }
      ],
      "name": "isApprovedForAll",
      "outputs": [
        {
          "internalType": "bool",
          "name": "",
          "type": "bool"
        }
      ],
      "stateMutability": "view",
      "type": "function"
    },
    {
      "inputs": [
        {
          "internalType": "string",
          "name": "imageURI",
          "type": "string"
        }
      ],
      "name": "mint",
      "outputs": [],
      "stateMutability": "nonpayable",
      "type": "function"
    },
    {
      "inputs": [],
      "name": "name",
      "outputs": [
        {
          "internalType": "string",
          "name": "",
          "type": "string"
        }
      ],
      "stateMutability": "view",
      "type": "function"
    },
    {
      "inputs": [],
      "name": "owner",
      "outputs": [
        {
          "internalType": "address",
          "name": "",
          "type": "address"
        }
      ],
      "stateMutability": "view",
      "type": "function"
    },
    {
      "inputs": [
        {
          "internalType": "uint256",
          "name": "tokenId",
          "type": "uint256"
        }
      ],
      "name": "ownerOf",
      "outputs": [
        {
          "internalType": "address",
          "name": "",
          "type": "address"
        }
      ],
      "stateMutability": "view",
      "type": "function"
    },
    {
      "inputs": [],
      "name": "renounceOwnership",
      "outputs": [],
      "stateMutability": "nonpayable",
      "type": "function"
    },
    {
      "inputs": [
        {
          "internalType": "address",
          "name": "from",
          "type": "address"
        },
        {
          "internalType": "address",
          "name": "to",
          "type": "address"
        },
        {
          "internalType": "uint256",
          "name": "tokenId",
          "type": "uint256"
        }
      ],
      "name": "safeTransferFrom",
      "outputs": [],
      "stateMutability": "nonpayable",
      "type": "function"
    },
    {
      "inputs": [
        {
          "internalType": "address",
          "name": "from",
          "type": "address"
        },
        {
          "internalType": "address",
          "name": "to",
          "type": "address"
        },
        {
          "internalType": "uint256",
          "name": "tokenId",
          "type": "uint256"
        },
        {
          "internalType": "bytes",
          "name": "data",
          "type": "bytes"
        }
      ],
      "name": "safeTransferFrom",
      "outputs": [],
      "stateMutability": "nonpayable",
      "type": "function"
    },
    {
      "inputs": [
        {
          "internalType": "address",
          "name": "operator",
          "type": "address"
        },
        {
          "internalType": "bool",
          "name": "approved",
          "type": "bool"
        }
      ],
      "name": "setApprovalForAll",
      "outputs": [],
      "stateMutability": "nonpayable",
      "type": "function"
    },
    {
      "inputs": [
        {
          "internalType": "bytes4",
          "name": "interfaceId",
          "type": "bytes4"
        }
      ],
      "name": "supportsInterface",
      "outputs": [
        {
          "internalType": "bool",
          "name": "",
          "type": "bool"
        }
      ],
      "stateMutability": "view",
      "type": "function"
    },
    {
      "inputs": [],
      "name": "symbol",
      "outputs": [
        {
          "internalType": "string",
          "name": "",
          "type": "string"
        }
      ],
      "stateMutability": "view",
      "type": "function"
    },
    {
      "inputs": [],
      "name": "tokenCounter",
      "outputs": [
        {
          "internalType": "uint256",
          "name": "",
          "type": "uint256"
        }
      ],
      "stateMutability": "view",
      "type": "function"
    },
    {
      "inputs": [
        {
          "internalType": "uint256",
          "name": "tokenId",
          "type": "uint256"
        }
      ],
      "name": "tokenURI",
      "outputs": [
        {
          "internalType": "string",
          "name": "",
          "type": "string"
        }
      ],
      "stateMutability": "view",
      "type": "function"
    },
    {
      "inputs": [
        {
          "internalType": "address",
          "name": "from",
          "type": "address"
        },
        {
          "internalType": "address",
          "name": "to",
          "type": "address"
        },
        {
          "internalType": "uint256",
          "name": "tokenId",
          "type": "uint256"
        }
      ],
      "name": "transferFrom",
      "outputs": [],
      "stateMutability": "nonpayable",
      "type": "function"
    },
    {
      "inputs": [
        {
          "internalType": "address",
          "name": "newOwner",
          "type": "address"
        }
      ],
      "name": "transferOwnership",
      "outputs": [],
      "stateMutability": "nonpayable",
      "type": "function"
    }
  ],
  "bytecode": "0x6080346200039357601f90601f19906001600160401b0390620017883881900385810185168301848111848210176200037d578392829160405283396020928391810103126200039357516001600160a01b0394858216939184900362000393576200006a62000398565b926200007562000398565b908451968488116200037d576000978854966001978881811c9116801562000372575b858210146200035e579081878493116200030b575b508490878311600114620002aa578b926200029e575b5050600019600383901b1c191690871b1788555b82519485116200028a5785548681811c911680156200027f575b838210146200026b5790818587969594931162000212575b5081938511600114620001ad5750508692620001a1575b5050600019600383901b1c191690821b1790555b80156200018857600680546001600160a01b03198116831790915560405193167f8be0079c531659141344cd1fd0a4f28419497f9722a3daafe3b4186f6b6457e08380a36009556113bd9081620003cb8239f35b604051631e4fbdf760e01b815260048101839052602490fd5b01519050388062000120565b869593929193168589528389209389905b828210620001f85750508411620001de575b505050811b01905562000134565b015160001960f88460031b161c19169055388080620001d0565b8484015186558897909501949384019390810190620001be565b9091929394508689528289208580880160051c82019285891062000261575b9188978a9297969594930160051c01915b8281106200025257505062000109565b8b815588975089910162000242565b9250819262000231565b634e487b7160e01b89526022600452602489fd5b90607f1690620000f1565b634e487b7160e01b88526041600452602488fd5b015190503880620000c3565b90848a9416918c8052868d20928d5b88828210620002f45750508411620002da575b505050811b018855620000d7565b015160001960f88460031b161c19169055388080620002cc565b8385015186558d97909501949384019301620002b9565b9091508a8052848b208780850160051c82019287861062000354575b918b91869594930160051c01915b82811062000345575050620000ad565b8d81558594508b910162000335565b9250819262000327565b634e487b7160e01b8b52602260045260248bfd5b90607f169062000098565b634e487b7160e01b600052604160045260246000fd5b600080fd5b60408051919082016001600160401b038111838210176200037d576040526005825264111053919560da1b602083015256fe6080604081815260048036101561001557600080fd5b600092833560e01c90816301ffc9a714610d9a5750806306fdde0314610ce9578063081812fc14610cae578063095ea7b314610bd25780631751659214610aaa57806323b872dd14610a9257806342842e0e14610a435780636352211e14610a1257806370a08231146109bd578063715018a6146109605780638da5cb5b1461093757806395d89b411461084c578063a22cb465146107af578063b88d4fde14610747578063c87b56dd146106a4578063d082e38114610685578063d85d3d27146101d8578063e985e9c5146101865763f2fde38b146100f457600080fd5b346101825760203660031901126101825761010d610e46565b9061011661135b565b6001600160a01b0391821692831561016c575050600654826bffffffffffffffffffffffff60a01b821617600655167f8be0079c531659141344cd1fd0a4f28419497f9722a3daafe3b4186f6b6457e08380a380f35b51631e4fbdf760e01b8152908101849052602490fd5b8280fd5b5050346101d457806003193601126101d45760ff816020936101a6610e46565b6101ae610e61565b6001600160a01b0391821683526005875283832091168252855220549151911615158152f35b5080fd5b5034610182576020806003193601126106815781359067ffffffffffffffff9384831161067d573660238401121561067d5761021e602493369085818801359101610f1c565b61022661135b565b80511561063b576009549133156106265782885260028452808820546001600160a01b031696871515806105f3575b338a526003865284838b209960019a8b8154019055818c5260028852848c20336bffffffffffffffffffffffff60a01b82541617905533907fddf252ad1be2c89b69c2b068fc378daa952ba7f163c4a11628f55a4df523b3ef8d80a46105dd5783895260088552818920908351918183116105cb576102d48154610f53565b92601f93848111610586575b5080888d8683116001146105225791610517575b50600019600383901b1c1916908b1b1790555b338a5260078652828a2091835161031d81610eac565b8681528781019386855280549068010000000000000000821015610505578c82018082558210156104f35790898e8e949381522090831b019051815501925180519283116104e15761036f8454610f53565b82811161049c575b508b8892841160011461041057927f06becd955c918828f6e985541acbf49cc842c9e9bd569fffc7698e721ef1357596949281926103db979592610405575b5050600019600383901b1c1916908b1b1790555b519182918683523396830190610e06565b0390a36009549160001983146103f45750500160095580f35b634e487b7160e01b85526011905283fd5b0151905038806103b6565b90918b9392601f1984168684528a8420935b8b828210610486575050916103db97959391857f06becd955c918828f6e985541acbf49cc842c9e9bd569fffc7698e721ef135759a9896941061046d575b505050811b0190556103ca565b015160001960f88460031b161c19169055388080610460565b8385015186558f97909501949384019301610422565b848d52888d208380860160051c8201928b87106104d8575b0160051c01908c908e5b8382106104cd57505050610377565b8155018c908e6104be565b925081926104b4565b634e487b7160e01b8c5260418a52888cfd5b634e487b7160e01b8e5260328c528a8efd5b634e487b7160e01b8e5260418c528a8efd5b9050860151386102f4565b908d9350601f1983168583528b8320925b8c8282106105695750508311610550575b5050811b019055610307565b88015160001960f88460031b161c191690553880610544565b91929495829194868d015181550194019201908e94939291610533565b828d52888d208580840160051c8201928b85106105c2575b0160051c01908c908e5b8382106105b7575050506102e0565b8155018c908e6105a8565b9250819261059e565b634e487b7160e01b8b5260418952878bfd5b81516339e3563760e11b81528088018a90528690fd5b600085815260046020526040902080546001600160a01b0319169055888a5260038652828a208054600019019055610255565b51633250574960e11b81528086018890528490fd5b815162461bcd60e51b81528086018490526019818601527f496d616765205552492063616e6e6f7420626520656d707479000000000000006044820152606490fd5b8580fd5b8380fd5b5050346101d457816003193601126101d4576020906009549051908152f35b50823461074457602091826003193601126101d457803580835260028452848320549091906001600160a01b031615610701575083826106ed926106fd94526008855220610f8d565b9251928284938452830190610e06565b0390f35b845162461bcd60e51b8152908101849052601f60248201527f55524920717565727920666f72206e6f6e6578697374656e7420746f6b656e006044820152606490fd5b80fd5b8382346101d45760803660031901126101d457610762610e46565b61076a610e61565b9060643567ffffffffffffffff81116107ab57366023820112156107ab576107a89381602461079e93369301359101610f1c565b91604435916111d1565b80f35b8480fd5b5090346101825780600319360112610182576107c9610e46565b90602435918215158093036107ab576001600160a01b03169283156108375750338452600560205280842083855260205280842060ff1981541660ff8416179055519081527f17307eab39ab6107e8899845ad3d59bd9653f200f220920489ca2b5937696c3160203392a380f35b836024925191630b61174360e31b8352820152fd5b82843461074457806003193601126107445781519182826001936001549461087386610f53565b91828552602096876001821691826000146109105750506001146108b4575b5050506106fd92916108a5910385610ede565b51928284938452830190610e06565b9190869350600183527fb10e2d527612073b26eecdfd717e6a320cf44b4afac2b0732d9fcbe2b7fa0cf65b8284106108f857505050820101816108a56106fd610892565b8054848a0186015288955087949093019281016108df565b60ff19168782015293151560051b860190930193508492506108a591506106fd9050610892565b5050346101d457816003193601126101d45760065490516001600160a01b039091168152602090f35b833461074457806003193601126107445761097961135b565b600680546001600160a01b0319811690915581906001600160a01b03167f8be0079c531659141344cd1fd0a4f28419497f9722a3daafe3b4186f6b6457e08280a380f35b509134610744576020366003190112610744576001600160a01b036109e0610e46565b169283156109fd5750806020938392526003845220549051908152f35b91516322718ad960e21b815291820152602490fd5b5091346107445760203660031901126107445750610a3260209235611320565b90516001600160a01b039091168152f35b509190346101d457610a5436610e77565b91835193602085019085821067ffffffffffffffff831117610a7f576107a8969750528584526111d1565b634e487b7160e01b875260418852602487fd5b8334610744576107a8610aa436610e77565b91611032565b508290346101d45760209081600319360112610182576001600160a01b03610ad0610e46565b168352600782528383209182549167ffffffffffffffff8311610bbf57509290845190610b02858260051b0183610ede565b8082528482018094845285842084915b838310610b8557505050508451938085019181865251809252858501868360051b8701019493965b838810610b475786860387f35b90919293948380610b74600193603f198b820301875285838b518051845201519181858201520190610e06565b970193019701969093929193610b3a565b6002886001928b9a97989a51610b9a81610eac565b85548152610ba9858701610f8d565b8382015281520192019201919096949396610b12565b634e487b7160e01b855260419052602484fd5b509034610182578060031936011261018257610bec610e46565b91602435610bf981611320565b33151580610c9b575b80610c72575b610c5c576001600160a01b039485169482918691167f8c5be1e5ebec7d5bd14f71427d1e84f3dd0314c0f7b2291e5b200ac8c7c3b9258880a48452602052822080546001600160a01b031916909117905580f35b835163a9fbf51f60e01b81523381850152602490fd5b506001600160a01b03811686526005602090815284872033885290528386205460ff1615610c08565b506001600160a01b038116331415610c02565b503461018257602036600319011261018257918260209335610ccf81611320565b50825283528190205490516001600160a01b039091168152f35b82843461074457806003193601126107445781519182828354610d0b81610f53565b9081845260209560019187600182169182600014610910575050600114610d3f575050506106fd92916108a5910385610ede565b91908693508280527f290decd9548b62a8d60345a988386fc84ba6bc95484008f6362f93160ef3e5635b828410610d8257505050820101816108a56106fd610892565b8054848a018601528895508794909301928101610d69565b92505034610182576020366003190112610182573563ffffffff60e01b811680910361018257602092506380ac58cd60e01b8114908115610df5575b8115610de4575b5015158152f35b6301ffc9a760e01b14905038610ddd565b635b5e139f60e01b81149150610dd6565b919082519283825260005b848110610e32575050826000602080949584010152601f8019910116010190565b602081830181015184830182015201610e11565b600435906001600160a01b0382168203610e5c57565b600080fd5b602435906001600160a01b0382168203610e5c57565b6060906003190112610e5c576001600160a01b03906004358281168103610e5c57916024359081168103610e5c579060443590565b6040810190811067ffffffffffffffff821117610ec857604052565b634e487b7160e01b600052604160045260246000fd5b90601f8019910116810190811067ffffffffffffffff821117610ec857604052565b67ffffffffffffffff8111610ec857601f01601f191660200190565b929192610f2882610f00565b91610f366040519384610ede565b829481845281830111610e5c578281602093846000960137010152565b90600182811c92168015610f83575b6020831014610f6d57565b634e487b7160e01b600052602260045260246000fd5b91607f1691610f62565b90604051918260008254610fa081610f53565b908184526020946001916001811690816000146110105750600114610fd1575b505050610fcf92500383610ede565b565b600090815285812095935091905b818310610ff8575050610fcf9350820101388080610fc0565b85548884018501529485019487945091830191610fdf565b92505050610fcf94925060ff191682840152151560051b820101388080610fc0565b6001600160a01b0391821692909183156111b857600092828452826020956002875260409684888820541696879133151580611122575b509060027fddf252ad1be2c89b69c2b068fc378daa952ba7f163c4a11628f55a4df523b3ef92846110ef575b858352600381528b8320805460010190558683525289812080546001600160a01b0319168517905580a416928383036110ce5750505050565b6064945051926364283d7b60e01b8452600484015260248301526044820152fd5b600087815260046020526040902080546001600160a01b0319169055848352600381528b83208054600019019055611095565b91939450915080611177575b1561113e57859291879138611069565b87868861115b576024915190637e27328960e01b82526004820152fd5b604491519063177e802f60e01b82523360048301526024820152fd5b50338714801561119c575b8061112e575085825260048152338589842054161461112e565b5086825260058152878220338352815260ff8883205416611182565b604051633250574960e11b815260006004820152602490fd5b6111dc838383611032565b813b6111e9575b50505050565b604051630a85bd0160e11b8082523360048301526001600160a01b03928316602483015260448201949094526080606482015260209592909116939092908390611237906084830190610e06565b039285816000958187895af18491816112e0575b506112ab575050503d6000146112a3573d61126581610f00565b906112736040519283610ede565b81528091843d92013e5b8051928361129e57604051633250574960e11b815260048101849052602490fd5b019050fd5b50606061127d565b919450915063ffffffff60e01b16036112c85750388080806111e3565b60249060405190633250574960e11b82526004820152fd5b9091508681813d8311611319575b6112f88183610ede565b810103126107ab57516001600160e01b0319811681036107ab57903861124b565b503d6112ee565b6000818152600260205260409020546001600160a01b0316908115611343575090565b60249060405190637e27328960e01b82526004820152fd5b6006546001600160a01b0316330361136f57565b60405163118cdaa760e01b8152336004820152602490fdfea2646970667358221220c86444b103377e48a35e25d651fd73b013cbb0b1975b501959a4fba8e93598d364736f6c63430008160033",
  "linkReferences": {},
  "deployedLinkReferences": {}
}