{
  "_format": "hh-sol-artifact-1",
  "contractName": "DANFT",
  "sourceName": "contracts/DANFT.sol",
  "abi": [
    {
      "inputs": [
        {
          "internalType": "address",
          "name": "owner",
          "type": "address"
        }
      ],
      "stateMutability": "nonpayable",
      "type": "constructor"
    },
    {
      "inputs": [
        {
          "internalType": "address",
          "name": "sender",
          "type": "address"
        },
        {
          "internalType": "uint256",
          "name": "tokenId",
          "type": "uint256"
        },
        {
          "internalType": "address",
          "name": "owner",
          "type": "address"
        }
      ],
      "name": "ERC721IncorrectOwner",
      "type": "error"
    },
    {
      "inputs": [
        {
          "internalType": "address",
          "name": "operator",
          "type": "address"
        },
        {
          "internalType": "uint256",
          "name": "tokenId",
          "type": "uint256"
        }
      ],
      "name": "ERC721InsufficientApproval",
      "type": "error"
    },
    {
      "inputs": [
        {
          "internalType": "address",
          "name": "approver",
          "type": "address"
        }
      ],
      "name": "ERC721InvalidApprover",
      "type": "error"
    },
    {
      "inputs": [
        {
          "internalType": "address",
          "name": "operator",
          "type": "address"
        }
      ],
      "name": "ERC721InvalidOperator",
      "type": "error"
    },
    {
      "inputs": [
        {
          "internalType": "address",
          "name": "owner",
          "type": "address"
        }
      ],
      "name": "ERC721InvalidOwner",
      "type": "error"
    },
    {
      "inputs": [
        {
          "internalType": "address",
          "name": "receiver",
          "type": "address"
        }
      ],
      "name": "ERC721InvalidReceiver",
      "type": "error"
    },
    {
      "inputs": [
        {
          "internalType": "address",
          "name": "sender",
          "type": "address"
        }
      ],
      "name": "ERC721InvalidSender",
      "type": "error"
    },
    {
      "inputs": [
        {
          "internalType": "uint256",
          "name": "tokenId",
          "type": "uint256"
        }
      ],
      "name": "ERC721NonexistentToken",
      "type": "error"
    },
    {
      "inputs": [
        {
          "internalType": "address",
          "name": "owner",
          "type": "address"
        }
      ],
      "name": "OwnableInvalidOwner",
      "type": "error"
    },
    {
      "inputs": [
        {
          "internalType": "address",
          "name": "account",
          "type": "address"
        }
      ],
      "name": "OwnableUnauthorizedAccount",
      "type": "error"
    },
    {
      "anonymous": false,
      "inputs": [
        {
          "indexed": true,
          "internalType": "address",
          "name": "owner",
          "type": "address"
        },
        {
          "indexed": true,
          "internalType": "address",
          "name": "approved",
          "type": "address"
        },
        {
          "indexed": true,
          "internalType": "uint256",
          "name": "tokenId",
          "type": "uint256"
        }
      ],
      "name": "Approval",
      "type": "event"
    },
    {
      "anonymous": false,
      "inputs": [
        {
          "indexed": true,
          "internalType": "address",
          "name": "owner",
          "type": "address"
        },
        {
          "indexed": true,
          "internalType": "address",
          "name": "operator",
          "type": "address"
        },
        {
          "indexed": false,
          "internalType": "bool",
          "name": "approved",
          "type": "bool"
        }
      ],
      "name": "ApprovalForAll",
      "type": "event"
    },
    {
      "anonymous": false,
      "inputs": [
        {
          "indexed": true,
          "internalType": "address",
          "name": "previousOwner",
          "type": "address"
        },
        {
          "indexed": true,
          "internalType": "address",
          "name": "newOwner",
          "type": "address"
        }
      ],
      "name": "OwnershipTransferred",
      "type": "event"
    },
    {
      "anonymous": false,
      "inputs": [
        {
          "indexed": true,
          "internalType": "address",
          "name": "from",
          "type": "address"
        },
        {
          "indexed": true,
          "internalType": "address",
          "name": "to",
          "type": "address"
        },
        {
          "indexed": true,
          "internalType": "uint256",
          "name": "tokenId",
          "type": "uint256"
        }
      ],
      "name": "Transfer",
      "type": "event"
    },
    {
      "inputs": [
        {
          "internalType": "address",
          "name": "to",
          "type": "address"
        },
        {
          "internalType": "uint256",
          "name": "tokenId",
          "type": "uint256"
        }
      ],
      "name": "approve",
      "outputs": [],
      "stateMutability": "nonpayable",
      "type": "function"
    },
    {
      "inputs": [
        {
          "internalType": "address",
          "name": "owner",
          "type": "address"
        }
      ],
      "name": "balanceOf",
      "outputs": [
        {
          "internalType": "uint256",
          "name": "",
          "type": "uint256"
        }
      ],
      "stateMutability": "view",
      "type": "function"
    },
    {
      "inputs": [
        {
          "internalType": "uint256",
          "name": "tokenId",
          "type": "uint256"
        }
      ],
      "name": "getApproved",
      "outputs": [
        {
          "internalType": "address",
          "name": "",
          "type": "address"
        }
      ],
      "stateMutability": "view",
      "type": "function"
    },
    {
      "inputs": [
        {
          "internalType": "address",
          "name": "owner",
          "type": "address"
        },
        {
          "internalType": "address",
          "name": "operator",
          "type": "address"
        }
      ],
      "name": "isApprovedForAll",
      "outputs": [
        {
          "internalType": "bool",
          "name": "",
          "type": "bool"
        }
      ],
      "stateMutability": "view",
      "type": "function"
    },
    {
      "inputs": [
        {
          "internalType": "address",
          "name": "to",
          "type": "address"
        },
        {
          "internalType": "uint256",
          "name": "tokenId",
          "type": "uint256"
        },
        {
          "internalType": "string",
          "name": "imageURI",
          "type": "string"
        }
      ],
      "name": "mint",
      "outputs": [],
      "stateMutability": "nonpayable",
      "type": "function"
    },
    {
      "inputs": [
        {
          "internalType": "string",
          "name": "imageURI",
          "type": "string"
        }
      ],
      "name": "mint",
      "outputs": [],
      "stateMutability": "nonpayable",
      "type": "function"
    },
    {
      "inputs": [],
      "name": "name",
      "outputs": [
        {
          "internalType": "string",
          "name": "",
          "type": "string"
        }
      ],
      "stateMutability": "view",
      "type": "function"
    },
    {
      "inputs": [],
      "name": "owner",
      "outputs": [
        {
          "internalType": "address",
          "name": "",
          "type": "address"
        }
      ],
      "stateMutability": "view",
      "type": "function"
    },
    {
      "inputs": [
        {
          "internalType": "uint256",
          "name": "tokenId",
          "type": "uint256"
        }
      ],
      "name": "ownerOf",
      "outputs": [
        {
          "internalType": "address",
          "name": "",
          "type": "address"
        }
      ],
      "stateMutability": "view",
      "type": "function"
    },
    {
      "inputs": [],
      "name": "renounceOwnership",
      "outputs": [],
      "stateMutability": "nonpayable",
      "type": "function"
    },
    {
      "inputs": [
        {
          "internalType": "address",
          "name": "from",
          "type": "address"
        },
        {
          "internalType": "address",
          "name": "to",
          "type": "address"
        },
        {
          "internalType": "uint256",
          "name": "tokenId",
          "type": "uint256"
        }
      ],
      "name": "safeTransferFrom",
      "outputs": [],
      "stateMutability": "nonpayable",
      "type": "function"
    },
    {
      "inputs": [
        {
          "internalType": "address",
          "name": "from",
          "type": "address"
        },
        {
          "internalType": "address",
          "name": "to",
          "type": "address"
        },
        {
          "internalType": "uint256",
          "name": "tokenId",
          "type": "uint256"
        },
        {
          "internalType": "bytes",
          "name": "data",
          "type": "bytes"
        }
      ],
      "name": "safeTransferFrom",
      "outputs": [],
      "stateMutability": "nonpayable",
      "type": "function"
    },
    {
      "inputs": [
        {
          "internalType": "address",
          "name": "operator",
          "type": "address"
        },
        {
          "internalType": "bool",
          "name": "approved",
          "type": "bool"
        }
      ],
      "name": "setApprovalForAll",
      "outputs": [],
      "stateMutability": "nonpayable",
      "type": "function"
    },
    {
      "inputs": [
        {
          "internalType": "bytes4",
          "name": "interfaceId",
          "type": "bytes4"
        }
      ],
      "name": "supportsInterface",
      "outputs": [
        {
          "internalType": "bool",
          "name": "",
          "type": "bool"
        }
      ],
      "stateMutability": "view",
      "type": "function"
    },
    {
      "inputs": [],
      "name": "symbol",
      "outputs": [
        {
          "internalType": "string",
          "name": "",
          "type": "string"
        }
      ],
      "stateMutability": "view",
      "type": "function"
    },
    {
      "inputs": [],
      "name": "tokenCounter",
      "outputs": [
        {
          "internalType": "uint256",
          "name": "",
          "type": "uint256"
        }
      ],
      "stateMutability": "view",
      "type": "function"
    },
    {
      "inputs": [
        {
          "internalType": "uint256",
          "name": "tokenId",
          "type": "uint256"
        }
      ],
      "name": "tokenURI",
      "outputs": [
        {
          "internalType": "string",
          "name": "",
          "type": "string"
        }
      ],
      "stateMutability": "view",
      "type": "function"
    },
    {
      "inputs": [
        {
          "internalType": "address",
          "name": "from",
          "type": "address"
        },
        {
          "internalType": "address",
          "name": "to",
          "type": "address"
        },
        {
          "internalType": "uint256",
          "name": "tokenId",
          "type": "uint256"
        }
      ],
      "name": "transferFrom",
      "outputs": [],
      "stateMutability": "nonpayable",
      "type": "function"
    },
    {
      "inputs": [
        {
          "internalType": "address",
          "name": "newOwner",
          "type": "address"
        }
      ],
      "name": "transferOwnership",
      "outputs": [],
      "stateMutability": "nonpayable",
      "type": "function"
    }
  ],
  "bytecode": "0x6080346200039357601f90601f19906001600160401b0390620016593881900385810185168301848111848210176200037d578392829160405283396020928391810103126200039357516001600160a01b0394858216939184900362000393576200006a62000398565b926200007562000398565b908451968488116200037d576000978854966001978881811c9116801562000372575b858210146200035e579081878493116200030b575b508490878311600114620002aa578b926200029e575b5050600019600383901b1c191690871b1788555b82519485116200028a5785548681811c911680156200027f575b838210146200026b5790818587969594931162000212575b5081938511600114620001ad5750508692620001a1575b5050600019600383901b1c191690821b1790555b80156200018857600680546001600160a01b03198116831790915560405193167f8be0079c531659141344cd1fd0a4f28419497f9722a3daafe3b4186f6b6457e08380a360085561128e9081620003cb8239f35b604051631e4fbdf760e01b815260048101839052602490fd5b01519050388062000120565b869593929193168589528389209389905b828210620001f85750508411620001de575b505050811b01905562000134565b015160001960f88460031b161c19169055388080620001d0565b8484015186558897909501949384019390810190620001be565b9091929394508689528289208580880160051c82019285891062000261575b9188978a9297969594930160051c01915b8281106200025257505062000109565b8b815588975089910162000242565b9250819262000231565b634e487b7160e01b89526022600452602489fd5b90607f1690620000f1565b634e487b7160e01b88526041600452602488fd5b015190503880620000c3565b90848a9416918c8052868d20928d5b88828210620002f45750508411620002da575b505050811b018855620000d7565b015160001960f88460031b161c19169055388080620002cc565b8385015186558d97909501949384019301620002b9565b9091508a8052848b208780850160051c82019287861062000354575b918b91869594930160051c01915b82811062000345575050620000ad565b8d81558594508b910162000335565b9250819262000327565b634e487b7160e01b8b52602260045260248bfd5b90607f169062000098565b634e487b7160e01b600052604160045260246000fd5b600080fd5b60408051919082016001600160401b038111838210176200037d576040526005825264111053919560da1b602083015256fe6080604081815260048036101561001557600080fd5b600092833560e01c90816301ffc9a7146109545750806306fdde03146108a3578063081812fc14610868578063095ea7b31461078c57806323b872dd1461077457806342842e0e146107455780636352211e1461071457806370a08231146106bf578063715018a6146106625780638da5cb5b1461063957806395d89b411461055d578063a22cb465146104c0578063b88d4fde1461044d578063c87b56dd1461030b578063d082e381146102ec578063d3fc986414610254578063d85d3d27146101d8578063e985e9c5146101865763f2fde38b146100f457600080fd5b346101825760203660031901126101825761010d610a00565b90610116610d8b565b6001600160a01b0391821692831561016c575050600654826bffffffffffffffffffffffff60a01b821617600655167f8be0079c531659141344cd1fd0a4f28419497f9722a3daafe3b4186f6b6457e08380a380f35b51631e4fbdf760e01b8152908101849052602490fd5b8280fd5b5050346101d457806003193601126101d45760ff816020936101a6610a00565b6101ae610a1b565b6001600160a01b0391821683526005875283832091168252855220549151911615158152f35b5080fd5b50823461025157602036600319011261025157813567ffffffffffffffff81116101d45761020c6102299136908501610b0d565b610214610d8b565b61022081511515610d04565b60085433610f02565b600854600019811461023e5760010160085580f35b506011602492634e487b7160e01b835252fd5b80fd5b8382346101d45760603660031901126101d45761026f610a00565b90602435916044359067ffffffffffffffff82116102e857836102986102b29336908601610b0d565b916102a1610d8b565b6102ad83511515610d04565b610f02565b6008548210156102c0578280f35b600182018092116102d5575060085581808280f35b634e487b7160e01b835260119052602482fd5b8480fd5b5050346101d457816003193601126101d4576020906008549051908152f35b509034610182576020918260031936011261044957803580855260028452828520549091906001600160a01b031615610406575083526007825280832081519384918181549061035a82610b2b565b92838652600192886001821691826000146103dc57505060011461039e575b858861039a8961038b848a0385610a98565b519282849384528301906109c0565b0390f35b87945081939291528383205b8284106103c4575050508201018161038b61039a38610379565b8054848a0186015288955087949093019281016103aa565b60ff19168882015294151560051b8701909401945085935061038b925061039a9150389050610379565b825162461bcd60e51b8152908101849052601f60248201527f55524920717565727920666f72206e6f6e6578697374656e7420746f6b656e006044820152606490fd5b8380fd5b8382346101d45760803660031901126101d457610468610a00565b610470610a1b565b6044359060643567ffffffffffffffff81116104bc57366023820112156104bc576104b9948160246104a793369301359101610ad6565b926104b3838383610b65565b33610db7565b80f35b8580fd5b5090346101825780600319360112610182576104da610a00565b90602435918215158093036102e8576001600160a01b03169283156105485750338452600560205280842083855260205280842060ff1981541660ff8416179055519081527f17307eab39ab6107e8899845ad3d59bd9653f200f220920489ca2b5937696c3160203392a380f35b836024925191630b61174360e31b8352820152fd5b82843461025157806003193601126102515781519182826001936001549461058486610b2b565b91828552602096876001821691826000146106125750506001146105b6575b50505061039a929161038b910385610a98565b9190869350600183527fb10e2d527612073b26eecdfd717e6a320cf44b4afac2b0732d9fcbe2b7fa0cf65b8284106105fa575050508201018161038b61039a6105a3565b8054848a0186015288955087949093019281016105e1565b60ff19168782015293151560051b8601909301935084925061038b915061039a90506105a3565b5050346101d457816003193601126101d45760065490516001600160a01b039091168152602090f35b833461025157806003193601126102515761067b610d8b565b600680546001600160a01b0319811690915581906001600160a01b03167f8be0079c531659141344cd1fd0a4f28419497f9722a3daafe3b4186f6b6457e08280a380f35b509134610251576020366003190112610251576001600160a01b036106e2610a00565b169283156106ff5750806020938392526003845220549051908152f35b91516322718ad960e21b815291820152602490fd5b509134610251576020366003190112610251575061073460209235610d50565b90516001600160a01b039091168152f35b5050346101d4576104b99061075936610a31565b9192519261076684610a66565b8584526104b3838383610b65565b8334610251576104b961078636610a31565b91610b65565b5090346101825780600319360112610182576107a6610a00565b916024356107b381610d50565b33151580610855575b8061082c575b610816576001600160a01b039485169482918691167f8c5be1e5ebec7d5bd14f71427d1e84f3dd0314c0f7b2291e5b200ac8c7c3b9258880a48452602052822080546001600160a01b031916909117905580f35b835163a9fbf51f60e01b81523381850152602490fd5b506001600160a01b03811686526005602090815284872033885290528386205460ff16156107c2565b506001600160a01b0381163314156107bc565b50346101825760203660031901126101825791826020933561088981610d50565b50825283528190205490516001600160a01b039091168152f35b828434610251578060031936011261025157815191828283546108c581610b2b565b90818452602095600191876001821691826000146106125750506001146108f95750505061039a929161038b910385610a98565b91908693508280527f290decd9548b62a8d60345a988386fc84ba6bc95484008f6362f93160ef3e5635b82841061093c575050508201018161038b61039a6105a3565b8054848a018601528895508794909301928101610923565b92505034610182576020366003190112610182573563ffffffff60e01b811680910361018257602092506380ac58cd60e01b81149081156109af575b811561099e575b5015158152f35b6301ffc9a760e01b14905038610997565b635b5e139f60e01b81149150610990565b919082519283825260005b8481106109ec575050826000602080949584010152601f8019910116010190565b6020818301810151848301820152016109cb565b600435906001600160a01b0382168203610a1657565b600080fd5b602435906001600160a01b0382168203610a1657565b6060906003190112610a16576001600160a01b03906004358281168103610a1657916024359081168103610a16579060443590565b6020810190811067ffffffffffffffff821117610a8257604052565b634e487b7160e01b600052604160045260246000fd5b90601f8019910116810190811067ffffffffffffffff821117610a8257604052565b67ffffffffffffffff8111610a8257601f01601f191660200190565b929192610ae282610aba565b91610af06040519384610a98565b829481845281830111610a16578281602093846000960137010152565b9080601f83011215610a1657816020610b2893359101610ad6565b90565b90600182811c92168015610b5b575b6020831014610b4557565b634e487b7160e01b600052602260045260246000fd5b91607f1691610b3a565b6001600160a01b039182169290918315610ceb57600092828452826020956002875260409684888820541696879133151580610c55575b509060027fddf252ad1be2c89b69c2b068fc378daa952ba7f163c4a11628f55a4df523b3ef9284610c22575b858352600381528b8320805460010190558683525289812080546001600160a01b0319168517905580a41692838303610c015750505050565b6064945051926364283d7b60e01b8452600484015260248301526044820152fd5b600087815260046020526040902080546001600160a01b0319169055848352600381528b83208054600019019055610bc8565b91939450915080610caa575b15610c7157859291879138610b9c565b878688610c8e576024915190637e27328960e01b82526004820152fd5b604491519063177e802f60e01b82523360048301526024820152fd5b503387148015610ccf575b80610c615750858252600481523385898420541614610c61565b5086825260058152878220338352815260ff8883205416610cb5565b604051633250574960e11b815260006004820152602490fd5b15610d0b57565b60405162461bcd60e51b815260206004820152601960248201527f496d616765205552492063616e6e6f7420626520656d707479000000000000006044820152606490fd5b6000818152600260205260409020546001600160a01b0316908115610d73575090565b60249060405190637e27328960e01b82526004820152fd5b6006546001600160a01b03163303610d9f57565b60405163118cdaa760e01b8152336004820152602490fd5b909192833b610dc8575b5050505050565b604051630a85bd0160e11b8082526001600160a01b039384166004830152938316602482015260448101919091526080606482015260209591909316939091908390610e189060848301906109c0565b039285816000958187895af1849181610ec2575b50610e8c575050503d600014610e84573d610e4681610aba565b90610e546040519283610a98565b81528091843d92013e5b80519283610e7f57604051633250574960e11b815260048101849052602490fd5b019050fd5b506060610e5e565b919450915063ffffffff60e01b1603610eaa57503880808080610dc1565b60249060405190633250574960e11b82526004820152fd5b9091508681813d8311610efb575b610eda8183610a98565b810103126102e857516001600160e01b0319811681036102e8579038610e2c565b503d610ed0565b9091604091825192610f1384610a66565b6000808552946001600160a01b039483861690811561124057828852602096600288528489205416948515158061120d575b838a52600389528484878c20986001998a8154019055828d5260028c52888d20826bffffffffffffffffffffffff60a01b8254161790557fddf252ad1be2c89b69c2b068fc378daa952ba7f163c4a11628f55a4df523b3ef8d80a46111f5573b6110cc575b505085526007845284209382519267ffffffffffffffff84116110b857610fd18654610b2b565b601f8111611072575b508491601f8511600114611013579394508492919083611008575b50501b916000199060031b1c1916179055565b015192503880610ff5565b86815285812093958591601f198316915b88838310611058575050501061103f575b505050811b019055565b015160001960f88460031b161c19169055388080611035565b858701518855909601959485019487935090810190611024565b868352858320601f860160051c8101918787106110ae575b601f0160051c019084905b8281106110a3575050610fda565b848155018490611095565b909150819061108a565b634e487b7160e01b82526041600452602482fd5b8396989492919795935189818061110b630a85bd0160e11b958683523360048401528b60248401528760448401526080606484015260848301906109c0565b03818a8d5af18791816111b1575b5061117b575050505050503d600014611173573d61113681610aba565b9061114384519283610a98565b81528091853d92013e5b8051938461116d578251633250574960e11b815260048101859052602490fd5b84925001fd5b50606061114d565b63ffffffff60e09a989597999394969a1b160361119a57503880610faa565b602490835190633250574960e11b82526004820152fd5b9091508a81813d83116111ee575b6111c98183610a98565b810103126111ea57516001600160e01b0319811681036111ea579038611119565b8780fd5b503d6111bf565b84516339e3563760e11b8152600481018a9052602490fd5b600085815260046020526040902080546001600160a01b0319169055868a5260038952858a208054600019019055610f45565b8351633250574960e11b815260048101899052602490fdfea2646970667358221220924daca1c65eb705cf2b026149d2f8cecc476bcac8c2d554591b2f7b3a715ade64736f6c63430008160033",
  "linkReferences": {},
  "deployedLinkReferences": {}
}