{
  "_format": "hh-sol-artifact-1",
  "contractName": "DANFT",
  "sourceName": "contracts/DANFT.sol",
  "abi": [
    {
      "inputs": [
        {
          "internalType": "address",
          "name": "owner",
          "type": "address"
        }
      ],
      "stateMutability": "nonpayable",
      "type": "constructor"
    },
    {
      "inputs": [
        {
          "internalType": "address",
          "name": "sender",
          "type": "address"
        },
        {
          "internalType": "uint256",
          "name": "tokenId",
          "type": "uint256"
        },
        {
          "internalType": "address",
          "name": "owner",
          "type": "address"
        }
      ],
      "name": "ERC721IncorrectOwner",
      "type": "error"
    },
    {
      "inputs": [
        {
          "internalType": "address",
          "name": "operator",
          "type": "address"
        },
        {
          "internalType": "uint256",
          "name": "tokenId",
          "type": "uint256"
        }
      ],
      "name": "ERC721InsufficientApproval",
      "type": "error"
    },
    {
      "inputs": [
        {
          "internalType": "address",
          "name": "approver",
          "type": "address"
        }
      ],
      "name": "ERC721InvalidApprover",
      "type": "error"
    },
    {
      "inputs": [
        {
          "internalType": "address",
          "name": "operator",
          "type": "address"
        }
      ],
      "name": "ERC721InvalidOperator",
      "type": "error"
    },
    {
      "inputs": [
        {
          "internalType": "address",
          "name": "owner",
          "type": "address"
        }
      ],
      "name": "ERC721InvalidOwner",
      "type": "error"
    },
    {
      "inputs": [
        {
          "internalType": "address",
          "name": "receiver",
          "type": "address"
        }
      ],
      "name": "ERC721InvalidReceiver",
      "type": "error"
    },
    {
      "inputs": [
        {
          "internalType": "address",
          "name": "sender",
          "type": "address"
        }
      ],
      "name": "ERC721InvalidSender",
      "type": "error"
    },
    {
      "inputs": [
        {
          "internalType": "uint256",
          "name": "tokenId",
          "type": "uint256"
        }
      ],
      "name": "ERC721NonexistentToken",
      "type": "error"
    },
    {
      "inputs": [
        {
          "internalType": "address",
          "name": "owner",
          "type": "address"
        }
      ],
      "name": "OwnableInvalidOwner",
      "type": "error"
    },
    {
      "inputs": [
        {
          "internalType": "address",
          "name": "account",
          "type": "address"
        }
      ],
      "name": "OwnableUnauthorizedAccount",
      "type": "error"
    },
    {
      "anonymous": false,
      "inputs": [
        {
          "indexed": true,
          "internalType": "address",
          "name": "owner",
          "type": "address"
        },
        {
          "indexed": true,
          "internalType": "address",
          "name": "approved",
          "type": "address"
        },
        {
          "indexed": true,
          "internalType": "uint256",
          "name": "tokenId",
          "type": "uint256"
        }
      ],
      "name": "Approval",
      "type": "event"
    },
    {
      "anonymous": false,
      "inputs": [
        {
          "indexed": true,
          "internalType": "address",
          "name": "owner",
          "type": "address"
        },
        {
          "indexed": true,
          "internalType": "address",
          "name": "operator",
          "type": "address"
        },
        {
          "indexed": false,
          "internalType": "bool",
          "name": "approved",
          "type": "bool"
        }
      ],
      "name": "ApprovalForAll",
      "type": "event"
    },
    {
      "anonymous": false,
      "inputs": [
        {
          "indexed": true,
          "internalType": "uint256",
          "name": "tokenId",
          "type": "uint256"
        },
        {
          "indexed": true,
          "internalType": "address",
          "name": "to",
          "type": "address"
        },
        {
          "indexed": false,
          "internalType": "string",
          "name": "imageURI",
          "type": "string"
        },
        {
          "indexed": false,
          "internalType": "uint256",
          "name": "timestamp",
          "type": "uint256"
        }
      ],
      "name": "NFTMinted",
      "type": "event"
    },
    {
      "anonymous": false,
      "inputs": [
        {
          "indexed": true,
          "internalType": "address",
          "name": "previousOwner",
          "type": "address"
        },
        {
          "indexed": true,
          "internalType": "address",
          "name": "newOwner",
          "type": "address"
        }
      ],
      "name": "OwnershipTransferred",
      "type": "event"
    },
    {
      "anonymous": false,
      "inputs": [
        {
          "indexed": true,
          "internalType": "address",
          "name": "from",
          "type": "address"
        },
        {
          "indexed": true,
          "internalType": "address",
          "name": "to",
          "type": "address"
        },
        {
          "indexed": true,
          "internalType": "uint256",
          "name": "tokenId",
          "type": "uint256"
        }
      ],
      "name": "Transfer",
      "type": "event"
    },
    {
      "inputs": [
        {
          "internalType": "address",
          "name": "to",
          "type": "address"
        },
        {
          "internalType": "uint256",
          "name": "tokenId",
          "type": "uint256"
        }
      ],
      "name": "approve",
      "outputs": [],
      "stateMutability": "nonpayable",
      "type": "function"
    },
    {
      "inputs": [
        {
          "internalType": "address",
          "name": "owner",
          "type": "address"
        }
      ],
      "name": "balanceOf",
      "outputs": [
        {
          "internalType": "uint256",
          "name": "",
          "type": "uint256"
        }
      ],
      "stateMutability": "view",
      "type": "function"
    },
    {
      "inputs": [
        {
          "internalType": "uint256",
          "name": "tokenId",
          "type": "uint256"
        }
      ],
      "name": "getApproved",
      "outputs": [
        {
          "internalType": "address",
          "name": "",
          "type": "address"
        }
      ],
      "stateMutability": "view",
      "type": "function"
    },
    {
      "inputs": [
        {
          "internalType": "address",
          "name": "owner",
          "type": "address"
        },
        {
          "internalType": "address",
          "name": "operator",
          "type": "address"
        }
      ],
      "name": "isApprovedForAll",
      "outputs": [
        {
          "internalType": "bool",
          "name": "",
          "type": "bool"
        }
      ],
      "stateMutability": "view",
      "type": "function"
    },
    {
      "inputs": [
        {
          "internalType": "address",
          "name": "to",
          "type": "address"
        },
        {
          "internalType": "uint256",
          "name": "tokenId",
          "type": "uint256"
        },
        {
          "internalType": "string",
          "name": "imageURI",
          "type": "string"
        }
      ],
      "name": "mint",
      "outputs": [],
      "stateMutability": "nonpayable",
      "type": "function"
    },
    {
      "inputs": [
        {
          "internalType": "string",
          "name": "imageURI",
          "type": "string"
        }
      ],
      "name": "mint",
      "outputs": [],
      "stateMutability": "nonpayable",
      "type": "function"
    },
    {
      "inputs": [],
      "name": "name",
      "outputs": [
        {
          "internalType": "string",
          "name": "",
          "type": "string"
        }
      ],
      "stateMutability": "view",
      "type": "function"
    },
    {
      "inputs": [],
      "name": "owner",
      "outputs": [
        {
          "internalType": "address",
          "name": "",
          "type": "address"
        }
      ],
      "stateMutability": "view",
      "type": "function"
    },
    {
      "inputs": [
        {
          "internalType": "uint256",
          "name": "tokenId",
          "type": "uint256"
        }
      ],
      "name": "ownerOf",
      "outputs": [
        {
          "internalType": "address",
          "name": "",
          "type": "address"
        }
      ],
      "stateMutability": "view",
      "type": "function"
    },
    {
      "inputs": [],
      "name": "renounceOwnership",
      "outputs": [],
      "stateMutability": "nonpayable",
      "type": "function"
    },
    {
      "inputs": [
        {
          "internalType": "address",
          "name": "from",
          "type": "address"
        },
        {
          "internalType": "address",
          "name": "to",
          "type": "address"
        },
        {
          "internalType": "uint256",
          "name": "tokenId",
          "type": "uint256"
        }
      ],
      "name": "safeTransferFrom",
      "outputs": [],
      "stateMutability": "nonpayable",
      "type": "function"
    },
    {
      "inputs": [
        {
          "internalType": "address",
          "name": "from",
          "type": "address"
        },
        {
          "internalType": "address",
          "name": "to",
          "type": "address"
        },
        {
          "internalType": "uint256",
          "name": "tokenId",
          "type": "uint256"
        },
        {
          "internalType": "bytes",
          "name": "data",
          "type": "bytes"
        }
      ],
      "name": "safeTransferFrom",
      "outputs": [],
      "stateMutability": "nonpayable",
      "type": "function"
    },
    {
      "inputs": [
        {
          "internalType": "address",
          "name": "operator",
          "type": "address"
        },
        {
          "internalType": "bool",
          "name": "approved",
          "type": "bool"
        }
      ],
      "name": "setApprovalForAll",
      "outputs": [],
      "stateMutability": "nonpayable",
      "type": "function"
    },
    {
      "inputs": [
        {
          "internalType": "bytes4",
          "name": "interfaceId",
          "type": "bytes4"
        }
      ],
      "name": "supportsInterface",
      "outputs": [
        {
          "internalType": "bool",
          "name": "",
          "type": "bool"
        }
      ],
      "stateMutability": "view",
      "type": "function"
    },
    {
      "inputs": [],
      "name": "symbol",
      "outputs": [
        {
          "internalType": "string",
          "name": "",
          "type": "string"
        }
      ],
      "stateMutability": "view",
      "type": "function"
    },
    {
      "inputs": [],
      "name": "tokenCounter",
      "outputs": [
        {
          "internalType": "uint256",
          "name": "",
          "type": "uint256"
        }
      ],
      "stateMutability": "view",
      "type": "function"
    },
    {
      "inputs": [
        {
          "internalType": "uint256",
          "name": "tokenId",
          "type": "uint256"
        }
      ],
      "name": "tokenURI",
      "outputs": [
        {
          "internalType": "string",
          "name": "",
          "type": "string"
        }
      ],
      "stateMutability": "view",
      "type": "function"
    },
    {
      "inputs": [
        {
          "internalType": "address",
          "name": "from",
          "type": "address"
        },
        {
          "internalType": "address",
          "name": "to",
          "type": "address"
        },
        {
          "internalType": "uint256",
          "name": "tokenId",
          "type": "uint256"
        }
      ],
      "name": "transferFrom",
      "outputs": [],
      "stateMutability": "nonpayable",
      "type": "function"
    },
    {
      "inputs": [
        {
          "internalType": "address",
          "name": "newOwner",
          "type": "address"
        }
      ],
      "name": "transferOwnership",
      "outputs": [],
      "stateMutability": "nonpayable",
      "type": "function"
    }
  ],
  "bytecode": "0x6080346200039357601f90601f19906001600160401b0390620016e63881900385810185168301848111848210176200037d578392829160405283396020928391810103126200039357516001600160a01b0394858216939184900362000393576200006a62000398565b926200007562000398565b908451968488116200037d576000978854966001978881811c9116801562000372575b858210146200035e579081878493116200030b575b508490878311600114620002aa578b926200029e575b5050600019600383901b1c191690871b1788555b82519485116200028a5785548681811c911680156200027f575b838210146200026b5790818587969594931162000212575b5081938511600114620001ad5750508692620001a1575b5050600019600383901b1c191690821b1790555b80156200018857600680546001600160a01b03198116831790915560405193167f8be0079c531659141344cd1fd0a4f28419497f9722a3daafe3b4186f6b6457e08380a360085561131b9081620003cb8239f35b604051631e4fbdf760e01b815260048101839052602490fd5b01519050388062000120565b869593929193168589528389209389905b828210620001f85750508411620001de575b505050811b01905562000134565b015160001960f88460031b161c19169055388080620001d0565b8484015186558897909501949384019390810190620001be565b9091929394508689528289208580880160051c82019285891062000261575b9188978a9297969594930160051c01915b8281106200025257505062000109565b8b815588975089910162000242565b9250819262000231565b634e487b7160e01b89526022600452602489fd5b90607f1690620000f1565b634e487b7160e01b88526041600452602488fd5b015190503880620000c3565b90848a9416918c8052868d20928d5b88828210620002f45750508411620002da575b505050811b018855620000d7565b015160001960f88460031b161c19169055388080620002cc565b8385015186558d97909501949384019301620002b9565b9091508a8052848b208780850160051c82019287861062000354575b918b91869594930160051c01915b82811062000345575050620000ad565b8d81558594508b910162000335565b9250819262000327565b634e487b7160e01b8b52602260045260248bfd5b90607f169062000098565b634e487b7160e01b600052604160045260246000fd5b600080fd5b60408051919082016001600160401b038111838210176200037d576040526005825264111053919560da1b602083015256fe6080604081815260048036101561001557600080fd5b600092833560e01c90816301ffc9a7146109e15750806306fdde0314610930578063081812fc146108f5578063095ea7b31461081957806323b872dd1461080157806342842e0e146107d25780636352211e146107a157806370a082311461074c578063715018a6146106ef5780638da5cb5b146106c657806395d89b41146105e7578063a22cb46514610546578063b88d4fde146104d7578063c87b56dd14610395578063d082e38114610376578063d3fc986414610294578063d85d3d27146101d8578063e985e9c5146101865763f2fde38b146100f457600080fd5b346101825760203660031901126101825761010d610a8d565b90610116610e18565b6001600160a01b0391821692831561016c575050600654826bffffffffffffffffffffffff60a01b821617600655167f8be0079c531659141344cd1fd0a4f28419497f9722a3daafe3b4186f6b6457e08380a380f35b51631e4fbdf760e01b8152908101849052602490fd5b8280fd5b5050346101d457806003193601126101d45760ff816020936101a6610a8d565b6101ae610aa8565b6001600160a01b0391821683526005875283832091168252855220549151911615158152f35b5080fd5b509190346101d45760203660031901126101d457823567ffffffffffffffff81116101825761020a9036908501610b9a565b610212610e18565b61021e81511515610d91565b7f23eae53a2b33c20fc1b74912840a6a2a72adc26effa68729f81e756c875df28961025f60085492610251818533610f8f565b845194808652850190610a4d565b924260208201528033940390a360085460001981146102815760010160085580f35b506011602492634e487b7160e01b835252fd5b5034610182576060366003190112610182576102ae610a8d565b6024359260443567ffffffffffffffff81116103725784916102f47f23eae53a2b33c20fc1b74912840a6a2a72adc26effa68729f81e756c875df2899236908701610b9a565b906102fd610e18565b61030982511515610d91565b610314828587610f8f565b6103278151928284938452830190610a4d565b4260208301526001600160a01b03909516940390a360085482101561034a578280f35b6001820180921161035f575060085538808280f35b634e487b7160e01b835260119052602482fd5b8580fd5b5050346101d457816003193601126101d4576020906008549051908152f35b50903461018257602091826003193601126104d357803580855260028452828520549091906001600160a01b03161561049057508352600782528083208151938491818154906103e482610bb8565b9283865260019288600182169182600014610466575050600114610428575b858861042489610415848a0385610b25565b51928284938452830190610a4d565b0390f35b87945081939291528383205b82841061044e575050508201018161041561042438610403565b8054848a018601528895508794909301928101610434565b60ff19168882015294151560051b8701909401945085935061041592506104249150389050610403565b825162461bcd60e51b8152908101849052601f60248201527f55524920717565727920666f72206e6f6e6578697374656e7420746f6b656e006044820152606490fd5b8380fd5b8382346101d45760803660031901126101d4576104f2610a8d565b6104fa610aa8565b6044359060643567ffffffffffffffff81116103725736602382011215610372576105439481602461053193369301359101610b63565b9261053d838383610bf2565b33610e44565b80f35b509034610182578060031936011261018257610560610a8d565b90602435918215158093036105e3576001600160a01b03169283156105ce5750338452600560205280842083855260205280842060ff1981541660ff8416179055519081527f17307eab39ab6107e8899845ad3d59bd9653f200f220920489ca2b5937696c3160203392a380f35b836024925191630b61174360e31b8352820152fd5b8480fd5b8284346106c357806003193601126106c35781519182826001936001549461060e86610bb8565b918285526020968760018216918260001461069c575050600114610640575b5050506104249291610415910385610b25565b9190869350600183527fb10e2d527612073b26eecdfd717e6a320cf44b4afac2b0732d9fcbe2b7fa0cf65b828410610684575050508201018161041561042461062d565b8054848a01860152889550879490930192810161066b565b60ff19168782015293151560051b860190930193508492506104159150610424905061062d565b80fd5b5050346101d457816003193601126101d45760065490516001600160a01b039091168152602090f35b83346106c357806003193601126106c357610708610e18565b600680546001600160a01b0319811690915581906001600160a01b03167f8be0079c531659141344cd1fd0a4f28419497f9722a3daafe3b4186f6b6457e08280a380f35b5091346106c35760203660031901126106c3576001600160a01b0361076f610a8d565b1692831561078c5750806020938392526003845220549051908152f35b91516322718ad960e21b815291820152602490fd5b5091346106c35760203660031901126106c357506107c160209235610ddd565b90516001600160a01b039091168152f35b5050346101d457610543906107e636610abe565b919251926107f384610af3565b85845261053d838383610bf2565b83346106c35761054361081336610abe565b91610bf2565b509034610182578060031936011261018257610833610a8d565b9160243561084081610ddd565b331515806108e2575b806108b9575b6108a3576001600160a01b039485169482918691167f8c5be1e5ebec7d5bd14f71427d1e84f3dd0314c0f7b2291e5b200ac8c7c3b9258880a48452602052822080546001600160a01b031916909117905580f35b835163a9fbf51f60e01b81523381850152602490fd5b506001600160a01b03811686526005602090815284872033885290528386205460ff161561084f565b506001600160a01b038116331415610849565b50346101825760203660031901126101825791826020933561091681610ddd565b50825283528190205490516001600160a01b039091168152f35b8284346106c357806003193601126106c3578151918282835461095281610bb8565b908184526020956001918760018216918260001461069c575050600114610986575050506104249291610415910385610b25565b91908693508280527f290decd9548b62a8d60345a988386fc84ba6bc95484008f6362f93160ef3e5635b8284106109c9575050508201018161041561042461062d565b8054848a0186015288955087949093019281016109b0565b92505034610182576020366003190112610182573563ffffffff60e01b811680910361018257602092506380ac58cd60e01b8114908115610a3c575b8115610a2b575b5015158152f35b6301ffc9a760e01b14905038610a24565b635b5e139f60e01b81149150610a1d565b919082519283825260005b848110610a79575050826000602080949584010152601f8019910116010190565b602081830181015184830182015201610a58565b600435906001600160a01b0382168203610aa357565b600080fd5b602435906001600160a01b0382168203610aa357565b6060906003190112610aa3576001600160a01b03906004358281168103610aa357916024359081168103610aa3579060443590565b6020810190811067ffffffffffffffff821117610b0f57604052565b634e487b7160e01b600052604160045260246000fd5b90601f8019910116810190811067ffffffffffffffff821117610b0f57604052565b67ffffffffffffffff8111610b0f57601f01601f191660200190565b929192610b6f82610b47565b91610b7d6040519384610b25565b829481845281830111610aa3578281602093846000960137010152565b9080601f83011215610aa357816020610bb593359101610b63565b90565b90600182811c92168015610be8575b6020831014610bd257565b634e487b7160e01b600052602260045260246000fd5b91607f1691610bc7565b6001600160a01b039182169290918315610d7857600092828452826020956002875260409684888820541696879133151580610ce2575b509060027fddf252ad1be2c89b69c2b068fc378daa952ba7f163c4a11628f55a4df523b3ef9284610caf575b858352600381528b8320805460010190558683525289812080546001600160a01b0319168517905580a41692838303610c8e5750505050565b6064945051926364283d7b60e01b8452600484015260248301526044820152fd5b600087815260046020526040902080546001600160a01b0319169055848352600381528b83208054600019019055610c55565b91939450915080610d37575b15610cfe57859291879138610c29565b878688610d1b576024915190637e27328960e01b82526004820152fd5b604491519063177e802f60e01b82523360048301526024820152fd5b503387148015610d5c575b80610cee5750858252600481523385898420541614610cee565b5086825260058152878220338352815260ff8883205416610d42565b604051633250574960e11b815260006004820152602490fd5b15610d9857565b60405162461bcd60e51b815260206004820152601960248201527f496d616765205552492063616e6e6f7420626520656d707479000000000000006044820152606490fd5b6000818152600260205260409020546001600160a01b0316908115610e00575090565b60249060405190637e27328960e01b82526004820152fd5b6006546001600160a01b03163303610e2c57565b60405163118cdaa760e01b8152336004820152602490fd5b909192833b610e55575b5050505050565b604051630a85bd0160e11b8082526001600160a01b039384166004830152938316602482015260448101919091526080606482015260209591909316939091908390610ea5906084830190610a4d565b039285816000958187895af1849181610f4f575b50610f19575050503d600014610f11573d610ed381610b47565b90610ee16040519283610b25565b81528091843d92013e5b80519283610f0c57604051633250574960e11b815260048101849052602490fd5b019050fd5b506060610eeb565b919450915063ffffffff60e01b1603610f3757503880808080610e4e565b60249060405190633250574960e11b82526004820152fd5b9091508681813d8311610f88575b610f678183610b25565b810103126105e357516001600160e01b0319811681036105e3579038610eb9565b503d610f5d565b9091604091825192610fa084610af3565b6000808552946001600160a01b03948386169081156112cd57828852602096600288528489205416948515158061129a575b838a52600389528484878c20986001998a8154019055828d5260028c52888d20826bffffffffffffffffffffffff60a01b8254161790557fddf252ad1be2c89b69c2b068fc378daa952ba7f163c4a11628f55a4df523b3ef8d80a4611282573b611159575b505085526007845284209382519267ffffffffffffffff84116111455761105e8654610bb8565b601f81116110ff575b508491601f85116001146110a0579394508492919083611095575b50501b916000199060031b1c1916179055565b015192503880611082565b86815285812093958591601f198316915b888383106110e557505050106110cc575b505050811b019055565b015160001960f88460031b161c191690553880806110c2565b8587015188559096019594850194879350908101906110b1565b868352858320601f860160051c81019187871061113b575b601f0160051c019084905b828110611130575050611067565b848155018490611122565b9091508190611117565b634e487b7160e01b82526041600452602482fd5b83969894929197959351898180611198630a85bd0160e11b958683523360048401528b6024840152876044840152608060648401526084830190610a4d565b03818a8d5af187918161123e575b50611208575050505050503d600014611200573d6111c381610b47565b906111d084519283610b25565b81528091853d92013e5b805193846111fa578251633250574960e11b815260048101859052602490fd5b84925001fd5b5060606111da565b63ffffffff60e09a989597999394969a1b160361122757503880611037565b602490835190633250574960e11b82526004820152fd5b9091508a81813d831161127b575b6112568183610b25565b8101031261127757516001600160e01b0319811681036112775790386111a6565b8780fd5b503d61124c565b84516339e3563760e11b8152600481018a9052602490fd5b600085815260046020526040902080546001600160a01b0319169055868a5260038952858a208054600019019055610fd2565b8351633250574960e11b815260048101899052602490fdfea26469706673582212209d6c09e28b97c51981d4e06e9552c7442ce4889c739bde574cfbf57c0af47dbd64736f6c63430008160033",
  "linkReferences": {},
  "deployedLinkReferences": {}
}