{
  "_format": "hh-sol-artifact-1",
  "contractName": "DutchAuction",
  "sourceName": "contracts/DutchAuction.sol",
  "abi": [
    {
      "inputs": [
        {
          "internalType": "address",
          "name": "nftAddress",
          "type": "address"
        },
        {
          "internalType": "uint256",
          "name": "tokenId",
          "type": "uint256"
        },
        {
          "internalType": "address",
          "name": "owner",
          "type": "address"
        }
      ],
      "name": "DutchAuction_NotApproved",
      "type": "error"
    },
    {
      "inputs": [
        {
          "internalType": "address",
          "name": "nftAddress",
          "type": "address"
        },
        {
          "internalType": "uint256",
          "name": "tokenId",
          "type": "uint256"
        }
      ],
      "name": "DutchAuction__AuctionCreated",
      "type": "error"
    },
    {
      "inputs": [
        {
          "internalType": "address",
          "name": "nftAddress",
          "type": "address"
        },
        {
          "internalType": "uint256",
          "name": "tokenId",
          "type": "uint256"
        }
      ],
      "name": "DutchAuction__AuctionNotInProgress",
      "type": "error"
    },
    {
      "inputs": [
        {
          "internalType": "uint256",
          "name": "startingPrice",
          "type": "uint256"
        },
        {
          "internalType": "uint256",
          "name": "discountRate",
          "type": "uint256"
        },
        {
          "internalType": "uint256",
          "name": "duration",
          "type": "uint256"
        }
      ],
      "name": "DutchAuction__FloorPriceLessThanZero",
      "type": "error"
    },
    {
      "inputs": [
        {
          "internalType": "address",
          "name": "nftAddress",
          "type": "address"
        },
        {
          "internalType": "uint256",
          "name": "tokenId",
          "type": "uint256"
        },
        {
          "internalType": "uint256",
          "name": "price",
          "type": "uint256"
        }
      ],
      "name": "DutchAuction__InsufficientAmount",
      "type": "error"
    },
    {
      "inputs": [],
      "name": "DutchAuction__InvalidAddress",
      "type": "error"
    },
    {
      "inputs": [
        {
          "internalType": "address",
          "name": "seller",
          "type": "address"
        }
      ],
      "name": "DutchAuction__NotAuctionSeller",
      "type": "error"
    },
    {
      "inputs": [
        {
          "internalType": "address",
          "name": "nftAddress",
          "type": "address"
        },
        {
          "internalType": "uint256",
          "name": "tokenId",
          "type": "uint256"
        },
        {
          "internalType": "address",
          "name": "seller",
          "type": "address"
        }
      ],
      "name": "DutchAuction__NotOwner",
      "type": "error"
    },
    {
      "inputs": [],
      "name": "DutchAuction__TransactionFailed",
      "type": "error"
    },
    {
      "anonymous": false,
      "inputs": [
        {
          "indexed": true,
          "internalType": "address",
          "name": "nftAddress",
          "type": "address"
        },
        {
          "indexed": true,
          "internalType": "uint256",
          "name": "tokenId",
          "type": "uint256"
        }
      ],
      "name": "AuctionCreated",
      "type": "event"
    },
    {
      "anonymous": false,
      "inputs": [
        {
          "indexed": true,
          "internalType": "address",
          "name": "nftAddress",
          "type": "address"
        },
        {
          "indexed": true,
          "internalType": "uint256",
          "name": "tokenId",
          "type": "uint256"
        },
        {
          "indexed": false,
          "internalType": "address",
          "name": "winner",
          "type": "address"
        }
      ],
      "name": "AuctionEnded",
      "type": "event"
    },
    {
      "inputs": [
        {
          "internalType": "address",
          "name": "",
          "type": "address"
        },
        {
          "internalType": "uint256",
          "name": "",
          "type": "uint256"
        }
      ],
      "name": "auctions",
      "outputs": [
        {
          "internalType": "address",
          "name": "seller",
          "type": "address"
        },
        {
          "internalType": "address",
          "name": "nftAddress",
          "type": "address"
        },
        {
          "internalType": "uint256",
          "name": "tokenId",
          "type": "uint256"
        },
        {
          "internalType": "uint256",
          "name": "startingAt",
          "type": "uint256"
        },
        {
          "internalType": "uint256",
          "name": "endingAt",
          "type": "uint256"
        },
        {
          "internalType": "uint256",
          "name": "startingPrice",
          "type": "uint256"
        },
        {
          "internalType": "uint256",
          "name": "discountRate",
          "type": "uint256"
        },
        {
          "internalType": "enum DutchAuction.AuctionStatus",
          "name": "status",
          "type": "uint8"
        }
      ],
      "stateMutability": "view",
      "type": "function"
    },
    {
      "inputs": [
        {
          "internalType": "address",
          "name": "_nftAddress",
          "type": "address"
        },
        {
          "internalType": "uint256",
          "name": "_tokenId",
          "type": "uint256"
        }
      ],
      "name": "buyItem",
      "outputs": [],
      "stateMutability": "payable",
      "type": "function"
    },
    {
      "inputs": [
        {
          "internalType": "address",
          "name": "_nftAddress",
          "type": "address"
        },
        {
          "internalType": "uint256",
          "name": "_tokenId",
          "type": "uint256"
        }
      ],
      "name": "cancelAuction",
      "outputs": [],
      "stateMutability": "nonpayable",
      "type": "function"
    },
    {
      "inputs": [
        {
          "internalType": "address",
          "name": "_nftAddress",
          "type": "address"
        },
        {
          "internalType": "uint256",
          "name": "_tokenId",
          "type": "uint256"
        },
        {
          "internalType": "uint256",
          "name": "_startingPrice",
          "type": "uint256"
        },
        {
          "internalType": "uint256",
          "name": "_discountRate",
          "type": "uint256"
        }
      ],
      "name": "createAuction",
      "outputs": [],
      "stateMutability": "nonpayable",
      "type": "function"
    },
    {
      "inputs": [
        {
          "internalType": "address",
          "name": "_nftAddress",
          "type": "address"
        },
        {
          "internalType": "uint256",
          "name": "_tokenId",
          "type": "uint256"
        }
      ],
      "name": "getAuction",
      "outputs": [
        {
          "internalType": "address",
          "name": "seller",
          "type": "address"
        },
        {
          "internalType": "address",
          "name": "nftAddress",
          "type": "address"
        },
        {
          "internalType": "uint256",
          "name": "tokenId",
          "type": "uint256"
        },
        {
          "internalType": "uint256",
          "name": "startingAt",
          "type": "uint256"
        },
        {
          "internalType": "uint256",
          "name": "endingAt",
          "type": "uint256"
        },
        {
          "internalType": "uint256",
          "name": "startingPrice",
          "type": "uint256"
        },
        {
          "internalType": "uint256",
          "name": "discountRate",
          "type": "uint256"
        },
        {
          "internalType": "enum DutchAuction.AuctionStatus",
          "name": "status",
          "type": "uint8"
        }
      ],
      "stateMutability": "view",
      "type": "function"
    },
    {
      "inputs": [],
      "name": "getDuration",
      "outputs": [
        {
          "internalType": "uint256",
          "name": "",
          "type": "uint256"
        }
      ],
      "stateMutability": "pure",
      "type": "function"
    },
    {
      "inputs": [
        {
          "internalType": "address",
          "name": "_nftAddress",
          "type": "address"
        },
        {
          "internalType": "uint256",
          "name": "_tokenId",
          "type": "uint256"
        }
      ],
      "name": "getPrice",
      "outputs": [
        {
          "internalType": "uint256",
          "name": "",
          "type": "uint256"
        }
      ],
      "stateMutability": "view",
      "type": "function"
    }
  ],
  "bytecode": "0x6080806040523461001657610ed5908161001c8239f35b600080fdfe6040608081526004908136101561001557600080fd5b600091823560e01c908163449e815d14610ac357816344f91c1e14610a4d57816361beb1d7146104c9578163762a66a214610487578163859b97fe146103005781639f37092a14610090575063ad2e8c9b1461007057600080fd5b3461008c578160031936011261008c576020905162093a808152f35b5080fd5b918091506003193601126102fc576100a6610af3565b60249182359360018060a01b0380841694858852602094888652848920888a52865284892060e060ff60078851936100dd85610b6d565b878154168552876001820154168b86015260028101548a86015260038101546060860152888101546080860152600581015460a0860152600681015460c086015201541691019060038110156102ea57815261013890610bde565b60038110156102d8576001036102ab57610163886101568184610d73565b5050505050505092610beb565b9283341061028a5734841061025c575b873b1561025857855191632142170760e11b83521691828583015233818301528860448301528982606481838c5af1801561024e5761021e575b50508780809381935af16101bf610dd4565b501561021057508285528482528085208486528252808520600701805460ff19166002179055513381527fe0c4b41d54d853b2b6f60078a33a889662b42592856bcd4e749b2f0927a9ac089190a380f35b90516316e732b360e21b8152fd5b67ffffffffffffffff829a93949a1161023d57508452969038806101ad565b634e487b7160e01b83526041855282fd5b86513d8c823e3d90fd5b8980fd5b8980808061026a8834610d31565b335af1610275610dd4565b506101735785516316e732b360e21b81528590fd5b6064858a858b8a5193630d2f13d560e41b8552840152820152346044820152fd5b845163e51a886760e01b81526001600160a01b039091168185019081526020810189905281906040010390fd5b634e487b7160e01b8a5260218552828afd5b634e487b7160e01b8b5260218652838bfd5b8280fd5b9050346102fc57816003193601126102fc5761031a610af3565b6024359260018060a01b039283831693848752602093878552838820878952855283882060e060ff600787519361035085610b6d565b868154168552866001820154168a86015260028101548986015260038101546060860152878101546080860152600581015460a0860152600681015460c086015201541691019060038110156104745781526103ab90610bde565b60038110156104615760010361043457866103c591610d73565b50505050505050163381036104205750508285528482528085208486528252808520600701805460ff19166002179055518481527fe0c4b41d54d853b2b6f60078a33a889662b42592856bcd4e749b2f0927a9ac089190a380f35b6024925191639adccedf60e01b8352820152fd5b835163e51a886760e01b81526001600160a01b039091168184019081526020810188905281906040010390fd5b634e487b7160e01b895260218452602489fd5b634e487b7160e01b8a526021855260248afd5b50503461008c578060031936011261008c576104c5906104b16104a8610af3565b60243590610d73565b959896979490949391935198899889610b0e565b0390f35b8391503461008c57608036600319011261008c576104e5610af3565b6024938435926001600160a01b03808416939160643591604435918615610a3f5785516331a9108f60e11b81528181018990526020959086818d818c5afa9081156109b7578b91610a22575b5083339116036109ee57865163020604bf60e21b81528281018a905286818d818c5afa9081156109b7578b916109c1575b5083163014801561094a575b156109165761059f85885161058281610ba0565b600c81526b646973636f756e745261746560a01b89820152610e14565b8651926105ab84610ba0565b6008845267222aa920aa24a7a760c11b878501528751938b8d8a8a880191632d839cb360e21b835288015282519687606482015282935b8b8986106108fd575050828094506084898301015261061f60848262093a809a8b6044830152601f80199101168101036064810184520182610bbc565b51906a636f6e736f6c652e6c6f675afa5061065e85895161063f81610ba0565b600e81526d5f7374617274696e67507269636560901b8a820152610e14565b8386028681048514871517156108eb5785106108ca57888b528a8752878b208a8c5287528a60ff60078a832001541660038110156108b85760078a838e8e60e0968e600260ff9814610899575b5052818d528282209082528c52208b51946106c586610b6d565b8082541686526001820154168b86015260028101548c86015260038101546060860152868101546080860152600581015460a0860152600681015460c0860152015416910190600381101561088757815261071f90610bde565b6003811015610875576108475750868952888552858920888a5285528589206bffffffffffffffffffffffff60a01b903382825416179055878a52898652868a20898b528652876001888c200191825416179055868952888552858920888a528552876002878b200155868952888552858920888a528552426003878b20015581420291428304144215171561083557868952888552858920888a528552858920015584875286835283872086885283528387206005015583865285825282862085875282528286206006015582855284815281852084865290528320600701805460ff19166001179055919250907f3249a06bd478adf780bb7930214ad005e9cfa517d63221c0b77f27199d1a58b38380a380f35b634e487b7160e01b8952601190528888fd5b865163ad6001ff60e01b81526001600160a01b03909116918101918252602082018990529081906040010390fd5b634e487b7160e01b8b52602183528b8bfd5b634e487b7160e01b8c52602184528c8cfd5b828252528383208284528e52838320850180548719169055828e6106ab565b634e487b7160e01b8252602185528d82fd5b60648385888f898d519463fe2a72a560e01b86528501528301526044820152fd5b634e487b7160e01b8c52601184528c8cfd5b85820181015160848488010152909401938f93506105e2565b865163d26f3f3560e01b81526001600160a01b03909116918101918252602082018990523360408301529081906060010390fd5b50865163e985e9c560e01b81523383820152308c82015286816044818c5afa9081156109b7578b9161097d575b5061056e565b90508681813d83116109b0575b6109948183610bbc565b810103126109ac575180151581036109ac578c610977565b8a80fd5b503d61098a565b88513d8d823e3d90fd5b6109e19150873d89116109e7575b6109d98183610bbc565b810190610d54565b8c610562565b503d6109cf565b865163dd001f2d60e01b81526001600160a01b03909116918101918252602082018990523360408301529081906060010390fd5b610a399150873d89116109e7576109d98183610bbc565b8c610531565b8551631ee74ddb60e11b8152fd5b83833461008c578060031936011261008c57806104c591610a6c610af3565b9360018060a01b038095168152806020528181206024358252602052208381541693600182015416946002820154906003830154908301549060058401549260ff6007600687015496015416955198899889610b0e565b50503461008c578060031936011261008c57602090610aec610ae3610af3565b60243590610beb565b9051908152f35b600435906001600160a01b0382168203610b0957565b600080fd5b95939198979694929061010087019960018060a01b03809216885216602087015260408601526060850152608084015260a083015260c08201526003821015610b575760e00152565b634e487b7160e01b600052602160045260246000fd5b610100810190811067ffffffffffffffff821117610b8a57604052565b634e487b7160e01b600052604160045260246000fd5b6040810190811067ffffffffffffffff821117610b8a57604052565b90601f8019910116810190811067ffffffffffffffff821117610b8a57604052565b516003811015610b575790565b919060018060a01b03926000938082168552846020526040852083865260205260e060ff60076040882060405194610c2286610b6d565b8082541686526001820154166020860152600281015460408601526003810154606086015260048101546080860152600581015460a0860152600681015460c08601520154169101906003811015610d1d578152610c7f90610bde565b6003811015610d0957600103610cde57610cab91610c9c91610d73565b50969450945050905042610d31565b91828102928184041490151715610cca57610cc7929350610d31565b90565b634e487b7160e01b84526011600452602484fd5b60405163e51a886760e01b81526001600160a01b039190911660048201526024810191909152604490fd5b634e487b7160e01b85526021600452602485fd5b634e487b7160e01b86526021600452602486fd5b91908203918211610d3e57565b634e487b7160e01b600052601160045260246000fd5b90816020910312610b0957516001600160a01b0381168103610b095790565b919060018060a01b038093166000526000602052604060002090600052602052604060002082815416926001820154169260028201549260038301549260048101549260058201549260ff6007600685015494015416919796959493929190565b3d15610e0f573d9067ffffffffffffffff8211610b8a5760405191610e03601f8201601f191660200184610bbc565b82523d6000602084013e565b606090565b604051906020926020830193632d839cb360e21b85526040602485015282519283606486015260005b848110610e8b5750505091610e7860848284600097959688848199850101526044830152601f80199101168101036064810184520182610bbc565b51906a636f6e736f6c652e6c6f675afa50565b818101830151868201608401528201610e3d56fea2646970667358221220e8bea32be3fdfd7e29426bf21e68a29ac3258a1ca61b36757e5007742f77c1e364736f6c63430008160033",
  "linkReferences": {},
  "deployedLinkReferences": {}
}