{
  "_format": "hh-sol-artifact-1",
  "contractName": "EnglishAuction",
  "sourceName": "contracts/EnglishAuction.sol",
  "abi": [
    {
      "inputs": [
        {
          "internalType": "address",
          "name": "_daTokenAddress",
          "type": "address"
        }
      ],
      "stateMutability": "nonpayable",
      "type": "constructor"
    },
    {
      "inputs": [
        {
          "internalType": "address",
          "name": "nftAddress",
          "type": "address"
        },
        {
          "internalType": "uint256",
          "name": "tokenId",
          "type": "uint256"
        }
      ],
      "name": "EnglishAuction__AuctionCreated",
      "type": "error"
    },
    {
      "inputs": [
        {
          "internalType": "uint256",
          "name": "endingAt",
          "type": "uint256"
        }
      ],
      "name": "EnglishAuction__AuctionIsNotOverYet",
      "type": "error"
    },
    {
      "inputs": [
        {
          "internalType": "address",
          "name": "nftAddress",
          "type": "address"
        },
        {
          "internalType": "uint256",
          "name": "tokenId",
          "type": "uint256"
        }
      ],
      "name": "EnglishAuction__AuctionNotInProgress",
      "type": "error"
    },
    {
      "inputs": [
        {
          "internalType": "address",
          "name": "caller",
          "type": "address"
        },
        {
          "internalType": "address",
          "name": "seller",
          "type": "address"
        }
      ],
      "name": "EnglishAuction__CallerIsNotTheSeller",
      "type": "error"
    },
    {
      "inputs": [
        {
          "internalType": "address",
          "name": "nftAddress",
          "type": "address"
        },
        {
          "internalType": "uint256",
          "name": "tokenId",
          "type": "uint256"
        },
        {
          "internalType": "uint256",
          "name": "price",
          "type": "uint256"
        }
      ],
      "name": "EnglishAuction__InsufficientAmount",
      "type": "error"
    },
    {
      "inputs": [],
      "name": "EnglishAuction__InvalidAddress",
      "type": "error"
    },
    {
      "inputs": [
        {
          "internalType": "address",
          "name": "nftAddress",
          "type": "address"
        },
        {
          "internalType": "uint256",
          "name": "tokenId",
          "type": "uint256"
        },
        {
          "internalType": "address",
          "name": "owner",
          "type": "address"
        }
      ],
      "name": "EnglishAuction__NotApproved",
      "type": "error"
    },
    {
      "inputs": [
        {
          "internalType": "address",
          "name": "nftAddress",
          "type": "address"
        },
        {
          "internalType": "uint256",
          "name": "tokenId",
          "type": "uint256"
        },
        {
          "internalType": "address",
          "name": "seller",
          "type": "address"
        }
      ],
      "name": "EnglishAuction__NotOwner",
      "type": "error"
    },
    {
      "inputs": [
        {
          "internalType": "address",
          "name": "seller",
          "type": "address"
        },
        {
          "internalType": "address",
          "name": "bidder",
          "type": "address"
        }
      ],
      "name": "EnglishAuction__SellerIsTheBidder",
      "type": "error"
    },
    {
      "inputs": [],
      "name": "EnglishAuction__TransactionFailed",
      "type": "error"
    },
    {
      "anonymous": false,
      "inputs": [
        {
          "indexed": true,
          "internalType": "address",
          "name": "nftAddress",
          "type": "address"
        },
        {
          "indexed": true,
          "internalType": "uint256",
          "name": "tokenId",
          "type": "uint256"
        }
      ],
      "name": "AuctionCreated",
      "type": "event"
    },
    {
      "anonymous": false,
      "inputs": [
        {
          "indexed": true,
          "internalType": "address",
          "name": "nftAddress",
          "type": "address"
        },
        {
          "indexed": true,
          "internalType": "uint256",
          "name": "tokenId",
          "type": "uint256"
        },
        {
          "indexed": false,
          "internalType": "address",
          "name": "winner",
          "type": "address"
        }
      ],
      "name": "AuctionEnded",
      "type": "event"
    },
    {
      "anonymous": false,
      "inputs": [
        {
          "indexed": true,
          "internalType": "address",
          "name": "nftAddress",
          "type": "address"
        },
        {
          "indexed": true,
          "internalType": "uint256",
          "name": "tokenId",
          "type": "uint256"
        },
        {
          "indexed": false,
          "internalType": "uint256",
          "name": "price",
          "type": "uint256"
        }
      ],
      "name": "NewBid",
      "type": "event"
    },
    {
      "inputs": [
        {
          "internalType": "address",
          "name": "",
          "type": "address"
        },
        {
          "internalType": "uint256",
          "name": "",
          "type": "uint256"
        }
      ],
      "name": "auctions",
      "outputs": [
        {
          "internalType": "address",
          "name": "seller",
          "type": "address"
        },
        {
          "internalType": "address",
          "name": "nftAddress",
          "type": "address"
        },
        {
          "internalType": "uint256",
          "name": "tokenId",
          "type": "uint256"
        },
        {
          "internalType": "uint256",
          "name": "startingAt",
          "type": "uint256"
        },
        {
          "internalType": "uint256",
          "name": "endingAt",
          "type": "uint256"
        },
        {
          "internalType": "uint256",
          "name": "startingPrice",
          "type": "uint256"
        },
        {
          "internalType": "uint256",
          "name": "highestBid",
          "type": "uint256"
        },
        {
          "internalType": "address",
          "name": "highestBidder",
          "type": "address"
        },
        {
          "internalType": "enum EnglishAuction.AuctionStatus",
          "name": "status",
          "type": "uint8"
        }
      ],
      "stateMutability": "view",
      "type": "function"
    },
    {
      "inputs": [
        {
          "internalType": "address",
          "name": "_nftAddress",
          "type": "address"
        },
        {
          "internalType": "uint256",
          "name": "_tokenId",
          "type": "uint256"
        },
        {
          "internalType": "uint256",
          "name": "_bidAmount",
          "type": "uint256"
        }
      ],
      "name": "bid",
      "outputs": [],
      "stateMutability": "payable",
      "type": "function"
    },
    {
      "inputs": [
        {
          "internalType": "address",
          "name": "_nftAddress",
          "type": "address"
        },
        {
          "internalType": "uint256",
          "name": "_tokenId",
          "type": "uint256"
        },
        {
          "internalType": "uint256",
          "name": "_startingPrice",
          "type": "uint256"
        },
        {
          "internalType": "uint256",
          "name": "_duration",
          "type": "uint256"
        }
      ],
      "name": "createAuction",
      "outputs": [],
      "stateMutability": "nonpayable",
      "type": "function"
    },
    {
      "inputs": [],
      "name": "daToken",
      "outputs": [
        {
          "internalType": "contract IERC20",
          "name": "",
          "type": "address"
        }
      ],
      "stateMutability": "view",
      "type": "function"
    },
    {
      "inputs": [
        {
          "internalType": "address",
          "name": "_nftAddress",
          "type": "address"
        },
        {
          "internalType": "uint256",
          "name": "_tokenId",
          "type": "uint256"
        }
      ],
      "name": "endAuction",
      "outputs": [],
      "stateMutability": "nonpayable",
      "type": "function"
    },
    {
      "inputs": [
        {
          "internalType": "address",
          "name": "_nftAddress",
          "type": "address"
        },
        {
          "internalType": "uint256",
          "name": "_tokenId",
          "type": "uint256"
        }
      ],
      "name": "getAuction",
      "outputs": [
        {
          "internalType": "address",
          "name": "seller",
          "type": "address"
        },
        {
          "internalType": "address",
          "name": "nftAddress",
          "type": "address"
        },
        {
          "internalType": "uint256",
          "name": "tokenId",
          "type": "uint256"
        },
        {
          "internalType": "uint256",
          "name": "startingAt",
          "type": "uint256"
        },
        {
          "internalType": "uint256",
          "name": "endingAt",
          "type": "uint256"
        },
        {
          "internalType": "uint256",
          "name": "startingPrice",
          "type": "uint256"
        },
        {
          "internalType": "uint256",
          "name": "highestBid",
          "type": "uint256"
        },
        {
          "internalType": "address",
          "name": "highestBidder",
          "type": "address"
        },
        {
          "components": [
            {
              "internalType": "address",
              "name": "bidder",
              "type": "address"
            },
            {
              "internalType": "uint256",
              "name": "bidAmount",
              "type": "uint256"
            },
            {
              "internalType": "uint256",
              "name": "bidTime",
              "type": "uint256"
            }
          ],
          "internalType": "struct EnglishAuction.Bidder[]",
          "name": "bidders",
          "type": "tuple[]"
        },
        {
          "internalType": "enum EnglishAuction.AuctionStatus",
          "name": "status",
          "type": "uint8"
        }
      ],
      "stateMutability": "view",
      "type": "function"
    }
  ],
  "bytecode": "0x60a03461009157601f61118d38819003918201601f19168301916001600160401b038311848410176100965780849260209460405283398101031261009157516001600160a01b0381169081900361009157801561007f576080526040516110e090816100ad8239608051818181607d015281816109070152610f290152f35b604051633ba56bcb60e11b8152600490fd5b600080fd5b634e487b7160e01b600052604160045260246000fdfe608060408181526004918236101561001657600080fd5b60009260e0908435821c9283630f41ba4b146107d45750826344f91c1e1461072557826361beb1d7146102c2578263762a66a2146101ed57826388cedbc4146100b057505063dc0c74cc1461006a57600080fd5b346100ac57816003193601126100ac57517f00000000000000000000000000000000000000000000000000000000000000006001600160a01b03168152602090f35b5080fd5b849250346101e957836003193601126101e9576100cb610bc7565b936024359261012060ff600960018060a01b0393848a16895288602052858920888a526020528589209086519561010187610c05565b80835416875280600184015416602088015260028301548888015260038301546060880152888301546080880152600583015460a0880152600683015460c08801526007830154169086015261015960088201610c76565b61010086015201541691019060038110156101d657815261017990610d01565b60038110156101c35760010361019757836101948487610dbc565b80f35b516393e19d4960e01b81526001600160a01b038516918101918252602082019290925281906040010390fd5b634e487b7160e01b855260218352602485fd5b634e487b7160e01b865260218452602486fd5b8280fd5b509050346101e957816003193601126101e9579061021561020c610bc7565b60243590610d45565b9b98909993929a91849897969598519b8c9460a0610140968781019c600180841b039b8c80981683528760209e1660208401528a83015260609a60608301526080820152015260c08d015216908a0152610100890152865180955260206101608901970195925b8584106102985788808961029461012083018e610be2565b0390f35b8651805182168952808601518987015282015188830152968201969584019560019093019261027c565b849084346101e95760803660031901126101e9576102de610bc7565b6024948535936001600160a01b0380841694939085156107155784516331a9108f60e11b81528381018890526020949085818c818b5afa90811561068f578a916106f8575b5082339116036106c657855163020604bf60e21b815284810189905285818c818b5afa90811561068f578a91610699575b50821630148015610626575b156105f457868952888552858920888a52855260ff6009878b2001541660038110156105e257600961012092600260ff93146105c3575b898c528b8852888c208b8d528852888c20908951956103b587610c05565b808354168752806001840154168a88015260028301548b88015260038301546060880152888301546080880152600583015460a0880152600683015460c08801526007830154169086015261040c60088201610c76565b61010086015201541691019060038110156105b157815261042c90610d01565b600381101561059f5761057157508386528582528286208587528252828620906bffffffffffffffffffffffff60a01b91338382541617905584875286835283872086885283526001848820018583825416179055848752868352838720868852835285600285892001558487528683528387208688528352426003858920015560643542019081421161055f5787985085600996979852888452848920888a52845284892001558487528682528287208688528252604435600584892001558487528682528287208688528252866006848220015584875286825282872086885282526007838820019081541690558386528581528186209085875252842001600160ff198254161790557f3249a06bd478adf780bb7930214ad005e9cfa517d63221c0b77f27199d1a58b38380a380f35b634e487b7160e01b8852601190528787fd5b8351635812965f60e01b81526001600160a01b03909116918101918252602082018690529081906040010390fd5b634e487b7160e01b8852602183528888fd5b634e487b7160e01b8952602184528989fd5b898c528b8852888c208b8d52885281898d200183198154169055610397565b634e487b7160e01b8a52602185528a8afd5b8551634d03aeb360e11b81526001600160a01b038416818601908152602081018a905233604082015281906060010390fd5b50855163e985e9c560e01b81523385820190815230602082015286908290819060400103818b5afa90811561068f578a91610662575b50610360565b6106829150863d8811610688575b61067a8183610c54565b810190610d0e565b8b61065c565b503d610670565b87513d8c823e3d90fd5b6106b99150863d88116106bf575b6106b18183610c54565b810190610d26565b8b610354565b503d6106a7565b8551632c4f374b60e21b81526001600160a01b038416818601908152602081018a905233604082015281906060010390fd5b61070f9150863d88116106bf576106b18183610c54565b8b610323565b8451633ba56bcb60e11b81528390fd5b9150346107d057826003193601126107d05790610120936107ce9284610749610bc7565b9260018060a01b0380941681528060205281812060243582526020522091808354169581600185015416946002850154906003860154908601549160058701549360ff600960068a01549760078b015416990154169881519b8c5260208c01528a01526060890152608088015260a087015260c0860152840152610100830190610be2565bf35b8380fd5b8285879260606003193601126107d05783906107ee610bc7565b926024359485946044359361012060ff60098c60018060a01b0396888b8989169d8e825260209d8e528282209082528d52209161082a87610c05565b888354168752886001840154168c88015260028301548a880152600383015460608801528201546080870152600582015460a0870152600682015460c0870152876007830154169086015261088160088201610c76565b6101008601520154169101906003811015610bb45781526108a190610d01565b6003811015610ba157600103610b74576108bb8782610d45565b50509794509592509350503386821614610b48575083851615918215610b37578710610b0357508a905b85516323b872dd60e01b815233928101928352306020840152604083018890527f000000000000000000000000000000000000000000000000000000000000000086169289908290819003606001818f875af1908115610af9578c91610adc575b5015610acc579087929115610a44575b50505050848752868452818720868852845281872090600860078301926bffffffffffffffffffffffff60a01b93338582541617905585600682015501908351926109a084610c38565b338452868401918683528585019342855280549068010000000000000000821015610a3057906109d591600182018155611078565b959095610a1e575185549116911617835551600183015551600290910155519081527f87f5b2fe112bf269d30fb8ca9dc0bde0afd0cc39258e13fafd75fe794795bf0e9190a380f35b634e487b7160e01b8c528b8d5260248cfd5b50634e487b7160e01b8c5260418d5260248cfd5b855163a9059cbb60e01b81526001600160a01b03909416848d019081526020810192909252839182908c90829060400103925af1908115610ac2578891610aa5575b5015610a955788848180610956565b8151635a69fa5760e01b81528890fd5b610abc9150853d87116106885761067a8183610c54565b89610a86565b83513d8a823e3d90fd5b8551635a69fa5760e01b81528c90fd5b610af39150893d8b116106885761067a8183610c54565b8d610946565b87513d8e823e3d90fd5b855163023ffd4f60e21b81526001600160a01b03909116818d01908152602081018b90526040810188905281906060010390fd5b5082871115610b0357508a906108e5565b865163e733694b60e01b81526001600160a01b03909116818e0190815233602082015281906040010390fd5b82516393e19d4960e01b81526001600160a01b03909116818a019081526020810188905281906040010390fd5b634e487b7160e01b895260218a52602489fd5b634e487b7160e01b8a5260218b5260248afd5b600435906001600160a01b0382168203610bdd57565b600080fd5b906003821015610bef5752565b634e487b7160e01b600052602160045260246000fd5b610140810190811067ffffffffffffffff821117610c2257604052565b634e487b7160e01b600052604160045260246000fd5b6060810190811067ffffffffffffffff821117610c2257604052565b90601f8019910116810190811067ffffffffffffffff821117610c2257604052565b90815467ffffffffffffffff8111610c225760209260409360405194610ca260208560051b0187610c54565b83865260208601926000526020600020906000935b858510610cc657505050505050565b6003846001928451610cd781610c38565b848060a01b0387541681528487015483820152600287015486820152815201930194019391610cb7565b516003811015610bef5790565b90816020910312610bdd57518015158103610bdd5790565b90816020910312610bdd57516001600160a01b0381168103610bdd5790565b9060018060a01b0380921660005260006020526040600020906000526020526040600020918183541692826001820154169360028201549360038301549360048401549360058101549360068201549360078301541692610db8600860ff600986015416939b9a99989796959401610c76565b9190565b919091610dc98382610d45565b50509698945094505096905060018060a01b039633888816036110515742811161103957508660009516808652602086815260409586882084895282528688209660086009890198600299600260ff1982541617905501995b8a5460019081811115610e87578015610e73576000190190610e44828e611078565b919091610e5f57818d8d928180955582015501558b55610e22565b634e487b7160e01b8d5260048d905260248dfd5b634e487b7160e01b8c52603160045260248cfd5b5050949950949990959196509691968086169586158015611031575b61100057883b156107d0578551632142170760e11b81526001600160a01b038681166004830152919091166024820152604481018a90528381606481838d5af18015610ff6579088939291610fc0575b50855163a9059cbb60e01b81526001600160a01b03909516600486015260248501919091529192918290818581604481015b03927f0000000000000000000000000000000000000000000000000000000000000000165af1918215610fb55791610f98575b5015610f8857519081527fe0c4b41d54d853b2b6f60078a33a889662b42592856bcd4e749b2f0927a9ac089190a3565b51635a69fa5760e01b8152600490fd5b610faf9150843d86116106885761067a8183610c54565b38610f58565b8351903d90823e3d90fd5b90925067ffffffffffffffff8194929411610fe2578552918691610f25610ef3565b634e487b7160e01b82526041600452602482fd5b86513d86823e3d90fd5b5050509190507fe0c4b41d54d853b2b6f60078a33a889662b42592856bcd4e749b2f0927a9ac0893925051908152a3565b508215610ea3565b60249060405190630663dd7960e21b82526004820152fd5b60405163555485bd60e11b81523360048201526001600160a01b0388166024820152604490fd5b8054821015611094576000526003602060002091020190600090565b634e487b7160e01b600052603260045260246000fdfea2646970667358221220a3228391744b58cc02b9a088514f17080a26cc44bdaaa9dcf22205bdebfb6e8b64736f6c63430008160033",
  "linkReferences": {},
  "deployedLinkReferences": {}
}