{
  "_format": "hh-sol-artifact-1",
  "contractName": "EnglishAuction",
  "sourceName": "contracts/EnglishAuction.sol",
  "abi": [
    {
      "inputs": [
        {
          "internalType": "address",
          "name": "_daTokenAddress",
          "type": "address"
        }
      ],
      "stateMutability": "nonpayable",
      "type": "constructor"
    },
    {
      "inputs": [
        {
          "internalType": "address",
          "name": "nftAddress",
          "type": "address"
        },
        {
          "internalType": "uint256",
          "name": "tokenId",
          "type": "uint256"
        }
      ],
      "name": "EnglishAuction__AuctionCreated",
      "type": "error"
    },
    {
      "inputs": [
        {
          "internalType": "uint256",
          "name": "endingAt",
          "type": "uint256"
        }
      ],
      "name": "EnglishAuction__AuctionIsNotOverYet",
      "type": "error"
    },
    {
      "inputs": [
        {
          "internalType": "address",
          "name": "nftAddress",
          "type": "address"
        },
        {
          "internalType": "uint256",
          "name": "tokenId",
          "type": "uint256"
        }
      ],
      "name": "EnglishAuction__AuctionNotInProgress",
      "type": "error"
    },
    {
      "inputs": [
        {
          "internalType": "address",
          "name": "caller",
          "type": "address"
        },
        {
          "internalType": "address",
          "name": "seller",
          "type": "address"
        }
      ],
      "name": "EnglishAuction__CallerIsNotTheSeller",
      "type": "error"
    },
    {
      "inputs": [
        {
          "internalType": "address",
          "name": "nftAddress",
          "type": "address"
        },
        {
          "internalType": "uint256",
          "name": "tokenId",
          "type": "uint256"
        },
        {
          "internalType": "uint256",
          "name": "price",
          "type": "uint256"
        }
      ],
      "name": "EnglishAuction__InsufficientAmount",
      "type": "error"
    },
    {
      "inputs": [],
      "name": "EnglishAuction__InvalidAddress",
      "type": "error"
    },
    {
      "inputs": [
        {
          "internalType": "address",
          "name": "nftAddress",
          "type": "address"
        },
        {
          "internalType": "uint256",
          "name": "tokenId",
          "type": "uint256"
        },
        {
          "internalType": "address",
          "name": "owner",
          "type": "address"
        }
      ],
      "name": "EnglishAuction__NotApproved",
      "type": "error"
    },
    {
      "inputs": [
        {
          "internalType": "address",
          "name": "nftAddress",
          "type": "address"
        },
        {
          "internalType": "uint256",
          "name": "tokenId",
          "type": "uint256"
        },
        {
          "internalType": "address",
          "name": "seller",
          "type": "address"
        }
      ],
      "name": "EnglishAuction__NotOwner",
      "type": "error"
    },
    {
      "inputs": [
        {
          "internalType": "address",
          "name": "seller",
          "type": "address"
        },
        {
          "internalType": "address",
          "name": "bidder",
          "type": "address"
        }
      ],
      "name": "EnglishAuction__SellerIsTheBidder",
      "type": "error"
    },
    {
      "inputs": [],
      "name": "EnglishAuction__TransactionFailed",
      "type": "error"
    },
    {
      "anonymous": false,
      "inputs": [
        {
          "indexed": true,
          "internalType": "address",
          "name": "nftAddress",
          "type": "address"
        },
        {
          "indexed": true,
          "internalType": "uint256",
          "name": "tokenId",
          "type": "uint256"
        }
      ],
      "name": "AuctionCreated",
      "type": "event"
    },
    {
      "anonymous": false,
      "inputs": [
        {
          "indexed": true,
          "internalType": "address",
          "name": "nftAddress",
          "type": "address"
        },
        {
          "indexed": true,
          "internalType": "uint256",
          "name": "tokenId",
          "type": "uint256"
        },
        {
          "indexed": false,
          "internalType": "address",
          "name": "winner",
          "type": "address"
        }
      ],
      "name": "AuctionEnded",
      "type": "event"
    },
    {
      "anonymous": false,
      "inputs": [
        {
          "indexed": true,
          "internalType": "address",
          "name": "nftAddress",
          "type": "address"
        },
        {
          "indexed": true,
          "internalType": "uint256",
          "name": "tokenId",
          "type": "uint256"
        },
        {
          "indexed": false,
          "internalType": "uint256",
          "name": "price",
          "type": "uint256"
        }
      ],
      "name": "NewBid",
      "type": "event"
    },
    {
      "inputs": [
        {
          "internalType": "address",
          "name": "",
          "type": "address"
        },
        {
          "internalType": "uint256",
          "name": "",
          "type": "uint256"
        }
      ],
      "name": "auctions",
      "outputs": [
        {
          "internalType": "address",
          "name": "seller",
          "type": "address"
        },
        {
          "internalType": "address",
          "name": "nftAddress",
          "type": "address"
        },
        {
          "internalType": "uint256",
          "name": "tokenId",
          "type": "uint256"
        },
        {
          "internalType": "uint256",
          "name": "startingAt",
          "type": "uint256"
        },
        {
          "internalType": "uint256",
          "name": "endingAt",
          "type": "uint256"
        },
        {
          "internalType": "uint256",
          "name": "startingPrice",
          "type": "uint256"
        },
        {
          "internalType": "uint256",
          "name": "highestBid",
          "type": "uint256"
        },
        {
          "internalType": "address",
          "name": "highestBidder",
          "type": "address"
        },
        {
          "internalType": "enum EnglishAuction.AuctionStatus",
          "name": "status",
          "type": "uint8"
        }
      ],
      "stateMutability": "view",
      "type": "function"
    },
    {
      "inputs": [
        {
          "internalType": "address",
          "name": "_nftAddress",
          "type": "address"
        },
        {
          "internalType": "uint256",
          "name": "_tokenId",
          "type": "uint256"
        },
        {
          "internalType": "uint256",
          "name": "_bidAmount",
          "type": "uint256"
        }
      ],
      "name": "bid",
      "outputs": [],
      "stateMutability": "payable",
      "type": "function"
    },
    {
      "inputs": [
        {
          "internalType": "address",
          "name": "_nftAddress",
          "type": "address"
        },
        {
          "internalType": "uint256",
          "name": "_tokenId",
          "type": "uint256"
        },
        {
          "internalType": "uint256",
          "name": "_startingPrice",
          "type": "uint256"
        },
        {
          "internalType": "uint256",
          "name": "_duration",
          "type": "uint256"
        }
      ],
      "name": "createAuction",
      "outputs": [],
      "stateMutability": "nonpayable",
      "type": "function"
    },
    {
      "inputs": [],
      "name": "daToken",
      "outputs": [
        {
          "internalType": "contract IERC20",
          "name": "",
          "type": "address"
        }
      ],
      "stateMutability": "view",
      "type": "function"
    },
    {
      "inputs": [
        {
          "internalType": "address",
          "name": "_nftAddress",
          "type": "address"
        },
        {
          "internalType": "uint256",
          "name": "_tokenId",
          "type": "uint256"
        }
      ],
      "name": "endAuction",
      "outputs": [],
      "stateMutability": "nonpayable",
      "type": "function"
    },
    {
      "inputs": [
        {
          "internalType": "address",
          "name": "_nftAddress",
          "type": "address"
        },
        {
          "internalType": "uint256",
          "name": "_tokenId",
          "type": "uint256"
        }
      ],
      "name": "getAuction",
      "outputs": [
        {
          "internalType": "address",
          "name": "seller",
          "type": "address"
        },
        {
          "internalType": "address",
          "name": "nftAddress",
          "type": "address"
        },
        {
          "internalType": "uint256",
          "name": "tokenId",
          "type": "uint256"
        },
        {
          "internalType": "uint256",
          "name": "startingAt",
          "type": "uint256"
        },
        {
          "internalType": "uint256",
          "name": "endingAt",
          "type": "uint256"
        },
        {
          "internalType": "uint256",
          "name": "startingPrice",
          "type": "uint256"
        },
        {
          "internalType": "uint256",
          "name": "highestBid",
          "type": "uint256"
        },
        {
          "internalType": "address",
          "name": "highestBidder",
          "type": "address"
        },
        {
          "components": [
            {
              "internalType": "address",
              "name": "bidder",
              "type": "address"
            },
            {
              "internalType": "uint256",
              "name": "bidAmount",
              "type": "uint256"
            },
            {
              "internalType": "uint256",
              "name": "bidTime",
              "type": "uint256"
            }
          ],
          "internalType": "struct EnglishAuction.Bidder[]",
          "name": "bidders",
          "type": "tuple[]"
        },
        {
          "internalType": "enum EnglishAuction.AuctionStatus",
          "name": "status",
          "type": "uint8"
        }
      ],
      "stateMutability": "view",
      "type": "function"
    }
  ],
  "bytecode": "0x60a060405234801561001057600080fd5b506040516117ce3803806117ce83398101604081905261002f91610067565b6001600160a01b03811661005657604051633ba56bcb60e11b815260040160405180910390fd5b6001600160a01b0316608052610097565b60006020828403121561007957600080fd5b81516001600160a01b038116811461009057600080fd5b9392505050565b6080516117076100c7600039600081816101a5015281816104ec015281816105e80152610eaa01526117076000f3fe6080604052600436106100655760003560e01c8063762a66a211610043578063762a66a21461013d57806388cedbc414610173578063dc0c74cc1461019357600080fd5b80630f41ba4b1461006a57806344f91c1e1461007f57806361beb1d71461011d575b600080fd5b61007d61007836600461141f565b6101df565b005b34801561008b57600080fd5b506100ff61009a366004611454565b60006020818152928152604080822090935290815220805460018201546002830154600384015460048501546005860154600687015460078801546009909801546001600160a01b039788169896881697959694959394929391929091169060ff1689565b604051610114999897969594939291906114ea565b60405180910390f35b34801561012957600080fd5b5061007d61013836600461154b565b6106a7565b34801561014957600080fd5b5061015d610158366004611454565b6109cb565b6040516101149a99989796959493929190611586565b34801561017f57600080fd5b5061007d61018e366004611454565b610b2a565b34801561019f57600080fd5b506101c77f000000000000000000000000000000000000000000000000000000000000000081565b6040516001600160a01b039091168152602001610114565b6001600160a01b03808416600090815260208181526040808320868452825280832081516101408101835281548616815260018201548616818501526002820154818401526003820154606082015260048201546080820152600582015460a0820152600682015460c0820152600782015490951660e08601526008810180548351818602810186019094528084528996899695909461010086019390929091879084015b828210156102d9576000848152602090819020604080516060810182526003860290920180546001600160a01b0316835260018082015484860152600290910154918301919091529083529092019101610284565b50505090825250600982015460209091019060ff1660028111156102ff576102ff611480565b600281111561031057610310611480565b90525090506001816101200151600281111561032e5761032e611480565b1461037c576040517f93e19d490000000000000000000000000000000000000000000000000000000081526001600160a01b0384166004820152602481018390526044015b60405180910390fd5b60008060008061038c8a8a6109cb565b5050975097509750505050509350336001600160a01b0316846001600160a01b0316036103f6576040517fe733694b0000000000000000000000000000000000000000000000000000000081526001600160a01b0385166004820152336024820152604401610373565b6001600160a01b03811661045c5782881015610457576040517f08fff53c0000000000000000000000000000000000000000000000000000000081526001600160a01b038b166004820152602481018a905260448101899052606401610373565b6104ae565b8188116104ae576040517f08fff53c0000000000000000000000000000000000000000000000000000000081526001600160a01b038b166004820152602481018a905260448101899052606401610373565b6040517f23b872dd000000000000000000000000000000000000000000000000000000008152336004820152306024820152604481018990526000907f00000000000000000000000000000000000000000000000000000000000000006001600160a01b0316906323b872dd906064016020604051808303816000875af115801561053d573d6000803e3d6000fd5b505050506040513d601f19601f820116820180604052508101906105619190611645565b90508061059a576040517f5a69fa5700000000000000000000000000000000000000000000000000000000815260040160405180910390fd5b6001600160a01b0382161561068e576040517fa9059cbb0000000000000000000000000000000000000000000000000000000081526001600160a01b038381166004830152602482018590527f0000000000000000000000000000000000000000000000000000000000000000169063a9059cbb906044016020604051808303816000875af1158015610631573d6000803e3d6000fd5b505050506040513d601f19601f820116820180604052508101906106559190611645565b90508061068e576040517f5a69fa5700000000000000000000000000000000000000000000000000000000815260040160405180910390fd5b61069a8b8b338c610fa0565b5050505050505050505050565b6001600160a01b0384166106e7576040517f774ad79600000000000000000000000000000000000000000000000000000000815260040160405180910390fd5b6040517f6352211e0000000000000000000000000000000000000000000000000000000081526004810184905233906001600160a01b03861690636352211e90602401602060405180830381865afa158015610747573d6000803e3d6000fd5b505050506040513d601f19601f8201168201806040525081019061076b919061166e565b6001600160a01b0316146107c3576040517fb13cdd2c0000000000000000000000000000000000000000000000000000000081526001600160a01b038516600482015260248101849052336044820152606401610373565b6040517f081812fc0000000000000000000000000000000000000000000000000000000081526004810184905230906001600160a01b0386169063081812fc90602401602060405180830381865afa158015610823573d6000803e3d6000fd5b505050506040513d601f19601f82011682018060405250810190610847919061166e565b6001600160a01b031614806108de57506040517fe985e9c50000000000000000000000000000000000000000000000000000000081523360048201523060248201526001600160a01b0385169063e985e9c590604401602060405180830381865afa1580156108ba573d6000803e3d6000fd5b505050506040513d601f19601f820116820180604052508101906108de9190611645565b61092c576040517f9a075d660000000000000000000000000000000000000000000000000000000081526001600160a01b038516600482015260248101849052336044820152606401610373565b6001600160a01b03841660009081526020818152604080832086845290915290206002600982015460ff16600281111561096857610968611480565b036109b8576001600160a01b038516600090815260208181526040808320878452909152902060090180547fffffffffffffffffffffffffffffffffffffffffffffffffffffffffffffff001690555b6109c48585858561108c565b5050505050565b60008060008060008060008060606000806000808e6001600160a01b03166001600160a01b0316815260200190815260200160002060008d815260200190815260200160002090508060000160009054906101000a90046001600160a01b03168160010160009054906101000a90046001600160a01b0316826002015483600301548460040154856005015486600601548760070160009054906101000a90046001600160a01b0316886008018960090160009054906101000a900460ff1681805480602002602001604051908101604052809291908181526020016000905b82821015610b00576000848152602090819020604080516060810182526003860290920180546001600160a01b0316835260018082015484860152600290910154918301919091529083529092019101610aab565b5050505091509a509a509a509a509a509a509a509a509a509a50509295989b9194979a5092959850565b6001600160a01b03808316600090815260208181526040808320858452825280832081516101408101835281548616815260018201548616818501526002820154818401526003820154606082015260048201546080820152600582015460a0820152600682015460c0820152600782015490951660e08601526008810180548351818602810186019094528084528896889695909461010086019390929091879084015b82821015610c24576000848152602090819020604080516060810182526003860290920180546001600160a01b0316835260018082015484860152600290910154918301919091529083529092019101610bcf565b50505090825250600982015460209091019060ff166002811115610c4a57610c4a611480565b6002811115610c5b57610c5b611480565b905250905060018161012001516002811115610c7957610c79611480565b14610cc2576040517f93e19d490000000000000000000000000000000000000000000000000000000081526001600160a01b038416600482015260248101839052604401610373565b600080600080610cd289896109cb565b5050975097505096505050509350336001600160a01b0316846001600160a01b031614610d3c576040517faaa90b7a0000000000000000000000000000000000000000000000000000000081523360048201526001600160a01b0385166024820152604401610373565b42831115610d79576040517f198f75e400000000000000000000000000000000000000000000000000000000815260048101849052602401610373565b610d838989611328565b6001600160a01b0381161580610d97575081155b15610de6576040516000815288906001600160a01b038b16907fe0c4b41d54d853b2b6f60078a33a889662b42592856bcd4e749b2f0927a9ac089060200160405180910390a3505050506109c4565b6040517f42842e0e0000000000000000000000000000000000000000000000000000000081526001600160a01b0385811660048301528281166024830152604482018a90528a16906342842e0e90606401600060405180830381600087803b158015610e5157600080fd5b505af1158015610e65573d6000803e3d6000fd5b50506040517fa9059cbb0000000000000000000000000000000000000000000000000000000081526001600160a01b03878116600483015260248201869052600093507f000000000000000000000000000000000000000000000000000000000000000016915063a9059cbb906044016020604051808303816000875af1158015610ef4573d6000803e3d6000fd5b505050506040513d601f19601f82011682018060405250810190610f189190611645565b905080610f51576040517f5a69fa5700000000000000000000000000000000000000000000000000000000815260040160405180910390fd5b6040516001600160a01b0383811682528a91908c16907fe0c4b41d54d853b2b6f60078a33a889662b42592856bcd4e749b2f0927a9ac089060200160405180910390a350505050505050505050565b6001600160a01b0384811660008181526020818152604080832088845282528083206007810180547fffffffffffffffffffffffff00000000000000000000000000000000000000009081168a89169081179092556006830189905583516060810185529182528185018981524283860190815260088501805460018181018355918a529888902094516003909902909401805490931697909916969096178155945190850155945160029093019290925590518481528692917f87f5b2fe112bf269d30fb8ca9dc0bde0afd0cc39258e13fafd75fe794795bf0e910160405180910390a35050505050565b6001600160a01b03808516600090815260208181526040808320878452825280832081516101408101835281548616815260018201548616818501526002820154818401526003820154606082015260048201546080820152600582015460a0820152600682015460c0820152600782015490951660e08601526008810180548351818602810186019094528084528a968a9695909461010086019390929091879084015b82821015611186576000848152602090819020604080516060810182526003860290920180546001600160a01b0316835260018082015484860152600290910154918301919091529083529092019101611131565b50505090825250600982015460209091019060ff1660028111156111ac576111ac611480565b60028111156111bd576111bd611480565b9052509050600081610120015160028111156111db576111db611480565b14611224576040517f5812965f0000000000000000000000000000000000000000000000000000000081526001600160a01b038416600482015260248101839052604401610373565b6001600160a01b0387166000818152602081815260408083208a845290915290208054337fffffffffffffffffffffffff00000000000000000000000000000000000000009182161782556001820180549091169092179091556002810187905542600390910181905561129990859061168b565b6001600160a01b0388166000818152602081815260408083208b8452909152808220600481019490945560058401899055600990930180547fffffffffffffffffffffffffffffffffffffffffffffffffffffffffffffff00166001179055915188927f3249a06bd478adf780bb7930214ad005e9cfa517d63221c0b77f27199d1a58b391a350505050505050565b6001600160a01b03821660009081526020818152604080832084845290915290206009810180547fffffffffffffffffffffffffffffffffffffffffffffffffffffffffffffff001660021790555b6008810154600110156114025780600801805480611397576113976116cb565b60008281526020812060037fffffffffffffffffffffffffffffffffffffffffffffffffffffffffffffffff9093019283020180547fffffffffffffffffffffffff000000000000000000000000000000000000000016815560018101829055600201559055611377565b505050565b6001600160a01b038116811461141c57600080fd5b50565b60008060006060848603121561143457600080fd5b833561143f81611407565b95602085013595506040909401359392505050565b6000806040838503121561146757600080fd5b823561147281611407565b946020939093013593505050565b7f4e487b7100000000000000000000000000000000000000000000000000000000600052602160045260246000fd5b600381106114e6577f4e487b7100000000000000000000000000000000000000000000000000000000600052602160045260246000fd5b9052565b6000610120820190506001600160a01b03808c168352808b1660208401528960408401528860608401528760808401528660a08401528560c084015280851660e08401525061153d6101008301846114af565b9a9950505050505050505050565b6000806000806080858703121561156157600080fd5b843561156c81611407565b966020860135965060408601359560600135945092505050565b60006101408083016001600160a01b03808f1685526020818f16602087015260408e604088015260608e60608901528d60808901528c60a08901528b60c0890152838b1660e08901528561010089015284955089518086526101608901965060208b01955060005b8181101561161d57865180518716895285810151868a01528401518489015296820196958401956001016115ee565b50505050505050809150506116366101208301846114af565b9b9a5050505050505050505050565b60006020828403121561165757600080fd5b8151801515811461166757600080fd5b9392505050565b60006020828403121561168057600080fd5b815161166781611407565b808201808211156116c5577f4e487b7100000000000000000000000000000000000000000000000000000000600052601160045260246000fd5b92915050565b7f4e487b7100000000000000000000000000000000000000000000000000000000600052603160045260246000fdfea164736f6c6343000816000a",
  "linkReferences": {},
  "deployedLinkReferences": {}
}