{
  "_format": "hh-sol-artifact-1",
  "contractName": "TokenSwap",
  "sourceName": "contracts/TokenSwap.sol",
  "abi": [
    {
      "inputs": [
        {
          "internalType": "address",
          "name": "_daToken",
          "type": "address"
        },
        {
          "internalType": "address",
          "name": "_ethPriceFeed",
          "type": "address"
        },
        {
          "internalType": "uint256",
          "name": "_initialDaTokenPrice",
          "type": "uint256"
        },
        {
          "internalType": "uint256",
          "name": "_slippageTolerance",
          "type": "uint256"
        }
      ],
      "stateMutability": "nonpayable",
      "type": "constructor"
    },
    {
      "inputs": [
        {
          "internalType": "address",
          "name": "owner",
          "type": "address"
        }
      ],
      "name": "OwnableInvalidOwner",
      "type": "error"
    },
    {
      "inputs": [
        {
          "internalType": "address",
          "name": "account",
          "type": "address"
        }
      ],
      "name": "OwnableUnauthorizedAccount",
      "type": "error"
    },
    {
      "inputs": [],
      "name": "ReentrancyGuardReentrantCall",
      "type": "error"
    },
    {
      "anonymous": false,
      "inputs": [
        {
          "indexed": true,
          "internalType": "address",
          "name": "previousOwner",
          "type": "address"
        },
        {
          "indexed": true,
          "internalType": "address",
          "name": "newOwner",
          "type": "address"
        }
      ],
      "name": "OwnershipTransferred",
      "type": "event"
    },
    {
      "anonymous": false,
      "inputs": [
        {
          "indexed": false,
          "internalType": "uint256",
          "name": "newPrice",
          "type": "uint256"
        }
      ],
      "name": "PriceUpdated",
      "type": "event"
    },
    {
      "anonymous": false,
      "inputs": [
        {
          "indexed": false,
          "internalType": "uint256",
          "name": "newTolerance",
          "type": "uint256"
        }
      ],
      "name": "SlippageToleranceUpdated",
      "type": "event"
    },
    {
      "anonymous": false,
      "inputs": [
        {
          "indexed": true,
          "internalType": "address",
          "name": "buyer",
          "type": "address"
        },
        {
          "indexed": false,
          "internalType": "uint256",
          "name": "ethAmount",
          "type": "uint256"
        },
        {
          "indexed": false,
          "internalType": "uint256",
          "name": "tokenAmount",
          "type": "uint256"
        }
      ],
      "name": "TokensPurchased",
      "type": "event"
    },
    {
      "anonymous": false,
      "inputs": [
        {
          "indexed": true,
          "internalType": "address",
          "name": "seller",
          "type": "address"
        },
        {
          "indexed": false,
          "internalType": "uint256",
          "name": "tokenAmount",
          "type": "uint256"
        },
        {
          "indexed": false,
          "internalType": "uint256",
          "name": "ethAmount",
          "type": "uint256"
        }
      ],
      "name": "TokensSold",
      "type": "event"
    },
    {
      "inputs": [],
      "name": "buyTokens",
      "outputs": [],
      "stateMutability": "payable",
      "type": "function"
    },
    {
      "inputs": [],
      "name": "daToken",
      "outputs": [
        {
          "internalType": "contract IERC20",
          "name": "",
          "type": "address"
        }
      ],
      "stateMutability": "view",
      "type": "function"
    },
    {
      "inputs": [],
      "name": "daTokenPrice",
      "outputs": [
        {
          "internalType": "uint256",
          "name": "",
          "type": "uint256"
        }
      ],
      "stateMutability": "view",
      "type": "function"
    },
    {
      "inputs": [],
      "name": "emergencyWithdraw",
      "outputs": [],
      "stateMutability": "nonpayable",
      "type": "function"
    },
    {
      "inputs": [],
      "name": "ethPriceFeed",
      "outputs": [
        {
          "internalType": "contract AggregatorV3Interface",
          "name": "",
          "type": "address"
        }
      ],
      "stateMutability": "view",
      "type": "function"
    },
    {
      "inputs": [],
      "name": "getLatestETHPrice",
      "outputs": [
        {
          "internalType": "uint256",
          "name": "",
          "type": "uint256"
        }
      ],
      "stateMutability": "view",
      "type": "function"
    },
    {
      "inputs": [],
      "name": "owner",
      "outputs": [
        {
          "internalType": "address",
          "name": "",
          "type": "address"
        }
      ],
      "stateMutability": "view",
      "type": "function"
    },
    {
      "inputs": [],
      "name": "renounceOwnership",
      "outputs": [],
      "stateMutability": "nonpayable",
      "type": "function"
    },
    {
      "inputs": [
        {
          "internalType": "uint256",
          "name": "tokenAmount",
          "type": "uint256"
        }
      ],
      "name": "sellTokens",
      "outputs": [],
      "stateMutability": "nonpayable",
      "type": "function"
    },
    {
      "inputs": [],
      "name": "slippageTolerance",
      "outputs": [
        {
          "internalType": "uint256",
          "name": "",
          "type": "uint256"
        }
      ],
      "stateMutability": "view",
      "type": "function"
    },
    {
      "inputs": [
        {
          "internalType": "address",
          "name": "newOwner",
          "type": "address"
        }
      ],
      "name": "transferOwnership",
      "outputs": [],
      "stateMutability": "nonpayable",
      "type": "function"
    },
    {
      "inputs": [
        {
          "internalType": "uint256",
          "name": "newPrice",
          "type": "uint256"
        }
      ],
      "name": "updateDaTokenPrice",
      "outputs": [],
      "stateMutability": "nonpayable",
      "type": "function"
    },
    {
      "inputs": [
        {
          "internalType": "uint256",
          "name": "newTolerance",
          "type": "uint256"
        }
      ],
      "name": "updateSlippageTolerance",
      "outputs": [],
      "stateMutability": "nonpayable",
      "type": "function"
    },
    {
      "stateMutability": "payable",
      "type": "receive"
    }
  ],
  "bytecode": "0x6080346100f357601f610f6e38819003918201601f19168301916001600160401b038311848410176100f8578084926080946040528339810103126100f3576100478161010e565b6100536020830161010e565b91606060408201519101519133156100da576000549360018060a01b03908160018060a01b031993338589161760005560405197823391167f8be0079c531659141344cd1fd0a4f28419497f9722a3daafe3b4186f6b6457e0600080a3600180551683600254161760025516906003541617600355600455600555610e4b90816101238239f35b604051631e4fbdf760e01b815260006004820152602490fd5b600080fd5b634e487b7160e01b600052604160045260246000fd5b51906001600160a01b03821682036100f35756fe60406080815260049081361015610020575b5050361561001e57600080fd5b005b600091823560e01c80630f9da74314610a395780636c11bcd314610772578063715018a614610715578063777e0d86146106f15780638da5cb5b146106c957806396c1653514610671578063af7665ce14610648578063d03153aa14610629578063d0febe4c1461034d578063db2e21bc14610197578063dc0c74cc1461016a578063f2fde38b146100dc5763ffde7723146100bc5750610011565b346100d857826003193601126100d85760209250549051908152f35b8280fd5b5090346100d85760203660031901126100d8576001600160a01b038235818116939192908490036101665761010f610d3b565b831561015057505082546001600160a01b0319811683178455167f8be0079c531659141344cd1fd0a4f28419497f9722a3daafe3b4186f6b6457e08380a380f35b51631e4fbdf760e01b8152908101849052602490fd5b8480fd5b50503461019357816003193601126101935760025490516001600160a01b039091168152602090f35b5080fd5b5090346100d857826003193601126100d8576101b1610d3b565b8247806102f6575b505060025481516370a0823160e01b815230848201526020929185916001600160a01b03909116908481602481855afa9081156102ec5783916102bf575b5080610201578280f35b835163a9059cbb60e01b815233878201908152602081019290925292859284928390036040019183915af19081156102b5578591610288575b5015610247578381808280f35b5162461bcd60e51b815291820152601760248201527f546f6b656e207769746864726177616c206661696c6564000000000000000000604482015260649150fd5b6102a89150833d85116102ae575b6102a08183610b1b565b810190610b92565b3861023a565b503d610296565b82513d87823e3d90fd5b90508481813d83116102e5575b6102d68183610b1b565b810103126100d85751386101f7565b503d6102cc565b84513d85823e3d90fd5b81808092335af1610305610bf3565b50156103125782386101b9565b906020606492519162461bcd60e51b83528201526015602482015274115512081dda5d1a191c985dd85b0819985a5b1959605a1b6044820152fd5b5091908160031936011261019357610363610d67565b34156105f757805190670de0b6b3a764000061037e83610ae9565b600d83526103a66020936c2932b1b2b4bb32b21022aa241d60991b8582015282340490610d8a565b6103ca6103b1610c86565b6103c48382046103bf610b3d565b610d8a565b34610b69565b6064810290808204606414901517156105e457855490828202918083048414901517156105d157610434916103fe91610ac9565b9183519061040b82610ae9565b60158252742a37b5b2b71020b6b7bab73a103a379039b2b7321d60591b86830152830490610d8a565b80156105955760025482516370a0823160e01b815230878201526001600160a01b03909116959084816024818a5afa90811561058b579083918791610556575b501061051357825163a9059cbb60e01b815233918101918252602082018390529495849186919082908990829060400103925af19384156102b5577f8fafebcaf9d154343dad25669bfa277f4fbacd7ac6b0c4fed522580e040a0f3393946104e39187916104f6575b50610baf565b8151933485528401523392a26001805580f35b61050d9150863d88116102ae576102a08183610b1b565b386104dd565b825162461bcd60e51b8152908101849052601a60248201527f496e73756666696369656e7420746f6b656e2062616c616e63650000000000006044820152606490fd5b809250868092503d8311610584575b61056f8183610b1b565b810103126105805782905138610474565b8580fd5b503d610565565b84513d88823e3d90fd5b815162461bcd60e51b81528086018490526016602482015275151bdad95b88185b5bdd5b9d081d1bdbc81cdb585b1b60521b6044820152606490fd5b634e487b7160e01b865260118752602486fd5b634e487b7160e01b855260118652602485fd5b5162461bcd60e51b8152602081840152600d60248201526c09aeae6e840e6cadcc8408aa89609b1b6044820152606490fd5b5050346101935781600319360112610193576020906005549051908152f35b50503461019357816003193601126101935760035490516001600160a01b039091168152602090f35b5090346100d85760203660031901126100d857816020917f66cbca4f3c64fecf1dcb9ce094abcf7f68c3450a1d4e3a8e917dd621edb4ebe0933580926106b5610d3b565b6106c0821515610c4a565b5551908152a180f35b505034610193578160031936011261019357905490516001600160a01b039091168152602090f35b50503461019357816003193601126101935760209061070e610c86565b9051908152f35b833461076f578060031936011261076f5761072e610d3b565b80546001600160a01b03198116825581906001600160a01b03167f8be0079c531659141344cd1fd0a4f28419497f9722a3daafe3b4186f6b6457e08280a380f35b80fd5b5091903461019357602090816003193601126100d857833591610793610d67565b82156109f757670de0b6b3a7640000906107d583516107b181610ae9565b600f81526e2a37b5b2b739903a379039b2b6361d60891b8382015283860490610d8a565b6107dd610c86565b956107ec8388046103bf610b3d565b6107f7815486610b69565b96838802978089048514901517156109e45760649781890291898304036109d15761085b9161082591610ac9565b9385519061083282610ae9565b601582527422aa241020b6b7bab73a103a37903932ba3ab9371d60591b85830152850490610d8a565b821561099a5782471061095a5760025484516323b872dd60e01b815233838201523060248201526044810187905290839082908a9082908b906001600160a01b03165af190811561095057906108b79188916109395750610baf565b8580808086335af16108c7610bf3565b50156109035750825193845283015233917f2dcf9433d75db0d8b1c172641f85e319ffe4ad22e108a95d1847ceb906e5195d9190a26001805580f35b869184519162461bcd60e51b83528201526013602482015272115512081d1c985b9cd9995c8819985a5b1959606a1b6044820152fd5b61050d9150843d86116102ae576102a08183610b1b565b85513d89823e3d90fd5b869184519162461bcd60e51b8352820152601860248201527f496e73756666696369656e74204554482062616c616e636500000000000000006044820152fd5b869184519162461bcd60e51b8352820152601460248201527311551208185b5bdd5b9d081d1bdbc81cdb585b1b60621b6044820152fd5b634e487b7160e01b885260118352602488fd5b634e487b7160e01b875260118252602487fd5b8490606492519162461bcd60e51b8352820152601d60248201527f416d6f756e74206d7573742062652067726561746572207468616e20300000006044820152fd5b5090346100d85760203660031901126100d857813591610a57610d3b565b6103e88311610a925750816020917fa3370f7fc7573d713f27ae89ba2f193d4b43991622ff969b0475e2f911aacf1a9360055551908152a180f35b6020606492519162461bcd60e51b835282015260126024820152710a8ded8cae4c2dcc6ca40e8dede40d0d2ced60731b6044820152fd5b8115610ad3570490565b634e487b7160e01b600052601260045260246000fd5b6040810190811067ffffffffffffffff821117610b0557604052565b634e487b7160e01b600052604160045260246000fd5b90601f8019910116810190811067ffffffffffffffff821117610b0557604052565b60405190610b4a82610ae9565b601082526f22aa2410283934b1b290142aa9a2149d60811b6020830152565b81810292918115918404141715610b7c57565b634e487b7160e01b600052601160045260246000fd5b90816020910312610baa57518015158103610baa5790565b600080fd5b15610bb657565b60405162461bcd60e51b8152602060048201526015602482015274151bdad95b881d1c985b9cd9995c8819985a5b1959605a1b6044820152606490fd5b3d15610c2e573d9067ffffffffffffffff8211610b055760405191610c22601f8201601f191660200184610b1b565b82523d6000602084013e565b606090565b519069ffffffffffffffffffff82168203610baa57565b15610c5157565b60405162461bcd60e51b815260206004820152600d60248201526c496e76616c696420707269636560981b6044820152606490fd5b600354604051633fabe5a360e21b81529060a090829060049082906001600160a01b03165afa908115610d2f57600091610ce2575b50610cc860008213610c4a565b6402540be40090818102918183041490151715610b7c5790565b9060a0823d60a011610d27575b81610cfc60a09383610b1b565b8101031261076f5750610d0e81610c33565b50610d20608060208301519201610c33565b5038610cbb565b3d9150610cef565b6040513d6000823e3d90fd5b6000546001600160a01b03163303610d4f57565b60405163118cdaa760e01b8152336004820152602490fd5b600260015414610d78576002600155565b604051633ee5aeb560e01b8152600490fd5b604051906020926020830193632d839cb360e21b85526040602485015282519283606486015260005b848110610e015750505091610dee60848284600097959688848199850101526044830152601f80199101168101036064810184520182610b1b565b51906a636f6e736f6c652e6c6f675afa50565b818101830151868201608401528201610db356fea26469706673582212205cd7af4ae89e8e67d0f1a9ee8444b2de3ca3e4be4392f4cadcf743bc2df92c0364736f6c63430008160033",
  "linkReferences": {},
  "deployedLinkReferences": {}
}