{
  "_format": "hh-sol-artifact-1",
  "contractName": "UniswapV2Query",
  "sourceName": "contracts/UniswapV2Query.sol",
  "abi": [
    {
      "inputs": [
        {
          "internalType": "address",
          "name": "_factory",
          "type": "address"
        }
      ],
      "stateMutability": "nonpayable",
      "type": "constructor"
    },
    {
      "inputs": [],
      "name": "factory",
      "outputs": [
        {
          "internalType": "address",
          "name": "",
          "type": "address"
        }
      ],
      "stateMutability": "view",
      "type": "function"
    },
    {
      "inputs": [],
      "name": "getAllPairsInfo",
      "outputs": [
        {
          "components": [
            {
              "internalType": "address",
              "name": "pair",
              "type": "address"
            },
            {
              "internalType": "address",
              "name": "token0",
              "type": "address"
            },
            {
              "internalType": "address",
              "name": "token1",
              "type": "address"
            },
            {
              "internalType": "uint112",
              "name": "reserve0",
              "type": "uint112"
            },
            {
              "internalType": "uint112",
              "name": "reserve1",
              "type": "uint112"
            },
            {
              "internalType": "uint256",
              "name": "totalSupply",
              "type": "uint256"
            }
          ],
          "internalType": "struct UniswapV2Query.PairInfo[]",
          "name": "",
          "type": "tuple[]"
        }
      ],
      "stateMutability": "view",
      "type": "function"
    },
    {
      "inputs": [
        {
          "internalType": "address",
          "name": "tokenA",
          "type": "address"
        },
        {
          "internalType": "address",
          "name": "tokenB",
          "type": "address"
        }
      ],
      "name": "getPairInfo",
      "outputs": [
        {
          "components": [
            {
              "internalType": "address",
              "name": "pair",
              "type": "address"
            },
            {
              "internalType": "address",
              "name": "token0",
              "type": "address"
            },
            {
              "internalType": "address",
              "name": "token1",
              "type": "address"
            },
            {
              "internalType": "uint112",
              "name": "reserve0",
              "type": "uint112"
            },
            {
              "internalType": "uint112",
              "name": "reserve1",
              "type": "uint112"
            },
            {
              "internalType": "uint256",
              "name": "totalSupply",
              "type": "uint256"
            }
          ],
          "internalType": "struct UniswapV2Query.PairInfo",
          "name": "info",
          "type": "tuple"
        }
      ],
      "stateMutability": "view",
      "type": "function"
    }
  ],
  "bytecode": "0x60a060405234801561001057600080fd5b50604051610d52380380610d5283398101604081905261002f91610040565b6001600160a01b0316608052610070565b60006020828403121561005257600080fd5b81516001600160a01b038116811461006957600080fd5b9392505050565b608051610cb361009f6000396000818160890152818161014b015281816104bd01526106250152610cb36000f3fe608060405234801561001057600080fd5b50600436106100415760003560e01c8063400f7a1e146100465780635c42646c1461006f578063c45a015514610084575b600080fd5b610059610054366004610a35565b6100d0565b6040516100669190610a6e565b60405180910390f35b6100776104b7565b6040516100669190610ae3565b6100ab7f000000000000000000000000000000000000000000000000000000000000000081565b60405173ffffffffffffffffffffffffffffffffffffffff9091168152602001610066565b6040805160c081018252600080825260208201819052818301819052606082018190526080820181905260a082015290517fe6a4390500000000000000000000000000000000000000000000000000000000815273ffffffffffffffffffffffffffffffffffffffff848116600483015283811660248301527f0000000000000000000000000000000000000000000000000000000000000000169063e6a4390590604401602060405180830381865afa158015610192573d6000803e3d6000fd5b505050506040513d601f19601f820116820180604052508101906101b69190610b98565b73ffffffffffffffffffffffffffffffffffffffff16808252610239576040517f08c379a000000000000000000000000000000000000000000000000000000000815260206004820152601e60248201527f556e697377617056323a20504149525f444f45535f4e4f545f45584953540000604482015260640160405180910390fd5b6000816000015190508073ffffffffffffffffffffffffffffffffffffffff16630dfe16816040518163ffffffff1660e01b8152600401602060405180830381865afa15801561028d573d6000803e3d6000fd5b505050506040513d601f19601f820116820180604052508101906102b19190610b98565b826020019073ffffffffffffffffffffffffffffffffffffffff16908173ffffffffffffffffffffffffffffffffffffffff16815250508073ffffffffffffffffffffffffffffffffffffffff1663d21220a76040518163ffffffff1660e01b8152600401602060405180830381865afa158015610333573d6000803e3d6000fd5b505050506040513d601f19601f820116820180604052508101906103579190610b98565b826040019073ffffffffffffffffffffffffffffffffffffffff16908173ffffffffffffffffffffffffffffffffffffffff16815250508073ffffffffffffffffffffffffffffffffffffffff16630902f1ac6040518163ffffffff1660e01b8152600401606060405180830381865afa1580156103d9573d6000803e3d6000fd5b505050506040513d601f19601f820116820180604052508101906103fd9190610bdf565b506dffffffffffffffffffffffffffff9081166080850152166060830152604080517f18160ddd000000000000000000000000000000000000000000000000000000008152905173ffffffffffffffffffffffffffffffffffffffff8316916318160ddd9160048083019260209291908290030181865afa158015610486573d6000803e3d6000fd5b505050506040513d601f19601f820116820180604052508101906104aa9190610c2f565b60a0830152505b92915050565b606060007f000000000000000000000000000000000000000000000000000000000000000073ffffffffffffffffffffffffffffffffffffffff1663574f2ba36040518163ffffffff1660e01b8152600401602060405180830381865afa158015610526573d6000803e3d6000fd5b505050506040513d601f19601f8201168201806040525081019061054a9190610c2f565b905060008167ffffffffffffffff81111561056757610567610c48565b6040519080825280602002602001820160405280156105e557816020015b6040805160c08101825260008082526020808301829052928201819052606082018190526080820181905260a082015282527fffffffffffffffffffffffffffffffffffffffffffffffffffffffffffffffff9092019101816105855790505b50905060005b82811015610a09576040517f1e3dd18b000000000000000000000000000000000000000000000000000000008152600481018290526000907f000000000000000000000000000000000000000000000000000000000000000073ffffffffffffffffffffffffffffffffffffffff1690631e3dd18b90602401602060405180830381865afa158015610681573d6000803e3d6000fd5b505050506040513d601f19601f820116820180604052508101906106a59190610b98565b90506000819050818484815181106106bf576106bf610c77565b60200260200101516000019073ffffffffffffffffffffffffffffffffffffffff16908173ffffffffffffffffffffffffffffffffffffffff16815250508073ffffffffffffffffffffffffffffffffffffffff16630dfe16816040518163ffffffff1660e01b8152600401602060405180830381865afa158015610748573d6000803e3d6000fd5b505050506040513d601f19601f8201168201806040525081019061076c9190610b98565b84848151811061077e5761077e610c77565b60200260200101516020019073ffffffffffffffffffffffffffffffffffffffff16908173ffffffffffffffffffffffffffffffffffffffff16815250508073ffffffffffffffffffffffffffffffffffffffff1663d21220a76040518163ffffffff1660e01b8152600401602060405180830381865afa158015610807573d6000803e3d6000fd5b505050506040513d601f19601f8201168201806040525081019061082b9190610b98565b84848151811061083d5761083d610c77565b60200260200101516040019073ffffffffffffffffffffffffffffffffffffffff16908173ffffffffffffffffffffffffffffffffffffffff16815250508073ffffffffffffffffffffffffffffffffffffffff16630902f1ac6040518163ffffffff1660e01b8152600401606060405180830381865afa1580156108c6573d6000803e3d6000fd5b505050506040513d601f19601f820116820180604052508101906108ea9190610bdf565b508585815181106108fd576108fd610c77565b602002602001015160600186868151811061091a5761091a610c77565b6020026020010151608001826dffffffffffffffffffffffffffff166dffffffffffffffffffffffffffff16815250826dffffffffffffffffffffffffffff166dffffffffffffffffffffffffffff1681525050508073ffffffffffffffffffffffffffffffffffffffff166318160ddd6040518163ffffffff1660e01b8152600401602060405180830381865afa1580156109ba573d6000803e3d6000fd5b505050506040513d601f19601f820116820180604052508101906109de9190610c2f565b8484815181106109f0576109f0610c77565b602090810291909101015160a0015250506001016105eb565b5092915050565b73ffffffffffffffffffffffffffffffffffffffff81168114610a3257600080fd5b50565b60008060408385031215610a4857600080fd5b8235610a5381610a10565b91506020830135610a6381610a10565b809150509250929050565b60c081016104b1828473ffffffffffffffffffffffffffffffffffffffff8082511683528060208301511660208401528060408301511660408401525060608101516dffffffffffffffffffffffffffff8082166060850152806080840151166080850152505060a081015160a08301525050565b6020808252825182820181905260009190848201906040850190845b81811015610b8c57610b7983855173ffffffffffffffffffffffffffffffffffffffff8082511683528060208301511660208401528060408301511660408401525060608101516dffffffffffffffffffffffffffff8082166060850152806080840151166080850152505060a081015160a08301525050565b9284019260c09290920191600101610aff565b50909695505050505050565b600060208284031215610baa57600080fd5b8151610bb581610a10565b9392505050565b80516dffffffffffffffffffffffffffff81168114610bda57600080fd5b919050565b600080600060608486031215610bf457600080fd5b610bfd84610bbc565b9250610c0b60208501610bbc565b9150604084015163ffffffff81168114610c2457600080fd5b809150509250925092565b600060208284031215610c4157600080fd5b5051919050565b7f4e487b7100000000000000000000000000000000000000000000000000000000600052604160045260246000fd5b7f4e487b7100000000000000000000000000000000000000000000000000000000600052603260045260246000fdfea164736f6c6343000816000a",
  "linkReferences": {},
  "deployedLinkReferences": {}
}