{
  "_format": "hh-sol-artifact-1",
  "contractName": "UniswapV2Factory",
  "sourceName": "contracts/UniswapV2Factory.sol",
  "abi": [
    {
      "inputs": [
        {
          "internalType": "address",
          "name": "_feeToSetter",
          "type": "address"
        }
      ],
      "stateMutability": "nonpayable",
      "type": "constructor"
    },
    {
      "anonymous": false,
      "inputs": [
        {
          "indexed": true,
          "internalType": "address",
          "name": "token0",
          "type": "address"
        },
        {
          "indexed": true,
          "internalType": "address",
          "name": "token1",
          "type": "address"
        },
        {
          "indexed": false,
          "internalType": "address",
          "name": "pair",
          "type": "address"
        },
        {
          "indexed": false,
          "internalType": "uint256",
          "name": "",
          "type": "uint256"
        }
      ],
      "name": "PairCreated",
      "type": "event"
    },
    {
      "inputs": [],
      "name": "PAIR_HASH",
      "outputs": [
        {
          "internalType": "bytes32",
          "name": "",
          "type": "bytes32"
        }
      ],
      "stateMutability": "view",
      "type": "function"
    },
    {
      "inputs": [
        {
          "internalType": "uint256",
          "name": "",
          "type": "uint256"
        }
      ],
      "name": "allPairs",
      "outputs": [
        {
          "internalType": "address",
          "name": "",
          "type": "address"
        }
      ],
      "stateMutability": "view",
      "type": "function"
    },
    {
      "inputs": [],
      "name": "allPairsLength",
      "outputs": [
        {
          "internalType": "uint256",
          "name": "",
          "type": "uint256"
        }
      ],
      "stateMutability": "view",
      "type": "function"
    },
    {
      "inputs": [
        {
          "internalType": "address",
          "name": "tokenA",
          "type": "address"
        },
        {
          "internalType": "address",
          "name": "tokenB",
          "type": "address"
        }
      ],
      "name": "createPair",
      "outputs": [
        {
          "internalType": "address",
          "name": "pair",
          "type": "address"
        }
      ],
      "stateMutability": "nonpayable",
      "type": "function"
    },
    {
      "inputs": [],
      "name": "feeTo",
      "outputs": [
        {
          "internalType": "address",
          "name": "",
          "type": "address"
        }
      ],
      "stateMutability": "view",
      "type": "function"
    },
    {
      "inputs": [],
      "name": "feeToSetter",
      "outputs": [
        {
          "internalType": "address",
          "name": "",
          "type": "address"
        }
      ],
      "stateMutability": "view",
      "type": "function"
    },
    {
      "inputs": [
        {
          "internalType": "address",
          "name": "",
          "type": "address"
        },
        {
          "internalType": "address",
          "name": "",
          "type": "address"
        }
      ],
      "name": "getPair",
      "outputs": [
        {
          "internalType": "address",
          "name": "",
          "type": "address"
        }
      ],
      "stateMutability": "view",
      "type": "function"
    },
    {
      "inputs": [
        {
          "internalType": "address",
          "name": "_feeTo",
          "type": "address"
        }
      ],
      "name": "setFeeTo",
      "outputs": [],
      "stateMutability": "nonpayable",
      "type": "function"
    },
    {
      "inputs": [
        {
          "internalType": "address",
          "name": "_feeToSetter",
          "type": "address"
        }
      ],
      "name": "setFeeToSetter",
      "outputs": [],
      "stateMutability": "nonpayable",
      "type": "function"
    }
  ],
  "bytecode": "0x608060405234801561001057600080fd5b506040516131f63803806131f683398101604081905261002f91610054565b600180546001600160a01b0319166001600160a01b0392909216919091179055610084565b60006020828403121561006657600080fd5b81516001600160a01b038116811461007d57600080fd5b9392505050565b613163806100936000396000f3fe608060405234801561001057600080fd5b50600436106100a35760003560e01c806364f91c7211610076578063c9c653961161005b578063c9c6539614610154578063e6a4390514610167578063f46901ed146101a857600080fd5b806364f91c7214610137578063a2e74af61461013f57600080fd5b8063017e7e58146100a8578063094b7415146100f25780631e3dd18b14610112578063574f2ba314610125575b600080fd5b6000546100c89073ffffffffffffffffffffffffffffffffffffffff1681565b60405173ffffffffffffffffffffffffffffffffffffffff90911681526020015b60405180910390f35b6001546100c89073ffffffffffffffffffffffffffffffffffffffff1681565b6100c86101203660046107b5565b6101bb565b6003545b6040519081526020016100e9565b6101296101f2565b61015261014d3660046107f7565b61021f565b005b6100c8610162366004610819565b6102ec565b6100c8610175366004610819565b600260209081526000928352604080842090915290825290205473ffffffffffffffffffffffffffffffffffffffff1681565b6101526101b63660046107f7565b6106e0565b600381815481106101cb57600080fd5b60009182526020909120015473ffffffffffffffffffffffffffffffffffffffff16905081565b604051610201602082016107a8565b6020820181038252601f19601f820116604052508051906020012081565b60015473ffffffffffffffffffffffffffffffffffffffff1633146102a5576040517f08c379a000000000000000000000000000000000000000000000000000000000815260206004820152601460248201527f556e697377617056323a20464f5242494444454e00000000000000000000000060448201526064015b60405180910390fd5b600180547fffffffffffffffffffffffff00000000000000000000000000000000000000001673ffffffffffffffffffffffffffffffffffffffff92909216919091179055565b60008173ffffffffffffffffffffffffffffffffffffffff168373ffffffffffffffffffffffffffffffffffffffff1603610383576040517f08c379a000000000000000000000000000000000000000000000000000000000815260206004820152601e60248201527f556e697377617056323a204944454e544943414c5f4144445245535345530000604482015260640161029c565b6000808373ffffffffffffffffffffffffffffffffffffffff168573ffffffffffffffffffffffffffffffffffffffff16106103c05783856103c3565b84845b909250905073ffffffffffffffffffffffffffffffffffffffff8216610445576040517f08c379a000000000000000000000000000000000000000000000000000000000815260206004820152601760248201527f556e697377617056323a205a45524f5f41444452455353000000000000000000604482015260640161029c565b73ffffffffffffffffffffffffffffffffffffffff8281166000908152600260209081526040808320858516845290915290205416156104e1576040517f08c379a000000000000000000000000000000000000000000000000000000000815260206004820152601660248201527f556e697377617056323a20504149525f45584953545300000000000000000000604482015260640161029c565b6040517fffffffffffffffffffffffffffffffffffffffff000000000000000000000000606084811b8216602084015283901b1660348201526048016040516020818303038152906040528051906020012060405161053f906107a8565b8190604051809103906000f590508015801561055f573d6000803e3d6000fd5b506040517f485cc95500000000000000000000000000000000000000000000000000000000815273ffffffffffffffffffffffffffffffffffffffff848116600483015283811660248301529194509084169063485cc95590604401600060405180830381600087803b1580156105d557600080fd5b505af11580156105e9573d6000803e3d6000fd5b5050505073ffffffffffffffffffffffffffffffffffffffff82811660008181526002602081815260408084208787168086529083528185208054978b167fffffffffffffffffffffffff000000000000000000000000000000000000000098891681179091559383528185208686528352818520805488168517905560038054600181018255958190527fc2575a0e9e593c00f959f8c92f12db2869c3395a3b0502d05e2516446f71f85b9095018054909716841790965592548351928352908201527f0d3648bd0f6ba80134a33ba9275ac585d9d315f0ad8355cddefde31afa28d0e9910160405180910390a3505092915050565b60015473ffffffffffffffffffffffffffffffffffffffff163314610761576040517f08c379a000000000000000000000000000000000000000000000000000000000815260206004820152601460248201527f556e697377617056323a20464f5242494444454e000000000000000000000000604482015260640161029c565b600080547fffffffffffffffffffffffff00000000000000000000000000000000000000001673ffffffffffffffffffffffffffffffffffffffff92909216919091179055565b61290a8061084d83390190565b6000602082840312156107c757600080fd5b5035919050565b803573ffffffffffffffffffffffffffffffffffffffff811681146107f257600080fd5b919050565b60006020828403121561080957600080fd5b610812826107ce565b9392505050565b6000806040838503121561082c57600080fd5b610835836107ce565b9150610843602084016107ce565b9050925092905056fe60806040526001600c5534801561001557600080fd5b50604080518082018252600a8152692ab734b9bbb0b8102b1960b11b6020918201528151808301835260018152603160f81b9082015281517f8b73c3c69bb8fe3d512ecc4cf759cc79239f7b179b0ffacaa9a75d522b39400f918101919091527fbfcc8ef98ffbf7b6c3fec7bf5185b566b9863e35a9d83acd49ad6824b5969738918101919091527fc89efdaa54c0f20c7adf612882df0950f5a951637e0307cdcb4c672f298b8bc660608201524660808201523060a082015260c00160408051601f198184030181529190528051602090910120600355600580546001600160a01b031916331790556127fc8061010e6000396000f3fe608060405234801561001057600080fd5b50600436106101b95760003560e01c80636a627842116100f9578063ba9a7a5611610097578063d21220a711610071578063d21220a71461049b578063d505accf146104bb578063dd62ed3e146104ce578063fff6cae9146104f957600080fd5b8063ba9a7a561461045f578063bc25cf7714610468578063c45a01551461047b57600080fd5b80637ecebe00116100d35780637ecebe00146103c857806389afcb44146103e857806395d89b4114610410578063a9059cbb1461044c57600080fd5b80636a6278421461038c57806370a082311461039f5780637464fc3d146103bf57600080fd5b806323b872dd116101665780633644e515116101405780633644e5151461035e578063485cc955146103675780635909c0d51461037a5780635a3d54931461038357600080fd5b806323b872dd1461030a57806330adf81f1461031d578063313ce5671461034457600080fd5b8063095ea7b311610197578063095ea7b31461028b5780630dfe1681146102ae57806318160ddd146102f357600080fd5b8063022c0d9f146101be57806306fdde03146101d35780630902f1ac14610225575b600080fd5b6101d16101cc366004612341565b610501565b005b61020f6040518060400160405280600a81526020017f556e69737761702056320000000000000000000000000000000000000000000081525081565b60405161021c91906123fb565b60405180910390f35b600854604080516dffffffffffffffffffffffffffff80841682526e01000000000000000000000000000084041660208201527c010000000000000000000000000000000000000000000000000000000090920463ffffffff169082015260600161021c565b61029e61029936600461244c565b610ba3565b604051901515815260200161021c565b6006546102ce9073ffffffffffffffffffffffffffffffffffffffff1681565b60405173ffffffffffffffffffffffffffffffffffffffff909116815260200161021c565b6102fc60005481565b60405190815260200161021c565b61029e610318366004612478565b610bba565b6102fc7f6e71edae12b1b97f4d1f60370fef10105fa2faae0126114a169c64845d6126c981565b61034c601281565b60405160ff909116815260200161021c565b6102fc60035481565b6101d16103753660046124b9565b610c6c565b6102fc60095481565b6102fc600a5481565b6102fc61039a3660046124f2565b610d26565b6102fc6103ad3660046124f2565b60016020526000908152604090205481565b6102fc600b5481565b6102fc6103d63660046124f2565b60046020526000908152604090205481565b6103fb6103f63660046124f2565b61109f565b6040805192835260208301919091520161021c565b61020f6040518060400160405280600681526020017f554e492d5632000000000000000000000000000000000000000000000000000081525081565b61029e61045a36600461244c565b6114be565b6102fc6103e881565b6101d16104763660046124f2565b6114cb565b6005546102ce9073ffffffffffffffffffffffffffffffffffffffff1681565b6007546102ce9073ffffffffffffffffffffffffffffffffffffffff1681565b6101d16104c936600461250f565b611641565b6102fc6104dc3660046124b9565b600260209081526000928352604080842090915290825290205481565b6101d16118f8565b600c546001146105585760405162461bcd60e51b815260206004820152601160248201527f556e697377617056323a204c4f434b454400000000000000000000000000000060448201526064015b60405180910390fd5b6000600c558415158061056b5750600084115b6105dd5760405162461bcd60e51b815260206004820152602560248201527f556e697377617056323a20494e53554646494349454e545f4f55545055545f4160448201527f4d4f554e54000000000000000000000000000000000000000000000000000000606482015260840161054f565b6000806106396008546dffffffffffffffffffffffffffff808216926e01000000000000000000000000000083049091169163ffffffff7c01000000000000000000000000000000000000000000000000000000009091041690565b5091509150816dffffffffffffffffffffffffffff168710801561066c5750806dffffffffffffffffffffffffffff1686105b6106de5760405162461bcd60e51b815260206004820152602160248201527f556e697377617056323a20494e53554646494349454e545f4c4951554944495460448201527f5900000000000000000000000000000000000000000000000000000000000000606482015260840161054f565b600654600754600091829173ffffffffffffffffffffffffffffffffffffffff91821691908116908916821480159061074357508073ffffffffffffffffffffffffffffffffffffffff168973ffffffffffffffffffffffffffffffffffffffff1614155b61078f5760405162461bcd60e51b815260206004820152601560248201527f556e697377617056323a20494e56414c49445f544f0000000000000000000000604482015260640161054f565b8a156107a0576107a0828a8d611a78565b89156107b1576107b1818a8c611a78565b8615610844576040517f10d1e85c00000000000000000000000000000000000000000000000000000000815273ffffffffffffffffffffffffffffffffffffffff8a16906310d1e85c906108119033908f908f908e908e90600401612586565b600060405180830381600087803b15801561082b57600080fd5b505af115801561083f573d6000803e3d6000fd5b505050505b6040516370a0823160e01b815230600482015273ffffffffffffffffffffffffffffffffffffffff8316906370a0823190602401602060405180830381865afa158015610895573d6000803e3d6000fd5b505050506040513d601f19601f820116820180604052508101906108b991906125fe565b6040516370a0823160e01b815230600482015290945073ffffffffffffffffffffffffffffffffffffffff8216906370a0823190602401602060405180830381865afa15801561090d573d6000803e3d6000fd5b505050506040513d601f19601f8201168201806040525081019061093191906125fe565b92505050600089856dffffffffffffffffffffffffffff166109539190612646565b8311610960576000610984565b61097a8a6dffffffffffffffffffffffffffff8716612646565b6109849084612646565b905060006109a28a6dffffffffffffffffffffffffffff8716612646565b83116109af5760006109d3565b6109c98a6dffffffffffffffffffffffffffff8716612646565b6109d39084612646565b905060008211806109e45750600081115b610a555760405162461bcd60e51b8152602060048201526024808201527f556e697377617056323a20494e53554646494349454e545f494e5055545f414d60448201527f4f554e5400000000000000000000000000000000000000000000000000000000606482015260840161054f565b6000610a62836003612659565b610a6e866103e8612659565b610a789190612646565b90506000610a87836003612659565b610a93866103e8612659565b610a9d9190612646565b9050610abc6dffffffffffffffffffffffffffff808916908a16612659565b610ac990620f4240612659565b610ad38284612659565b1015610b215760405162461bcd60e51b815260206004820152600c60248201527f556e697377617056323a204b0000000000000000000000000000000000000000604482015260640161054f565b5050610b2f84848888611bce565b60408051838152602081018390529081018c9052606081018b905273ffffffffffffffffffffffffffffffffffffffff8a169033907fd78ad95fa46c994b6551d0da85fc275fe613ce37657fb8d5e3d130840159d8229060800160405180910390a350506001600c55505050505050505050565b6000610bb0338484611e5c565b5060015b92915050565b73ffffffffffffffffffffffffffffffffffffffff831660009081526002602090815260408083203384529091528120547fffffffffffffffffffffffffffffffffffffffffffffffffffffffffffffffff14610c575773ffffffffffffffffffffffffffffffffffffffff8416600090815260026020908152604080832033845290915281208054849290610c51908490612646565b90915550505b610c62848484611ecb565b5060019392505050565b60055473ffffffffffffffffffffffffffffffffffffffff163314610cd35760405162461bcd60e51b815260206004820152601460248201527f556e697377617056323a20464f5242494444454e000000000000000000000000604482015260640161054f565b6006805473ffffffffffffffffffffffffffffffffffffffff9384167fffffffffffffffffffffffff00000000000000000000000000000000000000009182161790915560078054929093169116179055565b6000600c54600114610d7a5760405162461bcd60e51b815260206004820152601160248201527f556e697377617056323a204c4f434b4544000000000000000000000000000000604482015260640161054f565b6000600c819055600854600654604080516370a0823160e01b815230600482015290516dffffffffffffffffffffffffffff808516956e01000000000000000000000000000090950416939273ffffffffffffffffffffffffffffffffffffffff16916370a082319160248083019260209291908290030181865afa158015610e07573d6000803e3d6000fd5b505050506040513d601f19601f82011682018060405250810190610e2b91906125fe565b6007546040516370a0823160e01b815230600482015291925060009173ffffffffffffffffffffffffffffffffffffffff909116906370a0823190602401602060405180830381865afa158015610e86573d6000803e3d6000fd5b505050506040513d601f19601f82011682018060405250810190610eaa91906125fe565b90506000610ec86dffffffffffffffffffffffffffff861684612646565b90506000610ee66dffffffffffffffffffffffffffff861684612646565b90506000610ef48787611fa0565b60008054919250819003610f35576103e8610f17610f128587612659565b61210d565b610f219190612646565b9850610f3060006103e861217d565b610f8a565b610f876dffffffffffffffffffffffffffff8916610f538387612659565b610f5d919061269f565b6dffffffffffffffffffffffffffff8916610f788487612659565b610f82919061269f565b612220565b98505b600089116110005760405162461bcd60e51b815260206004820152602860248201527f556e697377617056323a20494e53554646494349454e545f4c4951554944495460448201527f595f4d494e544544000000000000000000000000000000000000000000000000606482015260840161054f565b61100a8a8a61217d565b61101686868a8a611bce565b81156110515760085461104d906dffffffffffffffffffffffffffff6e010000000000000000000000000000820481169116612659565b600b555b604080518581526020810185905233917f4c209b5fc8ad50758f13e2e1088ba56a560dff690a1c6fef26394f4c03821c4f910160405180910390a250506001600c5550949695505050505050565b600080600c546001146110f45760405162461bcd60e51b815260206004820152601160248201527f556e697377617056323a204c4f434b4544000000000000000000000000000000604482015260640161054f565b6000600c819055600854600654600754604080516370a0823160e01b815230600482015290516dffffffffffffffffffffffffffff808616966e010000000000000000000000000000909604169473ffffffffffffffffffffffffffffffffffffffff94851694909316929184916370a08231916024808201926020929091908290030181865afa15801561118d573d6000803e3d6000fd5b505050506040513d601f19601f820116820180604052508101906111b191906125fe565b6040516370a0823160e01b815230600482015290915060009073ffffffffffffffffffffffffffffffffffffffff8416906370a0823190602401602060405180830381865afa158015611208573d6000803e3d6000fd5b505050506040513d601f19601f8201168201806040525081019061122c91906125fe565b306000908152600160205260408120549192506112498888611fa0565b6000549091508061125a8685612659565b611264919061269f565b9a50806112718585612659565b61127b919061269f565b995060008b11801561128d575060008a115b6112ff5760405162461bcd60e51b815260206004820152602860248201527f556e697377617056323a20494e53554646494349454e545f4c4951554944495460448201527f595f4255524e4544000000000000000000000000000000000000000000000000606482015260840161054f565b6113093084612238565b611314878d8d611a78565b61131f868d8c611a78565b6040516370a0823160e01b815230600482015273ffffffffffffffffffffffffffffffffffffffff8816906370a0823190602401602060405180830381865afa158015611370573d6000803e3d6000fd5b505050506040513d601f19601f8201168201806040525081019061139491906125fe565b6040516370a0823160e01b815230600482015290955073ffffffffffffffffffffffffffffffffffffffff8716906370a0823190602401602060405180830381865afa1580156113e8573d6000803e3d6000fd5b505050506040513d601f19601f8201168201806040525081019061140c91906125fe565b935061141a85858b8b611bce565b811561145557600854611451906dffffffffffffffffffffffffffff6e010000000000000000000000000000820481169116612659565b600b555b604080518c8152602081018c905273ffffffffffffffffffffffffffffffffffffffff8e169133917fdccd412f0b1252819cb1fd330b93224ca42612892bb3f4f789976e6d81936496910160405180910390a35050505050505050506001600c81905550915091565b6000610bb0338484611ecb565b600c5460011461151d5760405162461bcd60e51b815260206004820152601160248201527f556e697377617056323a204c4f434b4544000000000000000000000000000000604482015260640161054f565b6000600c556006546007546008546040516370a0823160e01b815230600482015273ffffffffffffffffffffffffffffffffffffffff93841693909216916115d091849186916dffffffffffffffffffffffffffff169083906370a08231906024015b602060405180830381865afa15801561159d573d6000803e3d6000fd5b505050506040513d601f19601f820116820180604052508101906115c191906125fe565b6115cb9190612646565b611a78565b6008546040516370a0823160e01b815230600482015261163791839186916e01000000000000000000000000000090046dffffffffffffffffffffffffffff169073ffffffffffffffffffffffffffffffffffffffff8416906370a0823190602401611580565b50506001600c5550565b428410156116915760405162461bcd60e51b815260206004820152601260248201527f556e697377617056323a20455850495245440000000000000000000000000000604482015260640161054f565b60035473ffffffffffffffffffffffffffffffffffffffff8816600090815260046020526040812080549192917f6e71edae12b1b97f4d1f60370fef10105fa2faae0126114a169c64845d6126c9918b918b918b9190876116f1836126b3565b9091555060408051602081019690965273ffffffffffffffffffffffffffffffffffffffff94851690860152929091166060840152608083015260a082015260c0810187905260e001604051602081830303815290604052805190602001206040516020016117929291907f190100000000000000000000000000000000000000000000000000000000000081526002810192909252602282015260420190565b604080517fffffffffffffffffffffffffffffffffffffffffffffffffffffffffffffffe08184030181528282528051602091820120600080855291840180845281905260ff88169284019290925260608301869052608083018590529092509060019060a0016020604051602081039080840390855afa15801561181b573d6000803e3d6000fd5b50506040517fffffffffffffffffffffffffffffffffffffffffffffffffffffffffffffffe0015191505073ffffffffffffffffffffffffffffffffffffffff81161580159061189657508873ffffffffffffffffffffffffffffffffffffffff168173ffffffffffffffffffffffffffffffffffffffff16145b6118e25760405162461bcd60e51b815260206004820152601c60248201527f556e697377617056323a20494e56414c49445f5349474e415455524500000000604482015260640161054f565b6118ed898989611e5c565b505050505050505050565b600c5460011461194a5760405162461bcd60e51b815260206004820152601160248201527f556e697377617056323a204c4f434b4544000000000000000000000000000000604482015260640161054f565b6000600c556006546040516370a0823160e01b8152306004820152611a719173ffffffffffffffffffffffffffffffffffffffff16906370a0823190602401602060405180830381865afa1580156119a6573d6000803e3d6000fd5b505050506040513d601f19601f820116820180604052508101906119ca91906125fe565b6007546040516370a0823160e01b815230600482015273ffffffffffffffffffffffffffffffffffffffff909116906370a0823190602401602060405180830381865afa158015611a1f573d6000803e3d6000fd5b505050506040513d601f19601f82011682018060405250810190611a4391906125fe565b6008546dffffffffffffffffffffffffffff808216916e010000000000000000000000000000900416611bce565b6001600c55565b6040805173ffffffffffffffffffffffffffffffffffffffff8481166024830152604480830185905283518084039091018152606490920183526020820180517bffffffffffffffffffffffffffffffffffffffffffffffffffffffff167fa9059cbb000000000000000000000000000000000000000000000000000000001790529151600092839290871691611b0f91906126eb565b6000604051808303816000865af19150503d8060008114611b4c576040519150601f19603f3d011682016040523d82523d6000602084013e611b51565b606091505b5091509150818015611b7b575080511580611b7b575080806020019051810190611b7b9190612707565b611bc75760405162461bcd60e51b815260206004820152601a60248201527f556e697377617056323a205452414e534645525f4641494c4544000000000000604482015260640161054f565b5050505050565b6dffffffffffffffffffffffffffff8411801590611bfa57506dffffffffffffffffffffffffffff8311155b611c465760405162461bcd60e51b815260206004820152601360248201527f556e697377617056323a204f564552464c4f5700000000000000000000000000604482015260640161054f565b6000611c5764010000000042612729565b60085490915063ffffffff7c01000000000000000000000000000000000000000000000000000000009091048116820390811615801590611ca757506dffffffffffffffffffffffffffff841615155b8015611cc257506dffffffffffffffffffffffffffff831615155b15611d6c578063ffffffff16611cff85611cdb866122d5565b7bffffffffffffffffffffffffffffffffffffffffffffffffffffffff1690612300565b600980547bffffffffffffffffffffffffffffffffffffffffffffffffffffffff929092169290920201905563ffffffff8116611d3f84611cdb876122d5565b600a80547bffffffffffffffffffffffffffffffffffffffffffffffffffffffff92909216929092020190555b506008805463ffffffff83167c0100000000000000000000000000000000000000000000000000000000027bffffffffffffffffffffffffffffffffffffffffffffffffffffffff6dffffffffffffffffffffffffffff8881166e0100000000000000000000000000009081027fffffffff000000000000000000000000000000000000000000000000000000009095168b83161794909417918216831794859055604080519382169282169290921783529290930490911660208201527f1c411e9a96e071241c2f21f7726b17ae89e3cab4c78be50e062b03a9fffbbad1910160405180910390a15050505050565b73ffffffffffffffffffffffffffffffffffffffff83811660008181526002602090815260408083209487168084529482529182902085905590518481527f8c5be1e5ebec7d5bd14f71427d1e84f3dd0314c0f7b2291e5b200ac8c7c3b92591015b60405180910390a3505050565b73ffffffffffffffffffffffffffffffffffffffff831660009081526001602052604081208054839290611f00908490612646565b909155505073ffffffffffffffffffffffffffffffffffffffff821660009081526001602052604081208054839290611f3a90849061273d565b925050819055508173ffffffffffffffffffffffffffffffffffffffff168373ffffffffffffffffffffffffffffffffffffffff167fddf252ad1be2c89b69c2b068fc378daa952ba7f163c4a11628f55a4df523b3ef83604051611ebe91815260200190565b600080600560009054906101000a900473ffffffffffffffffffffffffffffffffffffffff1673ffffffffffffffffffffffffffffffffffffffff1663017e7e586040518163ffffffff1660e01b8152600401602060405180830381865afa158015612010573d6000803e3d6000fd5b505050506040513d601f19601f820116820180604052508101906120349190612750565b600b5473ffffffffffffffffffffffffffffffffffffffff82161580159450919250906120f95780156120f4576000612083610f126dffffffffffffffffffffffffffff808816908916612659565b905060006120908361210d565b9050808211156120f15760006120a68284612646565b6000546120b39190612659565b90506000826120c3856005612659565b6120cd919061273d565b905060006120db828461269f565b905080156120ed576120ed878261217d565b5050505b50505b612105565b8015612105576000600b555b505092915050565b6000600382111561216e575080600061212760028361269f565b61213290600161273d565b90505b818110156121685790508060028161214d818661269f565b612157919061273d565b612161919061269f565b9050612135565b50919050565b8115612178575060015b919050565b8060008082825461218e919061273d565b909155505073ffffffffffffffffffffffffffffffffffffffff8216600090815260016020526040812080548392906121c890849061273d565b909155505060405181815273ffffffffffffffffffffffffffffffffffffffff8316906000907fddf252ad1be2c89b69c2b068fc378daa952ba7f163c4a11628f55a4df523b3ef906020015b60405180910390a35050565b600081831061222f5781612231565b825b9392505050565b73ffffffffffffffffffffffffffffffffffffffff82166000908152600160205260408120805483929061226d908490612646565b92505081905550806000808282546122859190612646565b909155505060405181815260009073ffffffffffffffffffffffffffffffffffffffff8416907fddf252ad1be2c89b69c2b068fc378daa952ba7f163c4a11628f55a4df523b3ef90602001612214565b6000610bb46e0100000000000000000000000000006dffffffffffffffffffffffffffff841661276d565b60006122316dffffffffffffffffffffffffffff8316846127b4565b73ffffffffffffffffffffffffffffffffffffffff8116811461233e57600080fd5b50565b60008060008060006080868803121561235957600080fd5b853594506020860135935060408601356123728161231c565b9250606086013567ffffffffffffffff8082111561238f57600080fd5b818801915088601f8301126123a357600080fd5b8135818111156123b257600080fd5b8960208285010111156123c457600080fd5b9699959850939650602001949392505050565b60005b838110156123f25781810151838201526020016123da565b50506000910152565b602081526000825180602084015261241a8160408501602087016123d7565b601f017fffffffffffffffffffffffffffffffffffffffffffffffffffffffffffffffe0169190910160400192915050565b6000806040838503121561245f57600080fd5b823561246a8161231c565b946020939093013593505050565b60008060006060848603121561248d57600080fd5b83356124988161231c565b925060208401356124a88161231c565b929592945050506040919091013590565b600080604083850312156124cc57600080fd5b82356124d78161231c565b915060208301356124e78161231c565b809150509250929050565b60006020828403121561250457600080fd5b81356122318161231c565b600080600080600080600060e0888a03121561252a57600080fd5b87356125358161231c565b965060208801356125458161231c565b95506040880135945060608801359350608088013560ff8116811461256957600080fd5b9699959850939692959460a0840135945060c09093013592915050565b73ffffffffffffffffffffffffffffffffffffffff8616815284602082015283604082015260806060820152816080820152818360a0830137600081830160a090810191909152601f9092017fffffffffffffffffffffffffffffffffffffffffffffffffffffffffffffffe0160101949350505050565b60006020828403121561261057600080fd5b5051919050565b7f4e487b7100000000000000000000000000000000000000000000000000000000600052601160045260246000fd5b81810381811115610bb457610bb4612617565b8082028115828204841417610bb457610bb4612617565b7f4e487b7100000000000000000000000000000000000000000000000000000000600052601260045260246000fd5b6000826126ae576126ae612670565b500490565b60007fffffffffffffffffffffffffffffffffffffffffffffffffffffffffffffffff82036126e4576126e4612617565b5060010190565b600082516126fd8184602087016123d7565b9190910192915050565b60006020828403121561271957600080fd5b8151801515811461223157600080fd5b60008261273857612738612670565b500690565b80820180821115610bb457610bb4612617565b60006020828403121561276257600080fd5b81516122318161231c565b7bffffffffffffffffffffffffffffffffffffffffffffffffffffffff8281168282168181028316929181158285048214176127ab576127ab612617565b50505092915050565b60007bffffffffffffffffffffffffffffffffffffffffffffffffffffffff808416806127e3576127e3612670565b9216919091049291505056fea164736f6c6343000816000aa164736f6c6343000816000a",
  "linkReferences": {},
  "deployedLinkReferences": {}
}